:020000040800F2
:10000000A811002479030008276B0008275A00086C
:10001000256B0008C1060008397F000800000000B9
:100020000000000000000000000000005F710008F8
:10003000D908000800000000D96D0008F971000817
:100040009303000893030008930300089303000838
:100050009303000893030008930300089303000828
:10006000930300089303000893030008E5060008C3
:10007000F1060008FD06000809070008150700083A
:100080002107000893030008B50600089303000841
:1000900093030008930300089303000893030008E8
:1000A00093030008930300089303000893030008D8
:1000B00093030008930300089303000893030008C8
:1000C00093030008930300089303000831700008AD
:1000D0003D70000893030008930300082D7F00087B
:1000E0009303000893030008000000009303000836
:1000F0009303000893030008930300089303000888
:100100009303000893030008797300089303000821
:100110009303000893030008930300089303000867
:100120002D0700083907000893030008930300080F
:100130009303000893030008930300089303000847
:1001400000000000000000000000000000000000AF
:100150009303000893030008930300089303000827
:100160009303000893030008930300089303000817
:1001700093030008930300089303000800000000A5
:1001800093030008930300089303000893030008F7
:1001900093030008930300089303000893030008E7
:1001A00093030008930300089303000893030008D7
:1001B00093030008930300089303000893030008C7
:1001C00093030008930300089303000893030008B7
:1001D00093030008930300089303000893030008A7
:1001E0009303000893030008930300089303000897
:1001F0009303000893030008930300089303000887
:100200009303000893030008930300089303000876
:100210009303000893030008930300089303000866
:1002200093030008930300089303000800000000F4
:1002300093030008930300080000000093030008E4
:100240009303000893030008930300089303000836
:100250009303000893030008930300089303000826
:100260009303000893030008930300089303000816
:1002700093030008930300089303000800000000A4
:100280009303000800000000930300080000000032
:10029000000000009303000800F002F800F05CF892
:1002A0000AA090E8000C82448344AAF10107DA45D1
:1002B00001D100F051F8AFF2090EBAE80F0013F0C7
:1002C000010F18BFFB1A43F001031847E08100003B
:1002D000008200000A444FF0000C10F8013B13F0BC
:1002E000070408BF10F8014B1D1108BF10F8015B8F
:1002F000641E05D010F8016B641E01F8016BF9D182
:1003000013F0080F1EBF10F8014BAD1C0C1B09D1D8
:100310006D1E58BF01F801CBFAD505E014F8016B4A
:1003200001F8016B6D1EF9D59142D6D370470000DC
:100330000023002400250026103A28BF78C1FBD8EE
:10034000520728BF30C148BF0B6070471FB508F087
:100350008BF81FBD10B510BD00F004F91146FFF772
:10036000F5FF07F03DFE00F022F903B4FFF7F2FFBE
:1003700003BC00F025F90000094880470948004700
:10038000FEE7FEE7FEE7FEE7FEE7FEE7FEE7FEE745
:10039000FEE7FEE704480549054A064B70470000A2
:1003A000E972000899020008A80B0024A811002493
:1003B000A80D0024A80D002453EA020C00F0698067
:1003C0002DE9F04B4FF00006002B1FBFB3FA83F569
:1003D00003FA05F424FA05F65E4012BF1643B2FA9A
:1003E00082F502FA05F4C5F120051EBF22FA05FCCC
:1003F00044EA0C04203556EA044C4FEA144418BF72
:10040000641C4FF000084FF00009904271EB030CA0
:1004100039D3002919BFB1FA81F701FA07F6B0FA0A
:1004200080F700FA07F6C7F120071EBF20FA07FC85
:1004300046EA0C062037B6FBF4FCA7EB0507103F95
:1004400007F01F0BCBF120060CFA0BFB2CFA06F67B
:1004500044BFB3460026202FA4BF5E464FF0000BDA
:100460005BEA060C08BF4FF0010B19EB0B09ABFB65
:10047000027C48EB0608C01B06FB02CC0BFB03CC3E
:1004800071EB0C01C1E70B46024641464846BDE808
:10049000F08B13B54FF000004FF00001AFF3008078
:1004A000BDE81C4070474FF000020429C0F01280E4
:1004B00010F0030C00F01B80CCF1040CBCF1020F17
:1004C00018BF00F8012BA8BF20F8022BA1EB0C01EC
:1004D00000F00DB85FEAC17C24BF00F8012B00F8E2
:1004E000012B48BF00F8012B70474FF0000200B508
:1004F000134694469646203922BFA0E80C50A0E847
:100500000C50B1F12001BFF4F7AF090728BFA0E8F4
:100510000C5048BF0CC05DF804EB890028BF40F8C0
:10052000042B08BF704748BF20F8022B11F0804F02
:1005300018BF00F8012B704770477047704710B51F
:1005400000F008F8006810BD10B5044600F002F88D
:10055000046010BD00487047440B002400487047F9
:10056000440B00247546FFF7F9FFAE4605006946C7
:10057000534620F00700854618B020B5FFF70AFF64
:10058000BDE820404FF000064FF000074FF0000894
:100590004FF0000B21F00701AC46ACE8C009ACE815
:1005A000C009ACE8C009ACE8C0098D46704710B579
:1005B0000446AFF300802046BDE81040FFF7D5BEEB
:1005C00001491820ABBEFEE726000200704710B5B7
:1005D000806B416D11F0500F416D04D0C90601D5FB
:1005E00000F08CFC10BD41F40071416501680A689F
:1005F000120707D5CA6812F4406F11D1C96889047F
:1006000003D50DE0C96889070AD1416D21F48071D5
:100610004165416DC90403D4416D41F0010141655B
:1006200000F06AFC10BD10B5806B416D41F04001D7
:100630004165816D41F00401816500F05FFC10BDF2
:1006400010B5806B00F059FC10BD000070B5044679
:100650000068816801F00301012902D10168C9071E
:1006600023D18168124A114210D1816841F0010101
:10067000816001F0F1FB054612E0816841F0010163
:10068000816001F0E9FB401B022809D9606D40F050
:1006900010006065A06D40F00100A065012070BDF4
:1006A00020680168C943C907E7D1002070BD000078
:1006B0003F000080014800F023BC000090010024AE
:1006C000FEE7000002490020096848637047000007
:1006D0000C0A002402494FF4967009684863704779
:1006E0000C0A0024014801F011B800002C04002479
:1006F000014801F00BB80000A4040024014801F0F7
:1007000005B80000F4010024014800F0FFBF00001C
:10071000CC0A0024014800F0F9BF00001C070024A7
:10072000014800F0F3BF000094070024014800F0E6
:10073000EDBF00002C060024014800F0E7BF0000D8
:10074000A406002401681823CAB2103AB2FBF3F2DF
:10075000054B6FF30901032A9B5CC36500D9091D92
:1007600081650846704700009484000810B512495E
:100770000123026854188C2CD1B20AD814220839EB
:10078000B1FBF2F10D4A02EB810202660B4A8032A4
:100790000EE018241039B1FBF4F1094C2244A82AC8
:1007A00000D80831074A02EB81020266054A80320E
:1007B0008B40C0E9192310BDF8ABFDA700580258C3
:1007C000F0FBFDBF0008024010B5017903684A1E26
:1007D000072A14D80A4C23448C2B06D8094B03EB68
:1007E0008101C1660749443105E0074B03EB8101F4
:1007F000C16605494431016701219140416710BD3F
:10080000F8ABFDA7FC580258FC080240014610B5A1
:1008100000208B694FF0C0748A6A53B1B3F5005F52
:1008200015D072B1012A0CD0022A0AD0032A09D1AC
:1008300004E01AB1012A06D0022A03D1C96AC9010B
:1008400000D5012010BDC96AA142FAD010BD002A0E
:10085000F7D0012AF2D0022AF3D0032AF3D010BD38
:10086000F0B5D0E91964856D7460C46E14B1D0E937
:100870001C466660154E04682644B6F5956F11D87F
:1008800090F85C603F24B440AC600468256825F4AF
:10089000802512E09A600068C160F0BD9960006830
:1008A000C260F0BD0A4D2C448C2CFAD8094C256846
:1008B000012690F85C70BE40354325600468636093
:1008C0008368402B0368E9D1E4E70000F0FFFDBF37
:1008D000F8ABFDA704540258704770477047704743
:1008E0007047704770470000F0B590F85020002323
:1008F00099B0012A21D0012280F85020314C0025E6
:100900000268A2421CD1304C0094926852074FD426
:10091000A26852074CD42D4A40F61F760C6864B387
:1009200094684F6824F440443C4394600468A7688A
:1009300007F00307012F0ED10AE0022019B0F0BD25
:10094000416D41F02001416580F850500120F5E7EC
:100950002468E40731D1009CA46804F00304012C4E
:1009600003D1009C2468E40727D10C6889680C43F4
:100970009168B1430C4394601FE0916821F44041B9
:10098000916001688C6804F00304012C02D10968AD
:10099000C90712D10099896801F00301012903D127
:1009A00000990968C90708D19168B143916004E0D2
:1009B000416D41F020014165012380F850501846F7
:1009C000BCE700000020024000210240002302405A
:1009D0002DE9F84F0023FC4C4FF0804E9B460093CE
:1009E00090F85020012A28D0012580F85050026844
:1009F000966876077ED4D669AA460F78BD402E4306
:100A0000D6614A681F254FF4F868052A18D206688F
:100A1000376B98FAA8FCBCFA8CFC02FB0CFC05FABC
:100A20000CF598FAA8FCAF430D68BCFA8CFC02FBED
:100A30000CF295402F43376349E00220BDE8F88F60
:100A40000A2A16D20668776B98FAA8FC521FBCFADD
:100A50008CFC02FB0CFC05FA0CF598FAA8FCAF43E1
:100A60000D68BCFA8CFC02FB0CF295402F437763B7
:100A70002DE006680F2A15D2B76B98FAA8FC0A3A3F
:100A8000BCFA8CFC02FB0CFC05FA0CF598FAA8FCED
:100A9000AF430D68BCFA8CFC02FB0CF295402F436F
:100AA000B76314E0F76B98FAA8FC0F3ABCFA8CFC19
:100AB00002FB0CFC05FA0CF598FAA8FCAF430D6894
:100AC000BCFA8CFC02FB0CF295402F43F7630268E2
:100AD00095684FF038064FF0070915F00C0F7DD1DF
:100AE0000D680A2D1BD3976996FAA6FC0A3DBCFA3D
:100AF0008CFC00E0C9E105FB0CF809FA08FC96FA49
:100B0000A6F827EA0C07D1F808C0B8FA88F805FB60
:100B100008F50CFA05FC47EA0C07976117E05769DE
:100B200096FAA6FCBCFA8CFC05FB0CF809FA08FC4A
:100B300096FAA6F827EA0C07D1F808C0B8FA88F8A0
:100B400005FB08F50CFA05FC47EA0C07576102683B
:100B50004D69D7684FF0F84CC7F382077F00BD405E
:100B60000F69012F4AD0022F6AD0032F7DD0042FA6
:100B70007CD0156E9CFAACF805F0F8470D68B8FA11
:100B800088F805FA08F5AF4203D1156E25F0004547
:100B900015660268556E9CFAACF805F0F8470D68CA
:100BA000B8FA88F805FA08F5AF4203D1556E25F07A
:100BB000004555660268956E9CFAACF80F68B8FA65
:100BC00088F805F0F84507FA08F7BD4203D1956E9D
:100BD00025F0004595660268D56E00E02FE09CFA8E
:100BE000ACFC05F0F8470D68BCFA8CFC05FA0CF576
:100BF000AF4224D1D56E25F0004589E0176E9CFAEE
:100C0000ACFC07F000480F68BCFA8CFC07FA0CF744
:100C10002F4348EA0708C2F86080026815690F7E12
:100C200025F400653D4315614A7E002A0268156E71
:100C300002D045F0004501E025F00045156668E06A
:100C4000576E9CFAACFC07F000480F68BCFA8CFCAD
:100C500007FA0CF72F4348EA0708C2F864800268D5
:100C600015690F7E25F4805501E00FE031E045EA7B
:100C7000470515614A7E002A0268556E02D045F08C
:100C8000004501E025F00045556642E0976E9CFA6C
:100C9000ACFC07F000480F68BCFA8CFC07FA0CF7B4
:100CA0002F4348EA0708C2F86880026815690F7E7A
:100CB00025F4005545EA870515614A7E002A026839
:100CC000956E02D045F0004501E025F0004595669F
:100CD0001FE0D76E9CFAACFC07F000480F68BCFA26
:100CE0008CFC07FA0CF72F4348EA0708C2F86C801F
:100CF000026815690F7E25F4804545EAC705156130
:100D00004A7E002A02683FF475AFD56E45F0004573
:100D1000D5660268956805F00305012D02D11568B6
:100D2000ED0761D1CD68754507D052F8C06F0F78D7
:100D30000AFA07F5AE4316603CE052F8C07F91F81E
:100D400000C00AFA0CF52F4317600A680568092AE3
:100D500018D3AF6996FAA6FC093ABCFA8CFC96FA4D
:100D6000A6F602FB0CF8B6FA86F609FA08FC7243FE
:100D700027EA0C07D1F808C00CFA02FC47EA0C0776
:100D8000AF6117E06F6996FAA6FC521CBCFA8CFCA6
:100D900096FAA6F602FB0CF8B6FA86F609FA08FCF3
:100DA000724327EA0C07D1F808C00CFA02FC47EAA4
:100DB0000C076F61054E0568054FB54201D0BD4275
:100DC0000AD1044A09E000000060025800200240F5
:100DD0000021024000230240444A0968122904D03D
:100DE000112907D013290AD054E0D2F808C04FEADD
:100DF0000C2C08E0D2F808C04FEACC1C03E0D2F873
:100E000008C04FEA4C2CBCF1000F43DBD5F808C0FA
:100E10000CF0030CBCF1010F04D1D5F800C05FEA5F
:100E2000CC7C32D1B54210D1D6F8087107F0030757
:100E3000012F03D1D6F80061F60726D1A66806F087
:100E40000306012E2AD126681DE0BD42B76807F0CF
:100E500003070BD1012F02D13768FF0715D1A7680F
:100E600007F00307012F06D1276802E0012F02D106
:100E70003768FF0709D1D6F8087107F00307012F7B
:100E80000CD1D6F80061F60708D0416D41F0200181
:100E90004165012380F850B01846CFE512290AD0E9
:100EA00011291CD01329F5D1A542F3D1916841F441
:100EB00080019160EEE7A542ECD1916841F4000118
:100EC00091600B490B4A0968B1FBF2F1C1EB0111CA
:100ED000C90000E0491E00910029FBD1DAE7A542D4
:100EE000D8D1916841F08071E3E7000000630258B7
:100EF0002C01002480841E0070477047704700005A
:100F00002DE9F0410446006806684568B0070ED533
:100F1000A8070CD5606DC00603D4606D40F4006076
:100F200060652046FFF7DAFC216802200860700740
:100F3000974FDFF8608201D5680703D430074BD59F
:100F4000280749D5606DC00603D4606D40F4007079
:100F500060652068C16811F4406F37D1414688420E
:100F60002AD0B84228D0D1F80823D20624D0D1F80C
:100F7000082302F01F02052A1ED0D1F8082302F030
:100F80001F02092A18D0C96889041FD401680907FB
:100F90001CD58168490711D4416821F00C014160DA
:100FA000606D20F480706065606DC0040ED4606D6B
:100FB00040F00100606509E0C168E5E7606D40F060
:100FC00010006065A06D40F00100A0652046FFF7AD
:100FD00093FF21680C200860B00601D5A80603D451
:100FE00070066BD5680669D5606DC00603D4606D68
:100FF00040F40050606520680168490658D54246B3
:1010000090422DD0B8422BD0D8F808334146DB06A9
:1010100026D0D1F8083303F01F03062B20D0D1F8D7
:10102000083303F01F03072B1AD0C968904219D068
:10103000B84217D0D2F80833DB0613D0D2F8083301
:1010400003F01F03052B0DD0D2F8083303F01F0364
:10105000092B07D0D268C36C13F4C07F04D027E0FB
:10106000C168E3E7C268F6E7890221D44A4991439F
:1010700003D1C16811F4406F1AD0816809070FD4F9
:10108000416821F060014160606D20F4805060652E
:10109000606DC0050CD4606D40F00100606507E034
:1010A000606D40F010006065A06D40F00100A0652B
:1010B0002046FFF714FC21686020086030060BD53D
:1010C000280609D5606D40F480306065204600F048
:1010D0009BF9216880200860F0050CD5E8050AD549
:1010E000606D40F4003060652046FFF7FAFB216830
:1010F0004FF480700860B0050CD5A8050AD5606D66
:1011000040F4802060652046FFF7ECFB21684FF437
:1011100000700860F00621D5E8061FD5206B78B175
:101120002168414502D01D48814201D11C4800E0A0
:101130001C488268D20626D0806800F4404050B136
:10114000606D40F480606065A06D40F00200A065B5
:101150002046FFF7D3FE216810200860700515D5E2
:10116000680513D5606D40F480406065A06D40F067
:101170000800A06521684FF4806008602046BDE843
:10118000F041FFF7ADBBC868C007D8E7BDE8F08104
:1011900000600258002002400020000200210240AE
:1011A0000023024000630258F8B54FF00005040028
:1011B0002E46009502D0606D10B107E00120F8BD09
:1011C000204600F023F9A66584F850602068816805
:1011D000890003D5816821F0005181602068816811
:1011E000C90010D4816841F0805181607D487E49FA
:1011F0000068B0FBF1F000EB8000400000E0401E12
:1012000000900028FBD120688168C90008D4616D76
:1012100041F010016165A16D41F00101A165012559
:10122000616DC9067ED481684907FBD4616D41F0C8
:10123000020161656D4A6E4E904201D0B04201D10B
:101240006C4900E06C49836803F00303012B02D171
:101250000368DB0739D1694B904210D1D2F80801FD
:1012600000F00300012803D1D2F80001C0072CD1FF
:10127000986800F00300012821D118681DE0B042F1
:10128000906800F003000BD1012802D11068C0075C
:101290001BD1986800F00300012806D1186802E00D
:1012A000012802D11068C0070FD1D2F8080100F060
:1012B0000300012803D1D2F80001C00705D18868D6
:1012C000626820F47C1010438860A1684FF480337A
:1012D000206B627D93FAA3F308434FF40051B3FAF5
:1012E00083F391FAA1F1B1FA81F18A40217F01FAE9
:1012F00003F31A431043012909D14FF46022216AF4
:1013000092FAA2F2491EB2FA82F291400843616A4F
:10131000012903D0A26A0AB1114308432168CA68AF
:10132000374B00E056E01A400243CA6020688168EB
:1013300011F00C0F28D14FF48042217D92FAA2F2D5
:10134000B2FA82F29140E26A1143C26844F20303A6
:101350009A430A43C26094F8390001281CD02068DF
:10136000016921F00101016120680169626B21F0CE
:1013700070411143016194F83800012820688168A8
:101380001AD021F480718160E06801282068016B27
:1013900021F00F0113D015E0D4E91010A28F012322
:1013A0000143A06C03EB0242104301432068026931
:1013B000144B1A401143D6E741F48071E3E7A26968
:1013C000521E11430163606D20F0020040F00100E5
:1013D000606504E0606D40F01000606501252846FE
:1013E000F8BD00002C01002480841E000020024073
:1013F00000210240002302400063025800600258AE
:1014000003C0F0FF1EF800FC70470000F0B587B085
:10141000064614216846FFF768F82A493068884272
:101420004DD12948016841F020010160006826493A
:1014300000F0200005900831086840F004000860C2
:10144000086800F004000590086840F0200008607B
:10145000086803240025694600F02000059010204C
:101460008DE83100194800F0F5FB4FF40067009754
:1014700017486946CDE9014500F0ECFB164C1548CC
:1014800020600920C4E901057810C4E90350C000B8
:10149000C4E905704011E0610002C4E90805204676
:1014A00000F094FA08B1FFF718FA0022F464122051
:1014B0001146A66301F084F9122001F073F907B018
:1014C000F0BD000000200240D84402580008025835
:1014D0000014025840000240F40100242DE9F047B6
:1014E000044600688A4691468168490768D494F8A2
:1014F000501001291CD0344F0121DFF8D080002684
:10150000B84284F8501001D0404514D1D7F80803F0
:10151000C00610D0D7F8080300F01F0005280AD035
:10152000D7F8080300F01F00092804D0012507E0C0
:101530000220BDE8F0872046FFF788F8050002D0BA
:1015400084F850603DE0606DC00404D5A06D20F0CB
:101550000600A06500E0A665606D40F60161884365
:1015600040F4807060652068B84205D0404503D0E3
:10157000D7F80803C00603D1606D20F480106065C1
:10158000E16C1348C863E16C12480864E16C1248CE
:10159000C8641C20216808602068416841F010017F
:1015A000416021684B46E06C5246403100F0D8FA69
:1015B00084F850602068816841F00401816000E097
:1015C00002252846B5E70000002002400021024025
:1015D000CF050008410600082706000830B50C7A40
:1015E00000221346012C01D1D1E9002390F83540A7
:1015F000012C04D04FF400614165012030BD90F80A
:101600003440012C36D0012480F8344050F8604F2B
:10161000256825F4813525604FF0F8544FF478059E
:1016200094FAA4F495FAA5F5B4FA84F4B5FA85F51C
:10163000A240CC68641EAC4022434FF480341A436D
:101640000B7A94FAA4F4497AB4FA84F4A3401A43C6
:101650004FF4007393FAA3F3B3FA83F399400A4368
:1016600050F82C190B68DBB21A430A600021017094
:10167000084630BD022030BD10B528B190F83510B5
:10168000022903D080214165012010BD1D4A4FF47D
:10169000956301688C189C4207D8042280F8352095
:1016A000086820F00100086029E00C6824F00E04AE
:1016B0000C6001680A440A6822F001020A60016EA7
:1016C0000A6822F480720A6090F85C30012202FA03
:1016D00003F10D4B1960D0E919134B60C16E31B1A4
:1016E0000B6823F480730B60D0E91C134B6000215E
:1016F00080F8341080F83520016D01B18847002052
:1017000010BD0000F0FFFDBF045402582DE9F84F52
:101710000446A948002700974FF41651A56D0068AC
:10172000B0FBF1FB2E680823DFF890824FF4956937
:1017300020684FF0010A00EB0801494576D894F87B
:101740005C201946934033420FD0026812F0040F18
:101750000BD0026822F00402026094F85C00814021
:10176000A960606D40F00100606594F85C009449E8
:10177000814031420DD0206800EB08024A452CD848
:10178000406910F0800F04D0A960606D40F0020045
:1017900060658B4994F85C00C91C814031420DD0D2
:1017A000206800EB08024A45006807D810F0020FD5
:1017B00004D0A960606D40F00400606594F85C009E
:1017C00010218140314222D0206800EB08024A45B6
:1017D000006804D800F0080003E00068D9E700F0D2
:1017E0000400A0B1A96020680168490304D500681D
:1017F000000308D5A16C07E00168C90503D401689E
:1018000021F008010160216C09B12046884794F855
:101810005C002021814031423AD0206800EB080270
:101820004A45006803D800F0100002E065E000F0CF
:10183000020068B3A96094F83500042820680168A4
:1018400006D0490342D5006800031DD4616C1CE03A
:1018500021F0160101602068416921F08001416199
:10186000206C08B9A06C20B12068016821F0080143
:10187000016094F85C103F208840A86084F83470C0
:1018800084F835A0216D31E0E16B09B1204688472D
:10189000606D002875D0606DC00726D0042084F8E4
:1018A00035002068016821F001010160216800987D
:1018B000401C0090584502D80868C007F7D184F84A
:1018C00034700868C0070DD003200CE00168C9051A
:1018D000DAD4016821F01001016084F8347084F8D2
:1018E00035A0D1E7504684F83500E16C002961D07D
:1018F00001B02046BDE8F04F0847324901448C2929
:1019000058D8314ED6F800C00425E16D05FA01F231
:101910001CEA020F06F1040213D0D0F800C05FEAFF
:101920004C7C0ED50168890603D4016821F00401BE
:101930000160106894F85C108D4028431060216CA1
:10194000D4E7D6F800C0022505FA01F81CEA080F12
:1019500018D0D0F800C05FEA8C7C13D501688906E6
:1019600007D4016821F00A01016084F8347084F81A
:1019700035A0106894F85C108D4028431060E16B2E
:10198000B4E717E035688B401D4213D001680907A2
:1019900010D5016821F00E0101601168504694F8DD
:1019A0005C300AFA03F319431160C4F854A084F8B8
:1019B000347098E7BDE8F88F2C010024F0FFFDBFDC
:1019C00001008000F8ABFDA7005402582DE9F04754
:1019D000044600F041FA0646BCB15E492027206863
:1019E00000254FF0010A4FF0030842184FF040095C
:1019F0000221B2F5956F50D884F8345084F8351030
:101A0000016821F00101016009E00120BDE8F087D3
:101A100000F022FA801B052801D9676579E020686B
:101A20000068C007F4D121680A684B480240D4E935
:101A300002031843D4E9043633431843A369184317
:101A4000E3691843236A18431043626A042A03D1E6
:101A5000D4E90B231A43104308602068406920F042
:101A60000701606A042840EA01060BD1A06A064318
:101A7000E06A38B12046FEF7C9FE18B1C4F85490A8
:101A8000504647E0206846612046FEF75BFE94F82A
:101A90005C203F21914081602DE0304BC2188C2AA0
:101AA00035D884F8345084F83510026847F6F07160
:101AB0008A43A168402925D0802925D00021E668E5
:101AC00041EAD601266941EAD601666941EAD601B2
:101AD000A66941EAD601E66907EAD6063143266AD5
:101AE00041EA161111430160206814211844B0FB2B
:101AF000F1F08000E0652046FEF738FEA0688028FF
:101B00000BD00BE01021DAE74FF48041D7E7C4F89F
:101B10005490404684F8350077E76560216E20795F
:101B20000860D4E9190141606068401E072808D8A0
:101B30002046FEF749FEE06E0560D4E91C014160D5
:101B400002E0E56625676567656584F835A00020D5
:101B50005CE70000F0FFFDBF3F8010FEF8ABFDA783
:101B60002DE9F04104004FF0000514D094F8340042
:101B7000012812D0012084F8340094F83560002048
:101B8000012E0CD084F834004FF40060606501250C
:101B90002846BDE8F0810120FBE70220F9E7022694
:101BA00084F8356060654FF4956720681F4ED0F863
:101BB00000C02CF0010CC0F800C02046FEF750FE1B
:101BC00020688119B942016810D821F01E0141F046
:101BD000160101602068416941F080014161206C7B
:101BE00080B12068016841F008010AE021F00E018F
:101BF00041F00A010160206C20B12068016841F0C9
:101C000004010160206E0168C90303D5016841F435
:101C100080710160E06E18B1016841F4807101606B
:101C20002068016841F001010160B1E7F0FFFDBFEC
:101C300070B5044600F010F90546601C02D0044857
:101C40000078044400F008F9401BA042FAD370BDAC
:101C5000200100242DE9F84F6C4C00224FF0B04ACF
:101C60004FF0010B4FF0030E4FF00F090B680BFA0A
:101C700002F73B40BB4270D14D68022D01D0122DBE
:101C800012D1D50800EB850CDCF820605507ED0E6D
:101C900009FA05F826EA0806D1F8108008FA05F8CE
:101CA00048EA0608CCF82080D0F80080560091F869
:101CB00004C00EFA06F50CF0030C28EA05080CFA2D
:101CC00006FC4CEA080CC0F800C0D1F804C0BCF116
:101CD000010F08D0BCF1020F05D0BCF1110F02D0EA
:101CE000BCF1120F16D1D0F808C0D1F80C802CEA44
:101CF000050C08FA06F848EA0C08C0F80880D0F885
:101D000004C02CEA070C0F79C7F30017974047EA85
:101D10000C074760C768AF438D68B5403D43C56059
:101D20004D68ED006BD53A4D2E6846F002062E60E8
:101D30002D6822F0030606F1B04605F00205009575
:101D4000D6F808C495072F0F09FA07F52CEA050CF9
:101D5000304DA84202D100252EE050E02E4DA84281
:101D600001D1012528E02D4DA84201D1022523E013
:101D70002B4DA84201D103251EE02A4DA84201D1D6
:101D8000042519E0284DA84201D1052514E0274D6E
:101D9000A84201D106250FE0254DA84201D1072513
:101DA0000AE0244DA84201D1082505E0224DA842B1
:101DB00001D1092500E00A25BD4045EA0C05C6F819
:101DC000085425684E689D43F60300D51D432560E1
:101DD00065684E689D43B60300D51D436560DAF81B
:101DE000005056464F689D43FF0200D51D433560A5
:101DF00075684F689D43BF0200D51D437560521C36
:101E0000102AFFF433AFBDE8F88F000080000058BF
:101E1000F444025800000258000402580008025816
:101E2000000C025800100258001402580018025802
:101E3000001C025800200258002402580069084083
:101E400000D00120704742694A40426170470AB1A0
:101E500001837047418370470148806870470000E4
:101E60002001002438B5040053D0022084F8C100BA
:101E70000025C4F8C450C4F8C850C4F8CC50C4F805
:101E8000D050C4F8D450C4F8D850207AC0071BD022
:101E900021492068884208D12048016841F000515A
:101EA0000160006800F00050009020680168228AFC
:101EB00021F4404102F440420A43A18A22F44052F4
:101EC00001F4405111430160204600F029F8207AC6
:101ED000800708D52068016821F44072A18901F4C7
:101EE000407111430160012084F8C100002184F891
:101EF000C050C1EBC100491C04EB8000C9B20529E8
:101F00008561C5610562456285620563F1D900207E
:101F100038BD012038BD000000740140F044025873
:101F200008B500680649884208D10648016841F0B2
:101F300000510160006800F00050009008BD0000F2
:101F400000740140F044025870B586B00446142174
:101F50006846FEF7CAFA17492068884228D1164811
:101F6000016841F004010160016801F0040105917C
:101F7000016841F001010160006802240026694601
:101F800000F0010005904FF4A0708DE85100012091
:101F90000325CDE903500948FFF75CFE4FF4A0503C
:101FA00069468DE851000648CDE90354FFF752FE1B
:101FB00006B070BD00740140E044025800080258A9
:101FC0000000025870B590F8C130022B23D00223D4
:101FD00080F8C130052920D00368802404EBC114A7
:101FE0001D5925F007069568354325F01806D56874
:101FF00035431D510468942505EBC11513686351E1
:102000000368982404EBC11152685A50012180F8EA
:10201000C110002070BD022070BD01680B6823F064
:10202000070493682343D46823F018031C430C600F
:10203000036811685961516802689161E6E72DE90A
:10204000F04790F8C140022C21D090F8C040012CFC
:102050001DD0012780F8C070022480F8C1400529F6
:1020600018D09C24012A04EBC1162CD08024A8256A
:10207000022A4FF400594FF4405A05EBC11504EB06
:10208000C11422D0042A40D0082A5DD13FE00220AA
:10209000BDE8F087012A06D0022A08D0042A0AD017
:1020A000082A51D10BE002681968D1614CE002683E
:1020B0001968516248E002681968916244E0026858
:1020C0001968D16240E0196816E0D0F800C04FF0FE
:1020D000A40808EBC1111A684CF80120596891B3A3
:1020E00001680A5922F440520A5101680A59D3F88A
:1020F00004C042EA0C0220E00268915124E05145FC
:1021000022D19968026851511EE01968FAE7D0F8A7
:1021100000C04FF0AC0808EBC1111A684CF8012060
:10212000596881B101680A5922F440420A51016894
:102130000A59D3F804C042EA8C020A515968494549
:10214000DDD19968D8E7FFE780F8C170002180F8F9
:10215000C01008469CE710B590F8C020012A0FD0A7
:10216000012480F8C040022280F8C12050F8C02B22
:1021700013680B431360447000210170084610BDC2
:10218000022010BD70B5044690F8C100022811D09D
:1021900094F8C00001280ED0012584F8C050022018
:1021A00084F8C100204603F02CFB84F8C1500020C5
:1021B00084F8C00070BD022070BD10B590F8C0203A
:1021C000012A11D0012480F8C040022280F8C120E9
:1021D00050F8C02BD2F894330B43C2F894334470B8
:1021E00000210170084610BD022010BD2DE9F0410C
:1021F000054690F8C10014460E46022825D095F8F1
:10220000C000012823D0012785F8C070022085F87E
:10221000C100052E1DD0284603F056FBC6EBC600B4
:10222000216805EB8000016261684162A1688162FA
:10223000E168C162216901633146284603F0B4FABE
:1022400085F8C170002085F8C000BDE8F08102204B
:10225000FBE728680168D0F8A02321F0200361691A
:10226000194321F40063A169194321F48063E169F2
:10227000194321F0C063216A194321F00063616AA8
:102280001943A36A21F0404141EA830121F0005340
:10229000216B194322F48033E26A01601A432868F3
:1022A000C0F8A023BAE790F84120202A24D190F862
:1022B0004020012A20D0012280F84020242280F8EA
:1022C00041200268136823F0010313600268136859
:1022D00023F480531360026813680B431360016892
:1022E0000A6842F001020A60202180F841100021B2
:1022F00080F84010084670470220704790F841204F
:10230000202A22D190F84020012A1ED0012280F8F4
:102310004020242280F841200268136823F0010342
:1023200013600268136823F4706343EA01211160AB
:1023300001680A6842F001020A60202180F8411019
:10234000002180F8401008467047022070470000C6
:1023500070B5040004D094F84100002510B106E0E7
:10236000012070BD204684F8405000F005F924207B
:1023700084F841002068016821F0010101602168B2
:10238000606820F0706008612068816821F4004175
:102390008160E0680128A06807D040F4044021680B
:1023A0008860E068022803D006E040F40040F6E7C9
:1023B00021684FF40060486020684168114A114369
:1023C00041602068C16821F40041C160D4E9040182
:1023D0000843A16940EA01202168C860D4E90701E7
:1023E0000843216808602068016841F0010101602C
:1023F0006564202084F84100256384F84250002061
:1024000070BD0000008000022DE9FF4F83B004463C
:1024100090F841009A469346DDE91087DDF8489030
:10242000202874D15FEA080072D0002F70D094F891
:10243000400001286BD0012084F84000FFF70CFD1C
:102440000122054619230090D103204603F08AFBA0
:10245000002874D1222084F84100402084F84200F2
:1024600000266664C4F824806785534666635A462E
:1024700004992046CDE9009503F026FB28B1606C55
:1024800084F8406004285ED059E0618DFF27384809
:102490004FF08078FF294FF0007A04D927853A461B
:1024A0004346009005E0618D53462185009094F8E5
:1024B00028202046049903F03FFB00224B460421CC
:1024C0002046009503F04EFBC8BB2068416A606A55
:1024D000421C62620170208D401E0004000C2085A9
:1024E000618DA1F1010161851DD1608DD8B10022FE
:1024F0004B4680212046009503F034FBF8B9608DEF
:10250000FF2806D927853A464346009607E02CE087
:1025100019E0608D53462085009694F828202046C7
:10252000049903F009FB608D0028C6D12A4649466C
:10253000204603F040FB40B1606C042803D0032028
:1025400007B0BDE8F08F0120FAE720682021C161C3
:1025500020684268074B1A40426084F8411084F8B2
:102560004260002084F84060EAE70220E8E70000CB
:102570000024008000E800FE2DE9F04786B0054603
:1025800014216846FDF7B1FF5C4F1226DFF868C1E1
:1025900000242968083759480422594B61454FF0F7
:1025A000030A19D1016841F0200101600068694601
:1025B000CDF800A000F02000CDE901640394CDE93E
:1025C00004201846FFF746FB386840F48000386066
:1025D000386800F480008DE0DFF828C161456AD1D9
:1025E000016841F004010160016801F004010591F6
:1025F000016841F0010101600068B04691466946FA
:1026000000F0010005904FF400700090CDE90164E6
:102610003D481646CDE90342FFF71CFB4FF480709E
:102620000090CDE9018439486946CDE90346FFF7BA
:1026300011FB386840F40000386038684FF4806857
:10264000344F00F400000590314807F1080138606C
:102650004A207860402081E811017C613846BC61E5
:10266000FC61C7E90846C7E90AA456463C63FFF780
:10267000ADF908B1FEF731F9AF63BD63254F2448CA
:102680007837183038604920C7E90104C7E90348A2
:102690007C613846BC61FC61C7E90849C7E90A6446
:1026A0003C63FFF793F908B1FEF717F9EF63BD63D9
:1026B00006B0BDE8F087184DA942F9D1016841F094
:1026C000200101600068694600F0200005904FF489
:1026D00040400090CDE90164CDE903421846FFF780
:1026E000B9FA06481430016841F0800101600068C1
:1026F00000F080000590DBE700580040E0440258FD
:1027000000140258005C0040000802580000025803
:10271000100002402C040024001C0058024881686C
:10272000027811448160704720010024032010B515
:1027300000F066F8002000F007F808B1012010BD95
:1027400000F022F8002010BD70B50D4D04464FF486
:102750007A712878B1FBF0F00A490968B1FBF0F012
:1027600002F05EF848B9102C07D200222146501E14
:1027700000F026F800206C6070BD012070BD0000E4
:10278000200100242C010024054808B5016841F00F
:1027900002010160006800F00200009008BD000026
:1027A000F4440258002809DB012100F01F02914087
:1027B0004009800000F1E020C0F8001170470000DF
:1027C0000E4BF0B41B68C3F30223C3F10704042CBF
:1027D00000D904241D1D072D01D2002300E0DB1EBB
:1027E000012606FA04F56D1E0D409D409E40761EA2
:1027F000164045EA0601F0BC05F09FBB0CED00E079
:10280000064A00F0070110684FF6FF03184040EA3F
:102810000120034908431060704700000CED00E000
:102820000000FA0510B500F0B3FE084909684FF43E
:10283000807292FAA2F201F47061B2FA82F2D1408F
:10284000034A515CC8400349086010BD184402584F
:102850009C8400082C01002410B500F053FE0749A9
:102860000968102292FAA2F201F07001B2FA82F223
:10287000D140034A515CC84010BD000020440258BA
:102880009C840008364930B50A68096812F00302D2
:10289000344BC1F305311B68334C03F0100324683B
:1028A000DFED320AB7EE001AC4F3CC0414FB03F3D5
:1028B00000EE103A2E4BB8EE400A07D02D4C012AFC
:1028C00001D0022A4AD0B4FBF1F10BE0244C283CA1
:1028D00022689506284A03D52468C4F3C104E2405F
:1028E000B2FBF1F101EE901A1968B8EE612AC1F35A
:1028F000080101EE901A1968F8EE611A40EE201AEC
:1029000031EE810A22EE000AC1F34621491C00EE95
:10291000901AF8EE600A80EE201AFCEEC10AC0EDB3
:10292000000A1968C1F30641491C00EE901AF8EE3E
:10293000600A80EE201AFCEEC10AC0ED010A196897
:10294000C1F30661491C00EE901AF8EE600A80EEB1
:10295000201ABCEEC10A80ED020A30BD074ABFE76B
:10296000284402582C4402583C44025800000039C4
:102970003844025800093D000090D00300127A004C
:10298000364930B50A68096812F00302344BC1F3C6
:1029900005511B68334C03F480732468DFED320A61
:1029A000B7EE001AC4F3CC0414FB03F300EE103AA4
:1029B0002E4BB8EE400A07D02D4C012A01D0022A36
:1029C0004AD0B4FBF1F10BE0244C283C2268950678
:1029D000284A03D52468C4F3C104E240B2FBF1F1F4
:1029E00001EE901A1968B8EE612AC1F3080101EEF0
:1029F000901A1968F8EE611A40EE201A31EE810A39
:102A000022EE000AC1F34621491C00EE901AF8EEAE
:102A1000600A80EE201AFCEEC10AC0ED000A1968B7
:102A2000C1F30641491C00EE901AF8EE600A80EEF0
:102A3000201AFCEEC10AC0ED010A1968C1F3066153
:102A4000491C00EE901AF8EE600A80EE201ABCEEE7
:102A5000C10A80ED020A30BD074ABFE72844025888
:102A60002C440258444402580000003940440258A3
:102A700000093D000090D00300127A002DE9F84FC4
:102A80000446006800252E46010104F12400FE4F93
:102A9000DFF8F88300901DD5606E50B1B0F5801F4F
:102AA0000CD0B0F5001F0ED0B0F5401F1DD0012591
:102AB0000FE0386840F40030386016E00221201D35
:102AC00004F08CF903E00098022104F0FFF90500FE
:102AD0000BD02E462088C00523D5606D05281ED258
:102AE000DFE800F00C11161B1B00D8F80010626E16
:102AF00021F440111143C8F80010EBE7386840F4A6
:102B00000030386009E00021201D04F067F903E07F
:102B10000098002104F0DAF905466DB100E00125C6
:102B20002E432088800528D5A06D80281ED00CDC7F
:102B300090B140280ED114E0D8F80010626D21F059
:102B400007011143C8F80010EBE7C02813D0B0F517
:102B5000807F10D001250FE0386840F400303860E5
:102B600009E00021201D04F039F903E0009800215C
:102B700004F0ACF9054685B12E432088DFF81093A8
:102B800040052CD5D4F8A400B0F5800F20D00DDC82
:102B9000A0B1B0F5001F0FD115E0D8F80010A26D5C
:102BA00021F4E0711143C8F80010E6E7B0F5C00F5A
:102BB00013D0B0F5000F10D001250FE0386840F4B5
:102BC0000030386009E00021201D04F007F903E01F
:102BD0000098002104F07AF9054675B12E4320884B
:102BE00000052DD5D4F8A800B0F1007F21D00EDC6F
:102BF000A8B1B0F1807F10D116E0D9F80010D4F858
:102C0000A42021F460011143C9F80010E7E7B0F1F6
:102C1000407F13D0B0F1806F10D001250FE03868ED
:102C200040F40030386009E00021201D04F0D6F89F
:102C300003E00098002104F049F905466DB12E43E8
:102C4000206880011FD5A06CD8B110280FD0202893
:102C500012D0302815D0012514E0D9F80010D4F88E
:102C6000A82021F0E0611143C9F80010E8E73868B6
:102C700040F40030386004E00221201D04F0AEF87A
:102C800005466DB12E432088C0042BD5E06DB0F50C
:102C9000005F20D00DDCA0B1B0F5805F0FD115E052
:102CA0007A48001F0168A26C21F0300111430160D5
:102CB000E9E7B0F5405F13D0B0F5804F10D00125A3
:102CC0000FE0386840F40030386009E00021201D32
:102CD00004F084F803E00098002104F0F7F80546BA
:102CE00085B12E432088800429D5206EB0F5403F61
:102CF00023D010DC08B3B0F5803F14D0B0F5003F0E
:102D00000FD115E0D8F80010E26D21F4E041114335
:102D1000C8F80010E6E7B0F5802F0ED0B0F5A02F70
:102D20000BD001250AE00121201D04F057F803E033
:102D30000098012104F0CAF805468DB12E43208881
:102D400040042AD5D4F8AC00B0F1405F23D010DCA9
:102D500008B3B0F1805F14D0B0F1005F0FD115E07F
:102D6000D8F80010226E21F4E0211143C8F80010B9
:102D7000E5E7B0F1804F0ED0B0F1A04F0BD00125A8
:102D80000AE00121201D04F029F803E00098012148
:102D900004F09CF805466DB12E43208800041FD531
:102DA000E06ED8B1B0F1805F0ED0B0F1005F10D00E
:102DB000012514E0D9F80010D4F8AC2021F0E0414E
:102DC0001143C9F80010E8E7386840F40030386073
:102DD00004E00121201D04F001F805466DB12E43E9
:102DE0002068C0011ED5606CD0B101280ED0022829
:102DF00011D0032814D0012513E0D8F80010E26E9A
:102E000021F040511143C8F80010E9E7386840F458
:102E10000030386004E00221201D03F0DFFF05468A
:102E200075B12E432068DFF86CB040025AD51A48BD
:102E3000016841F480710160FFF70EF882460EE0F0
:102E40001248001F0168626C21F003011143016008
:102E5000E8E7FFF701F8A0EB0A0064283AD80E482B
:102E60000068C005F5D5B5BB094818300068B4F84E
:102E7000B01000F4407001F44071884219D0044849
:102E8000183001680AE000002C44025850440258EF
:102E9000584402581044025800480258026821F46D
:102EA000407142F480320260026822F48032026093
:102EB0000160D4F8B000B0F5807F22D1FEF7CCFFDE
:102EC000824609E0FEF7C8FFA0EB0A0141F2883014
:102ED000814201D9032504E0FE4800688007F1D54E
:102EE0007DB12E432078DFF8F0A3C0073CD0A06F5F
:102EF000182837D025DC78B3082828D0102824D10A
:102F00002BE0D4F8B000C0F3012103290ED0DBF888
:102F1000001021F47C51CBF80010EE480168B4F8A1
:102F2000B020C2F30B0211430160DBE7DBF80020A5
:102F3000EA4B22F47C5203EA10100243CBF8002043
:102F4000EBE720280ED028280CD001250BE001212A
:102F5000201D03F043FF04E004E00098012103F08A
:102F6000B5FF05465DB12E43207880071ED5606F02
:102F7000062819D2DFE800F0160C11161616DAF83A
:102F80000010A26F21F038011143CAF80010EBE7DE
:102F90000121201D03F022FF03E00098012103F02E
:102FA00095FF054675B100E001252E4320784007C6
:102FB0001FD5D4F89000062819D2DFE800F0160CCF
:102FC00011161616DAF80010626F21F0070111438E
:102FD000CAF80010EAE70121201D03F0FFFE03E01C
:102FE0000098012103F072FF05469DB100E0012524
:102FF0002E43207880062BD5D4F88C00B0F1405FAA
:1030000024D011DC10B3B0F1805F15D0B0F1005FB7
:1030100010D116E0D9F80010D4F8902021F0070163
:103020001143C9F80010E4E7B0F1804F0ED0B0F1C1
:10303000A04F0BD001250AE00021201D03F0CEFE99
:1030400003E00098022103F041FF05468DB12E43B5
:10305000207840062BD5D4F89800B0F5406F24D0E6
:1030600011DC10B3B0F5806F15D0B0F5006F10D142
:1030700016E0DAF80010D4F88C2021F0E04111437A
:10308000CAF80010E4E7B0F5805F0ED0B0F5A05F9D
:103090000BD001250AE00021201D03F09FFE03E074
:1030A0000098022103F012FF05468DB12E432078CF
:1030B00000062BD5D4F89C00B0F5C04F24D011DC0D
:1030C00010B3B0F5005F15D0B0F5804F10D116E009
:1030D000D9F80010D4F8982021F4E0511143C9F830
:1030E0000010E4E7B0F5004F0ED0B0F5204F0BD044
:1030F00001250AE00021201D03F070FE03E0009886
:10310000022103F0E3FE054665B32E432078000755
:103110000BD5D4F88000B0F5805F2DD0DAF8002010
:1031200022F440520243CAF800202078C0060BD592
:10313000D4F89400B0F5807F24D0D9F8002022F490
:1031400040720243C9F80020206800032CD5D4F84F
:10315000A000E8B1B0F5803F1FD0B0F5003F21D00E
:10316000012520E0D9F80010D4F89C2021F460411A
:103170001143C9F80010C9E70098022103F0A6FE28
:103180000643D2E70098022103F0A0FE0643DBE7E6
:103190000021201D03F022FE03E00098022103F02D
:1031A00095FE054685B12E432068400322D5D4F80C
:1031B0008400B0F5801F11D0B0F5001F13D0B0F51A
:1031C000401F15D0012514E0D9F80010D4F8A02034
:1031D00021F440311143C9F80010E5E7386840F4A4
:1031E0000030386004E00098012103F06FFE0546CE
:1031F00055B12E432068C0031CD5E06C70B1B0F50A
:10320000803F10D0012514E0DAF80010D4F88420B3
:1032100021F440111143CAF80010EBE7386840F47C
:103220000030386004E00221201D03F0D7FD054680
:10323000C5B12E432068800004D50098022103F018
:1032400045FE0643206880031BD5E06FB8B1B0F59A
:10325000807F10D0B0F5007F11D0B0F5407F0ED048
:1032600001250DE01C4808380168E26C21F480312A
:1032700011430160DEE7386840F40030386045B340
:103280002E432068C00207D5D8F80000226F20F036
:1032900000401043C8F800002068C00008D5DBF8E3
:1032A0000010D4F8B42021F480411143CBF8001071
:1032B0002068800207D5D8F80010A26E21F0807136
:1032C0001143C8F800102068400014D5DBF8001046
:1032D00006E01EE07044025854440258CFFFFF003D
:1032E00021F40041CBF80010DBF80010D4F8B8202E
:1032F0001143CBF800102068002806DA0A4801685C
:10330000226D21F04051114301605EB10120BDE802
:10331000F88FDAF80010E26F21F440711143CAF817
:103320000010AEE70020F2E74C4402582DE9F047C8
:10333000DFF8BC9104460E46D9F8000000F0070003
:10334000B0420CD2D9F8001021F007013143C9F87E
:103350000010D9F8000000F00700B0427ED12078BC
:10336000DFF89081800707D5D8F80010E26821F0D7
:103370000F011143C8F800102078C00762D0D8F8B8
:103380000010A26821F470611143C8F80010594977
:103390006068183902281CD003281DD0096801284C
:1033A0001DD04907002960DA524F083F396821F0E3
:1033B000070101433960FEF74FFD0546606841F2A1
:1033C0008831022813D003281ED001288A4627D02E
:1033D00034E009688903E5E709688901E2E7C9057E
:1033E000E0E7FEF739FD411B514501D923E08A464C
:1033F0003868C0F3C2000228F3D123E0FEF72CFDA9
:10340000411B514501D916E08A463868C0F3C20015
:103410000328F3D116E0FEF71FFD411B51450AD8E2
:103420003868C0F3C2000128F5D10BE0FEF714FDA7
:10343000411B514502D90320BDE8F087386810F0E0
:10344000380FF3D1D9F80010484601F00701B14216
:103450000DD9016821F00701314300E005E001606A
:10346000006800F00700B04201D00120E4E72078B6
:10347000400707D5D8F80010226921F070011143E8
:10348000C8F80010207801071B4805D5016862695B
:1034900021F07001114301602178C90605D501684A
:1034A000A26921F4E061114301602078800607D50C
:1034B0001149091D0868E26920F070001043086096
:1034C00000F066F8D8F800104FF4807292FAA2F279
:1034D00001F47061B2FA82F2D140084A515CC840EE
:1034E000074908600020FFF72FF90020A4E700003B
:1034F00000200052184402581C4402589C840008C2
:103500002C01002410B5FFF78DF908490968012244
:1035100092FAA2F201F00F01B2FA82F2D140044A0B
:10352000515CC8400349086010BD000018440258AF
:103530009C8400083001002410B5FFF7E3FF074921
:103540000968102292FAA2F201F07001B2FA82F236
:10355000D140034A515CC84010BD00001C440258D1
:103560009C84000810B5FFF7CDFF074909684FF4A8
:10357000807292FAA2F201F4E061B2FA82F2D140D2
:10358000024A515CC84010BD1C4402589C8400088B
:103590003548F0B50068364D10F03801334809D091
:1035A0000411082904D0C61010290BD018290BD0FB
:1035B0002046F0BD29688906FBD52968C1F3C10101
:1035C000C840F0BD3046F0BD274918310A68096887
:1035D00012F00302274BC1F305111B68264F03F0BD
:1035E00001033F68DFED250AB7EE001AC7F3CC07E9
:1035F00017FB03F300EE103A214BB8EE400A06D059
:10360000012A01D0022A2BD0B4FBF1F008E02A688D
:10361000920603D52A68C2F3C102D040B0FBF1F094
:1036200001EE900A1868B8EE612AC0F3080001EEB6
:10363000900A1868F8EE611A40EE201A31EE810AFD
:1036400022EE000AC0F34620401C00EE900AF8EE7D
:10365000600A80EE201ABCEEC10A10EE100AF0BD1E
:10366000B6FBF1F0DCE70000104402580090D003F4
:10367000004402582C4402583444025800000039D7
:10368000304402582DE9F04704460078DFF8F8830B
:10369000DFF8F893FE4DC0074CD0D8F80010404634
:1036A000C1F3C20102291AD00068C0F3C200032886
:1036B00005D1D9F8000000F0030002280FD060689F
:1036C000B0F5803F12D010B1B0F5A02F18D0286807
:1036D00020F480302860286820F4802009E02868E1
:1036E000800327D5606800287BD023E0286840F459
:1036F00080302860606888B1FEF7AEFB064609E0BE
:10370000286840F480202860F0E7FEF7A5FB801BC6
:10371000642867D828688003F7D50BE0FEF79CFB88
:10372000064604E0FEF798FB801B6428F1D8286861
:103730008003F7D42078D74F800767D5D8F80010DA
:1037400040464FF47C3A11F0380F13D00068C0F3B4
:10375000C200032803D1D9F8000080070AD0E0682E
:10376000F0B3296821F0190101432960FEF774FBC9
:10377000064628E02868400702D5E0680028B3D054
:103780002868E16820F0190008432860FEF764FB10
:10379000064604E0FEF760FB801B0228B9D82868C3
:1037A0004007F7D538689AFAAAF22169B2FA82F28C
:1037B00020F47C3091400843386027E0FEF74CFB52
:1037C000801B0228A5D828684007F7D538682169EA
:1037D00020F47C329AFAAAF0B0FA80F0814002E03C
:1037E00004E0B9E002E10A433A600FE0286820F003
:1037F00001002860FEF730FB064604E0FEF72CFBD4
:10380000801B022885D828684007F7D42078C00696
:1038100048D5D8F8001040464FF0F84AC1F3C2012D
:10382000012915D00068C0F3C200032805D1D9F8DA
:10383000000000F0030001280AD0E0690028286891
:1038400021D040F080002860FEF706FB06460BE022
:103850002868C0050BD5E06980287DD107E0FEF718
:10386000FBFA801B022899D82868C005F7D538686C
:103870009AFAAAF2216AB2FA82F220F0F840914054
:10388000084338600EE020F080002860FEF7E4FA7C
:10389000064604E0FEF7E0FA801B022892D828686A
:1038A000C005F7D42078000724D5784F60694C37DD
:1038B000002838680FD040F001003860FEF7CCFADD
:1038C000064604E0FEF7C8FA801B02289AD838683A
:1038D0008007F7D50EE020F001003860FEF7BCFA53
:1038E000064604E0FEF7B8FA801B02287ED8386846
:1038F0008007F7D42078800622D5A06900282868A0
:103900000FD040F480502860FEF7A6FA064604E087
:10391000FEF7A2FA801B022868D828688004F7D531
:103920000EE020F480502860FEF796FA064604E088
:10393000FEF792FA801B022858D828688004F7D432
:103940002078400747D5544F386840F4807038607D
:10395000FEF782FA064605E0C4E0FEF77DFA801B1A
:10396000642843D83868C005F7D5484FA068483761
:1039700001280AD008B1052813D0386820F00100CA
:103980003860386820F0040002E0386840F0010038
:103990003860A06841F2883A88B1FEF75DFA0646C1
:1039A00009E0386840F004003860EEE7FEF754FAAA
:1039B000811B51451AD838688007F7D50BE0FEF710
:1039C0004BFA064604E0FEF747FA811B51450DD835
:1039D00038688007F7D4606AF0B3D8F80010C1F3F4
:1039E000C20103297ED00228286800E07BE020F095
:1039F0008070286003D0FEF72FFA044687E0FEF7B8
:103A00002BFA064604E0FEF727FA801B02287BD833
:103A100028688001F7D4D9F8001040F2F3329143BE
:103A2000E26A41EA0211A26A1143C9F8001094F84F
:103A300034004FF4FE024002A0F5007081B2208EE7
:103A4000401EC0F308000143208F401E02EA0040E0
:103A5000014394F83C0000E05CE0401E120202EAE0
:103A600000600143094808300160031D19684FF6E2
:103A7000F872A06C914392FAA2F2B2FA82F29040EC
:103A800001431960014809E01044025828440258D3
:103A9000004402580444025800480258001D0168BE
:103AA000226C21F00C01114301600168626C21F06D
:103AB000020111430160016841F480310160016835
:103AC00041F400310160016841F480210160016826
:103AD00041F001010160286840F080702860FEF725
:103AE000BBF901E018E00FE0044604E0FEF7B4F98A
:103AF000001B022808D828688001F7D50AE0FEF7E5
:103B0000ABF9001B022802D90320BDE8F087286822
:103B10008001F4D40020F8E70120F6E770470000A8
:103B20002DE9F047044600680769D0F81490D0F8F2
:103B3000088007EA090594F881600020690605D429
:103B4000E90703D0216F204688470120A90606D443
:103B5000A90704D5616F2046BDE8F0470847002853
:103B600058D128074FF0010A69D52068816941F0D2
:103B7000080181612068816941F01001816120683C
:103B8000816941F4006181612068016921F00801C7
:103B9000016118F4404F09D0042E04D0A06FC06911
:103BA00020B1032E3FD0E06FC069A8BB20688068B9
:103BB00010F4404F1FD022E0E0680F2806D920689B
:103BC000006B616E0860606E001D0EE007282068C3
:103BD00005D9008E616E0880606E801C05E090F84B
:103BE0003000616E0870606E401C6066B4F86A0058
:103BF000401EA4F86A00B4F86A000028DCD1204610
:103C000003F022FA84F881A0D4F8840020B1204681
:103C1000FFF784FFBDE8F087FFE7052E07D0042EED
:103C200009D0032EF6D1204600F0F8FDF2E7204639
:103C300000F0F5FDEEE7204600F053FBEAE7380719
:103C400008D55FEA095005D52068816941F4006113
:103C50008161DFE715F4587FDCD068060AD5D4F817
:103C6000840040F00400C4F884002068816941F0B9
:103C700040018161A8050AD5D4F8840040F0010014
:103C8000C4F884002068816941F400718161E8050D
:103C90000AD5D4F8840040F00800C4F884002068F5
:103CA000816941F480718161A8060AD5D4F8840045
:103CB00040F08000C4F884002068816941F0200150
:103CC0008161D4F884000028A4D02068016821F024
:103CD000010101602068016940F26B32914301618A
:103CE00018F4404F14D02068816821F4404181606D
:103CF000094DE06F18B10565E06FFDF7BDFCA06FE1
:103D0000002887D00565A06FBDE8F047FDF7B4BC7B
:103D100084F881A07BE70000057100082DE9F041DF
:103D2000040027D00025A562474F2068474A484B2A
:103D3000B84206D0904204D0984202D0E1680F29E0
:103D400018D8E16B012606EB511CE1680831C9085F
:103D5000B84201FB0CF105D0904203D0984201D04B
:103D6000082907D8B84203D0904201D0984204D124
:103D7000102902D90120BDE8F08194F8810020B912
:103D8000204684F8805000F065F8022084F8810015
:103D90002068016821F001010160A069B0F1806F25
:103DA0000AD16068B0F5800F06D1A06B20B92068F9
:103DB000016841F480510160A16AE0690843E16B48
:103DC0000843E168084321688860616A606BA26902
:103DD0000843A16B11430843216908436169084303
:103DE000216A084361680843E16C0843A1680843FD
:103DF000A16C0843A16D08432168C860606868B978
:103E00002068816821F4C05141F40061816020681C
:103E1000816821F4C06141F4806181602068016D96
:103E200021F0010101656068400206D52068C16883
:103E3000626D21F000411143C160C4F8845084F8E0
:103E40008160002097E7000000300140003800400A
:103E5000003C00402DE9F04F8BB004461421684629
:103E6000FCF743FB002505950695022607950527D7
:103E700008954FF48069894A4FF0040821684FF093
:103E8000030B874891426FD1854910310A6842F48B
:103E900080520A60096801F480510991016841F07B
:103EA00008010160016801F008010991016841F011
:103EB000400101600068694600F0400009908020E0
:103EC0000090CDE901657748CDE90357FDF7C2FEC3
:103ED00078020090CDE9016573486946CDE9035742
:103EE000FDF7B8FE724E4FF4803A70484F4630608E
:103EF0002520C6E90105C6E903597561D946C6F80A
:103F000024803046B561C6E9075AC6E90AB535636B
:103F1000FDF75CFD08B1FCF7E0FCE667B463644EB6
:103F200062487836183006F108013060262070604B
:103F3000402081E8A10075613046C6F82480B56153
:103F4000C6E9075AC6E90A953563FDF73FFD08B192
:103F5000FCF7C3FCA66700220121B4632320FEF70F
:103F60002FFC232094E0FFE7524A91427ED14C4936
:103F700008310A6842F480420A60096801F480410D
:103F80000991016841F004010160016801F0040138
:103F90000991016841F0020101600068694600F082
:103FA0000200099006200090CDE901654248CDE964
:103FB0000357FDF74FFECDF800906946CDE9016546
:103FC0003E48CDE90357FDF745FE394E47463C488C
:103FD000D846F03606F1200130602720C6E90105F9
:103FE000C6E9035975613046B561F56181E8A00104
:103FF000F5623563FDF7EAFC08B1FCF76EFC4FF0A3
:10400000070B2B48CDE905B58DF81C50F03005A9FC
:104010004FF0010A8DF81D50CDF820A0FDF7DEFA13
:1040200008B1FCF75AFCE667B463264E244806F153
:1040300008011830306028207060402081E821029B
:1040400006F120007561B561F56180E8A001F562B7
:1040500030463563FDF7BAFC08B1FCF73EFCCDE90C
:1040600005B58DF81C508DF81D5000E012E0154884
:1040700005A9CDF820A0FDF7B1FA08B1FCF72DFC99
:104080000022A66724201146B463FEF799FB242082
:10409000FEF788FB0BB0BDE8F08F00000030014058
:1040A000E0440258000C0258001802581004024064
:1040B0002C06002400380040000802580004025872
:1040C00070000240940700242DE9F84F0446406830
:1040D0004FF4800B1D465845174688464FF004099B
:1040E00001D1A06888B194F88000012817D04FF062
:1040F000010A84F880A0FDF7AFFE94F8811006460F
:10410000002001290DD0022127E084F8819020466B
:10411000009313460A4600F0F5F9BDE8F88F022037
:10412000FBE7B8F1000F17D0B7B184F88190814652
:10413000C4F88400C4F86480A4F86870A4F86A70B5
:10414000E065A4F86000A4F8620020676067A068DA
:10415000B0F5C02F05D009E0012184F880000846A1
:10416000DBE72068016821F4006101602068416894
:104170006FF30F01394341602068016841F001018C
:1041800001606068584504D12068016841F40071FD
:104190000160E0680F282BD948F20807B4F86A00DC
:1041A000002853D02068416939420BD0006B616E02
:1041B0000860606E001D6066B4F86A00401EA4F8D6
:1041C0006A00EBE735B1681CE8D0FDF745FE801BBF
:1041D000A842E3D3204602F037FF84F88090D4F859
:1041E000840040F48070C4F8840084F881A076E0F4
:1041F000072827D863E02068416911F4604F18D080
:104200004169090409D5006B616E0860606E001D8C
:104210006066B4F86A00801E08E0008E616E088057
:10422000606E801C6066B4F86A00401EA4F86A00E4
:1042300008E0002DCED0681C04D0FDF70DFE801BD9
:10424000A842C7D2B4F86A000028D4D13BE0206865
:10425000416911F4604F29D04169090409D5006B07
:10426000616E0860606E001D6066B4F86A00001F31
:1042700019E0416901F4C041B1F5005F09D9008E30
:10428000616E0880606E801C6066B4F86A00801EF3
:1042900009E090F83000616E0870606E401C606646
:1042A000B4F86A00401EA4F86A0008E0002D91D01E
:1042B000681C04D0FDF7D0FD801BA8428AD2B4F858
:1042C0006A000028C3D1204602F0BEFE84F8809028
:1042D00084F881A0D4F8840000283FF421AF0120A5
:1042E0001BE770472DE9F84F044690F880001D4603
:1042F000174601288A460DD04FF0010984F88090B6
:10430000FDF7AAFD94F8811006460020012904D08B
:1043100002211FE00220BDE8F88FBAF1000F18D08B
:10432000BFB1032184F881108046C4F88400C4F82A
:104330005CA0A4F86070A4F862706066A4F86800DD
:10434000A4F86A0060672067A068B0F5C02F05D0A8
:1043500009E0012184F880000846DCE72068016854
:1043600041F400610160206841686FF30F01394337
:1043700041602068016841F0010101606068B0F5AA
:10438000800F04D12068016841F400710160E06889
:104390000F2826D82AE02068416989070BD5E16DEE
:1043A00009680162E06D001DE065B4F86200401E1E
:1043B000A4F8620015E035B1681C12D0FDF74CFD81
:1043C000801BA8420DD3204602F03EFE84F8808078
:1043D000D4F8840040F48070C4F8840084F881909C
:1043E0008EE0B4F862000028D5D16FE0072829D804
:1043F00068E02068416989071BD5B4F8621001297B
:104400000BD9E16B49B1E16D09680162E06D001DF6
:10441000E065B4F86200801E08E0E16D098801845F
:10442000E06D801CE065B4F86200401EA4F86200F4
:1044300008E0002DC7D0681C04D0FDF70DFD801BDF
:10444000A842C0D2B4F862000028D2D13EE0206871
:10445000416989072DD5B4F8621003290CD9E16BA5
:10446000402909D9E16D09680162E06D001DE06530
:10447000B4F86200001F19E0B4F8621001290BD9EA
:10448000E16B49B1E16D09880184E06D801CE06554
:10449000B4F86200801E09E0E16D097880F8201010
:1044A000E06D401CE065B4F86200401EA4F86200B4
:1044B00008E0002D87D0681C04D0FDF7CDFC801BE0
:1044C000A84280D2B4F862000028C0D1002233464E
:1044D00008212046009502F022FE28B1D4F884007D
:1044E00040F02000C4F88400204602F0ADFD84F8BE
:1044F000808084F88190D4F8840000283FF42DAFA8
:10450000012008E72DE9F84F044690F880001F4687
:1045100092460A9D01288B4613D04FF0010984F87A
:104520008090FDF799FC94F8812006460020012A2E
:104530004FF480010ED062688A4209D1A2683AB96C
:1045400002E00220BDE8F88F94F88120042A01D00F
:10455000022136E0BBF1000F32D0BAF1000F2FD0AC
:1045600077B394F88120042A02D0052284F88120B0
:104570008046C4F88400C4F864A0A4F86A70A4F863
:104580006870C4F85CB0A4F86270A4F8607020672A
:104590006067206842686FF30F023A434260206808
:1045A000026842F0010202606068884204D120681B
:1045B000016841F400710160E0680F2840D848E0CC
:1045C000012184F880000846BCE7B4F8620070B1AD
:1045D0002068416989070AD5E16D09680162E06DCB
:1045E000001DE065B4F86200401EA4F86200B4F853
:1045F0006A0080B12068416948F2080211420AD07D
:10460000006B616E0860606E001D6066B4F86A0041
:10461000401EA4F86A00681C12D0FDF71DFC801B28
:10462000A8420DD3204602F00FFD84F88080D4F814
:10463000840040F48070C4F8840084F88190EBE03A
:10464000B4F862000028C0D1B4F86A000028BCD1D8
:10465000C8E0072849D8BDE0B4F86200F0B120688E
:10466000416989071AD5B4F8621001290BD9E16BA9
:1046700049B1E16D09680162E06D001DE065B4F8C3
:104680006200801E08E0E16D09880184E06D801CF5
:10469000E065B4F86200401EA4F86200B4F86A0055
:1046A000E0B12068416911F4604F17D041690904F5
:1046B00009D5006B616E0860606E001D6066B4F81D
:1046C0006A00801E08E0008E616E0880606E801CAB
:1046D0006066B4F86A00401EA4F86A00681C04D042
:1046E000FDF7BAFB801BA8429CD2B4F862000028F8
:1046F000B2D1B4F86A000028AED173E0B4F8620019
:1047000080B32068416989072CD5B4F86210032969
:104710000CD9E16B402909D9E16D09680162E06DAE
:10472000001DE065B4F86200001F19E0B4F86210E3
:1047300001290BD9E16B49B1E16D09880184E06D74
:10474000801CE065B4F86200801E09E0E16D097824
:1047500080F82010E06D401CE065B4F86200401E57
:10476000A4F86200B4F86A0068B32068416911F4E3
:10477000604F28D04169090409D5006B616E08605B
:10478000606E001D6066B4F86A00001F19E04169A0
:1047900001F4C041B1F5005F09D9008E616E088057
:1047A000606E801C6066B4F86A00801E09E090F8B4
:1047B0003000616E0870606E401C6066B4F86A007C
:1047C000401EA4F86A00681C04D0FDF745FB801B5E
:1047D000A84289D2B4F8620000288FD1B4F86A00E8
:1047E00000288BD10022334608212046009502F094
:1047F00096FC28B1D4F8840040F02000C4F884006E
:10480000204602F021FC84F8808084F88190D4F85E
:10481000840000283FF4D8AE012093E6704770472B
:10482000401EB0F1807F10B501D3012010BD4FF0C4
:10483000E02460610F21601703F07FFB0020A0617E
:1048400007202061002010BD7047704730B590F8F8
:104850003C20012A3AD0012280F83C20CA6800247A
:104860008B6822F440721A4D1A434B6822F480621E
:104870001A430B6822F400621A430B6922F4805237
:104880001A434B6922F400521A438B6A22F4804285
:104890001A430B8B22F4702242EA03420368AB42B4
:1048A00002D00C4DAB420CD18D8C22F4700242EA46
:1048B0000552CD6922F08072096A2A4322F0007203
:1048C0000A435A6480F83C40002030BD022030BDCD
:1048D000000001400004014030B590F83C20012A5E
:1048E0001FD0012280F83C2003685A689D680E4C56
:1048F000A34202D00D4CA34203D122F470044A68B3
:10490000224322F070040A68896822435A6025F025
:104910008004214302689160002180F83C10084621
:1049200030BD022030BD0000000001400004014005
:1049300010B5040003D094F83D0010B107E0012049
:1049400010BD002084F83C00204600F00DF8022045
:1049500084F83D002068211D02F014FD012084F838
:104960003D00002010BD000008B500680C498842D9
:1049700008D10C48016841F480710160006800F4BE
:1049800080700BE00849884209D106480830016868
:1049900041F400310160006800F40030009008BD6F
:1049A00000200040E8440258004401400168CA6801
:1049B00042F00102CA600068018841F001010180F3
:1049C000002070472DE9F04104000D4603D094F813
:1049D0003D0018B108E00120BDE8F081002084F816
:1049E0003C00204600F03CF8022084F83D0020689E
:1049F00081681A4A114081602068211D02F0C2FCC2
:104A0000206881688269066A2B68AF6926F0AA0669
:104A10000B4340F203318A43A96842EA0722EF6957
:104A200011434FF6FC429143EA6841EA07212F6A9D
:104A30000A432969090141EA073111436A686D692E
:104A4000836046EA05152A43206881612068026276
:104A5000012084F83D000020BEE70000F8FFFEFFC3
:104A600030B587B0044614216846FBF73EFD206848
:104A700000223C4C02233C490125A04219D13A486E
:104A80001030046844F001040460006800F0010084
:104A90000590086840F0100008600868694600F05A
:104AA000100005904FF4206000903048CDE90132AD
:104AB00034E02D4C0834B0F1804F19D02C4DA84271
:104AC00032D1206840F002002060206800F002002F
:104AD0000590086840F0020008600868694600F028
:104AE00002000590302000902248CDE9013235E0E7
:104AF000206840F001002060206800F0010005906F
:104B0000086840F0010008600868694600F001008C
:104B10000590032000901848CDE90132CDE9032526
:104B2000FDF798F807B030BD144DA842FAD12068BF
:104B300040F004002060206800F004000590086840
:104B400040F0080008600868694600F00800059019
:104B50004FF4405000900A48CDE90132CDE90323DB
:104B6000DEE7000000000140E04402580010025857
:104B700000040040000402580000025800080040F1
:104B8000000C025810B50446006889B1042904D00D
:104B90000122002102F056FC20680122042102F0CB
:104BA00051FC2068018841F001010180002010BD06
:104BB00001220021F3E7704770B5044600680169DF
:104BC0004FF00005C943890715D4C168C943890757
:104BD00011D4E91E016101202077206880698007D7
:104BE000204602D0FFF7E7FF04E000F062F920461C
:104BF00000F092FA257720680169C943490717D464
:104C0000C168C943490713D46FF004010161022050
:104C100020772068806910F4407F204602D0FFF79B
:104C2000CAFF04E000F045F9204600F075FA257748
:104C300020680169C943090716D4C168C943090737
:104C400012D46FF008010161042020772068C06948
:104C50008007204602D0FFF7AEFF04E000F029F9FC
:104C6000204600F059FA257720680169C943C90632
:104C700017D4C168C943C90613D46FF0100101618C
:104C8000082020772068C06910F4407F204602D0B9
:104C9000FFF791FF04E000F00CF9204600F03CFA29
:104CA000257720680169C943C90708D1C168C9438C
:104CB000C90704D1891E0161204600F05BFA206813
:104CC00001696FF08005C943090607D4C168C9436B
:104CD000090603D405612046FFF7B6FD2068016987
:104CE000C943C90507D4C168C943090603D405618E
:104CF0002046FFF7A9FD20680169C943490609D488
:104D0000C168C943490605D46FF0400101612046DE
:104D100000F0F0FB20680169C94389060BD4C16823
:104D2000C943890607D46FF0200101612046BDE820
:104D30007040FFF78ABD70BDF0B587B004461421FE
:104D40006846FBF7D2FB354A022521680024344827
:104D5000914210D1016841F002010160006869468A
:104D600000F002000590D0000090CDE901542D48DC
:104D7000CDE9034514E02C4A2C4E914214D1016830
:104D800041F0010101600068694600F001000590F2
:104D9000802000900920CDE90154CDE90340304640
:104DA000FCF758FF07B0F0BD214B4022994221D1BA
:104DB000016841F010010160016801F010010591E6
:104DC000016841F001010160006804270092694612
:104DD00000F00100CDE901540394CDE904701548B9
:104DE000FCF738FF00976946CDE90154CDE9034748
:104DF0003046D5E7104B9942D4D1016841F02001EB
:104E0000016000686946009200F0200005900120D2
:104E1000CDE90154CDE903400848C1E7001800403E
:104E2000E0440258000402580020004000000258EC
:104E30000040014000100258004401400014025894
:104E400070B5044690F83C0001280ED0012584F886
:104E50003C50022084F83D000C2A19D007DC5AB1DE
:104E6000042A0DD0082A1ED10EE0022070BD102A9F
:104E700012D0142A17D113E0206802F0EFFA12E0E2
:104E8000206802F039FB0EE0206802F07DFB0AE0AA
:104E9000206802F0BDFB06E0206802F0EFFB02E0B4
:104EA000206802F021FC84F83D50002084F83C008A
:104EB00070BD704710B5040003D094F83D0010B1E8
:104EC00007E0012010BD002084F83C00204600F0DF
:104ED0000DF8022084F83D002068211D02F052FAEE
:104EE000012084F83D00002010BD000008B50068D6
:104EF0000B49884212D10B48016841F0080101605A
:104F000000680022022100F0080000903220FDF726
:104F100057FCBDE808403220FDF744BC08BD000046
:104F2000000C0040E844025870B504000D4603D060
:104F300094F83D0010B107E0012070BD002084F816
:104F40003C00204600F015F8022084F83D0020685F
:104F5000211D02F017FA2068018821F00801018064
:104F60002068018829430180012084F83D00002049
:104F700070BD704770B5044690F83C000D4601289E
:104F80000ED0012684F83C60022084F83D000C2AF3
:104F900045D007DC5AB1042A1BD0082A78D12CE06E
:104FA000022070BD102A4ED0142A71D15DE0206815
:104FB00002F054FA2068816941F00801816120689B
:104FC000816921F004018161206881692A691143A6
:104FD00011E0206802F090FA2068816941F40061D4
:104FE00081612068816921F4806181612068816923
:104FF0002A6941EA022181614AE0206802F0C4FA8C
:105000002068C16941F00801C1612068C16921F0CF
:105010000401C1612068C1692A69114311E0206857
:1050200002F0F6FA2068C16941F40061C1612068AC
:10503000C16921F48061C1612068C1692A6941EABE
:105040000221C16124E0206802F018FB2068416D54
:1050500041F0080141652068416D21F0040141657E
:105060002068416D2A69114311E0206802F03CFB81
:105070002068416D41F4006141652068416D21F473
:10508000806141652068416D2A6941EA02214165DC
:1050900084F83D60002084F83C0070BD10B5040029
:1050A00003D094F83D0010B107E0012010BD0020AE
:1050B00084F83C00204600F00DF8022084F83D0002
:1050C0002068211D02F05EF9012084F83D000020D7
:1050D00010BD000008B500680C49884208D10C4892
:1050E000016841F040010160006800F040000BE001
:1050F0000849884209D106480830016841F48031E6
:105100000160006800F48030009008BD0018004085
:10511000E8440258004001407047000010B50122E9
:105120000446006802F08EF90D48216881420BD0D8
:105130000C48814208D00C48814205D00B4881427E
:1051400002D00B48814203D1486C40F400404864CF
:105150002068018841F001010180002010BD00009D
:1051600000000140000401400040014000440140B3
:10517000004801402DE9F05FCF4900680968884286
:105180007DD1CE480168486ADFF834B300B24442AA
:1051900058460025CBF840404D62CA4909684A6A22
:1051A00012B25342CBF844304D62C74909684A6A8B
:1051B00012B25242CBF848204D62C4490E68716A5F
:1051C00009B24942C16475624465C3654266C166FD
:1051D000066D361B4667846DE71A8767036E0BF111
:1051E00080049B1AC367826E521A22606168314440
:1051F00061608846A1683944A1608946E168194424
:10520000E1608A46216901EB020CC4F810C0DBF8AA
:105210007000804500DD60604142D4F8048088451C
:1052200000DA6160814500DDA060D4F8088088451F
:1052300000DAA160824500DDE060D4F80C8088458A
:1052400000DAE1608445D84601DC604600E0206178
:10525000884200DA21616E2046436068C0EB00108E
:1052600006EB4001A1616E206E264743A0687343A0
:10527000C0EB001007EB4000E061E66800E0CFE023
:10528000C6EB061603EB460323626E2672432669BD
:10529000C6EB061602EB460241F63B76B14262626D
:1052A00000DB31468A4FA161B94200DC3946A16179
:1052B000B04200DB3046E061B84200DC3846E061D5
:1052C000B34200DB33462362BB4200DC3B46236231
:1052D000B24200DB32466262BA4200DC3A467D48A6
:1052E0000029626201DA002200E001220421FCF7B9
:1052F000AEFDA069002800DA40420326032800DC46
:10530000A661A069002800DA404273490860E1699B
:105310007248002901DA002200E001222021FCF776
:1053200096FDE069002800DA4042032800DCE661CF
:10533000E069002800DA4042694908604914206A9F
:10534000684F002801DA002200E001223846FCF70D
:105350007EFD206A002800DA4042032800DC266235
:10536000206A002800DA40425D4980310860C91493
:10537000626A5D48002A01DA002200E00122FCF79F
:1053800066FD606A002800DA4042032800DC66629D
:10539000606A002800DA40424F49803108604FF4CB
:1053A0007A74B8F82600401C80B2A8F82600A04203
:1053B00005D189143846FCF746FDA8F826504B491C
:1053C000B8F82A0009684863494801F063FC00BB4B
:1053D000474802F065FF98F80700012822D098F8A6
:1053E0000100012853D0D8F83800401CC8F8380014
:1053F000FA280ED3012088F80100A8F81650A8F862
:105400001450A8F8185088F80E50C8F83C5002F014
:1054100059FEB8F82800A04202D2401CA8F8280083
:10542000BDE8F09F02F04EFEB8F82200401CA8F83C
:105430002200C8F8385088F8015098F8020098F80F
:105440000310884201D1410601D5052104E098F9F5
:105450000410002902DB491E88F8041088F80300B4
:1054600098F9040000280DDD1548B83002F006FF59
:105470001348B83001F098FCB8F82400401CA8F894
:105480002400C6E788F8025088F80350C1E7D8F82E
:105490003C00401CC8F83C000828BAD3A8F81650B5
:1054A000A8F81450A8F8185088F80E5002F00AFE18
:1054B000C8F83C50ADE700000C0900240C0800249B
:1054C000080000244C0800248C080024CC08002488
:1054D000C5E0FFFF001802589C74014000140258F8
:1054E0009C75014000080258000002588C090024F5
:1054F00074010024704770477047000070B502685F
:105500000446D0691368916810F00F0F64D0594DAC
:1055100003F490760D40354376D0C50707D0DD05FE
:1055200005D501251562E26F42F00102E2678207AC
:1055300008D5CA0706D0256802222A62E26F42F027
:105540000402E267420708D5CA0706D0256804228C
:105550002A62E26F42F00202E26702070ED503F010
:10556000200201F080552A4352EAC17206D0256814
:1055700008222A62E26F42F00802E267E26F002A24
:105580003AD0800608D503F0200001F0805108438E
:1055900002D0204602F0CEF9E06F000703D4206865
:1055A000806840062AD5204602F0B6F92068816856
:1055B00049061ED5816821F040018160606FC0B14D
:1055C0002D490165606FFCF757F8002814D0606F13
:1055D000016DBDE870400847850615D503F020052C
:1055E00001F0805635430FD02046BDE8704002F0F0
:1055F000A1B92046FFF780FF70BD05E02046FFF708
:105600007BFF0020E067F7E7C6024FF020050CD5CE
:105610004E020AD5E803106284F8795084F87A5073
:105620002046BDE87040FFF766BF06060AD503F0C6
:10563000800601F400010E4304D02046BDE870400E
:1056400002F008BC41060BD5590609D51168204661
:1056500021F04001116084F8795000F0A4F8CBE704
:105660000002C9D55800C7D5106820F080401060EE
:10567000C2E70000010000100579000810B5040021
:1056800003D094F8790010B107E0012010BD00208C
:1056900084F87800204600F027F8242084F8790068
:1056A0002068016821F001010160204602F07EF9C6
:1056B0000128EBD0606B10B1204602F091F8206811
:1056C000416821F4904141602068816821F02A01FD
:1056D00081602068016841F0010101602046BDE859
:1056E000104002F0E1B8000070B586B00646142103
:1056F0006846FAF7FAFE26493068884245D12548BF
:10570000016841F480210160006800F48020059068
:1057100020480838016841F0080101600068002550
:10572000694600F0080005904FF440700090022098
:10573000CDE901050720CDE903501748FCF78AFAA7
:10574000174C164820602E2060604020C4E90205F6
:105750000001C4E90405C001A561C4E907500420A3
:1057600060620320C4E90A0520462563FCF72EF990
:1057700008B1FBF7B2F80022346727201146A66370
:10578000FDF71EF82720FDF70DF806B070BD0000EC
:1057900000480040E8440258000C025858000240FB
:1057A000CC0A002470477047062911D2DFE801F0C7
:1057B0000911171D23030068D0F8841341F001017B
:1057C00004E00068D0F8841341F00201C0F88413AB
:1057D00070470068D0F8841341F00401F6E70068D0
:1057E000D0F8841341F00801F0E70068D0F8841382
:1057F00041F01001EAE70068D0F8841341F020017D
:10580000E4E7F0B50568E42606EBC1174FF0FF3476
:1058100055F807C0B82606EBC116AE59202A25D088
:105820000CDC042A15D004DC012A12D0022A29D16A
:105830001CE0082A1AD0102A24D10AE0402A08D0F5
:10584000802A13D0B2F5807F03D0B2F5007F19D142
:105850000CE0BC245A6804EBC1142A510468C0252A
:1058600005EBC1119A68625000240BE0C4245A6809
:1058700004EBC1142A510468C82505EBC1119A68CC
:10588000625010241A68FE215D69A1402CEA010CC7
:10589000D968A24042EA0C02A14011431A69944619
:1058A000A2400A439969A5401543A1402943BCF190
:1058B000080F06D1B20504D4B20102D4DA69A240BD
:1058C00011430068C151F0BD2DE9F84F03688024F1
:1058D00004EBC1155C5924F070445C5107687E5993
:1058E000E82303EBC113009357F803A0E42303EB71
:1058F000C1139E46FC58D42303EBC1139B46FB58AF
:10590000D7F8A03326F0200C566946EA0C0626F498
:10591000006C966946EA0C06D2F81CC026F4806634
:105920004CEA060C166A2CF0C06C46EA0C0626F00F
:10593000006C566A46EA0C0626F0704C966A46EAF7
:105940000C06D2F830C026F40036BCF1005F01D15D
:1059500046F4003626F0400C566B46EA0C0C2CF44C
:105960008028D2F850C04CEA080C2CF0FC78D2F811
:1059700048C04CEA080992F838C02AF01F080CF019
:105980001F0C4CEA080C2CF00048D2F83CC04CEA42
:10599000080C26B924F48078146C44EA0804D2F880
:1059A0004480B8F5606F02D0B8F5F05F01D1402EA9
:1059B00003D124F4F05648EA0604D66C052921D216
:1059C000DFE801F003090F151B00D26A23F4003150
:1059D00041EA420316E0D26A23F4802141EA8203BD
:1059E00010E0D26A23F4002141EAC2030AE0D26A3D
:1059F00023F4801141EA021304E0D26A23F4001177
:105A000041EA421347F805900268009942F801C044
:105A1000026842F80E40026842F80B600068C0F865
:105A2000A033BDE8F88FFEE701688A69D243920788
:105A300001D400228A6200688169C943C90703D082
:105A4000816941F001018161704700002DE9F04159
:105A50000446006816460D468069C043C0062FD430
:105A600020274FF0000820688069C043800610D5C9
:105A7000681CF8D025B1FCF7EFF9801BA842F2D9D9
:105A800084F8417084F84280032084F84080BDE8A7
:105A9000F08121681020C8612068C7612046FFF7A7
:105AA000C3FF20684168074A1140416004206064D8
:105AB00084F8417084F84280012084F84080E6E751
:105AC0000020E4E700E800FE2DE9F843164604460E
:105AD0001848DAB2DDE9089798460090002320467E
