:020000040800F2
:10000000B011002479030008DF7A0008676900084E
:10001000DD7A0008210800087D9400080000000037
:1000200000000000000000000000000061810008E6
:10003000D10B000800000000917D00080982000833
:100040009303000893030008930300089303000838
:100050009303000893030008930300089303000828
:100060009303000893030008930300082508000881
:10007000310800083D080008490800085508000834
:10008000610800089303000815080008930300089E
:1000900093030008930300089303000893030008E8
:1000A00093030008930300089303000893030008D8
:1000B00093030008930300089303000893030008C8
:1000C000930300089303000893030008318000089D
:1000D0003D80000893030008930300087194000812
:1000E0009303000893030008000000009303000836
:1000F0009303000893030008930300089303000888
:1001000093030008930300089183000893030008F9
:100110009303000893030008930300089303000867
:100120006D0800087908000893030008930300088D
:100130009303000893030008930300089303000847
:1001400000000000000000000000000000000000AF
:100150009303000893030008930300089303000827
:100160009303000893030008930300089303000817
:1001700093030008930300089303000800000000A5
:1001800093030008930300089303000893030008F7
:1001900093030008930300089303000893030008E7
:1001A00093030008930300089303000893030008D7
:1001B00093030008930300089303000893030008C7
:1001C00093030008930300089303000893030008B7
:1001D00093030008930300089303000893030008A7
:1001E0009303000893030008930300089303000897
:1001F0009303000893030008930300089303000887
:100200009303000893030008930300089303000876
:100210009303000893030008930300089303000866
:1002200093030008930300089303000800000000F4
:1002300093030008930300080000000093030008E4
:100240009303000893030008930300089303000836
:100250009303000893030008930300089303000826
:100260009303000893030008930300089303000816
:1002700093030008930300089303000800000000A4
:100280009303000800000000930300080000000032
:10029000000000009303000800F002F800F05CF892
:1002A0000AA090E8000C82448344AAF10107DA45D1
:1002B00001D100F051F8AFF2090EBAE80F0013F0C7
:1002C000010F18BFFB1A43F00103184708970000FD
:1002D000289700000A444FF0000C10F8013B13F07F
:1002E000070408BF10F8014B1D1108BF10F8015B8F
:1002F000641E05D010F8016B641E01F8016BF9D182
:1003000013F0080F1EBF10F8014BAD1C0C1B09D1D8
:100310006D1E58BF01F801CBFAD505E014F8016B4A
:1003200001F8016B6D1EF9D59142D6D370470000DC
:100330000023002400250026103A28BF78C1FBD8EE
:10034000520728BF30C148BF0B6070471FB509F086
:100350002BFB1FBD10B510BD00F004F91146FFF7CF
:10036000F5FF09F0DFF800F022F903B4FFF7F2FF20
:1003700003BC00F025F90000094880470948004700
:10038000FEE7FEE7FEE7FEE7FEE7FEE7FEE7FEE745
:10039000FEE7FEE704480549054A064B70470000A2
:1003A0000183000899020008B00B0024B01100245A
:1003B000B00D0024B00D002453EA020C00F0698057
:1003C0002DE9F04B4FF00006002B1FBFB3FA83F569
:1003D00003FA05F424FA05F65E4012BF1643B2FA9A
:1003E00082F502FA05F4C5F120051EBF22FA05FCCC
:1003F00044EA0C04203556EA044C4FEA144418BF72
:10040000641C4FF000084FF00009904271EB030CA0
:1004100039D3002919BFB1FA81F701FA07F6B0FA0A
:1004200080F700FA07F6C7F120071EBF20FA07FC85
:1004300046EA0C062037B6FBF4FCA7EB0507103F95
:1004400007F01F0BCBF120060CFA0BFB2CFA06F67B
:1004500044BFB3460026202FA4BF5E464FF0000BDA
:100460005BEA060C08BF4FF0010B19EB0B09ABFB65
:10047000027C48EB0608C01B06FB02CC0BFB03CC3E
:1004800071EB0C01C1E70B46024641464846BDE808
:10049000F08B13B54FF000004FF00001AFF3008078
:1004A000BDE81C4070474FF000020429C0F01280E4
:1004B00010F0030C00F01B80CCF1040CBCF1020F17
:1004C00018BF00F8012BA8BF20F8022BA1EB0C01EC
:1004D00000F00DB85FEAC17C24BF00F8012B00F8E2
:1004E000012B48BF00F8012B70474FF0000200B508
:1004F000134694469646203922BFA0E80C50A0E847
:100500000C50B1F12001BFF4F7AF090728BFA0E8F4
:100510000C5048BF0CC05DF804EB890028BF40F8C0
:10052000042B08BF704748BF20F8022B11F0804F02
:1005300018BF00F8012B704770477047704710B51F
:1005400000F008F8006810BD10B5044600F002F88D
:10055000046010BD00487047500B002400487047ED
:10056000500B00247546FFF7F9FFAE4605006946BB
:10057000534620F00700854618B020B5FFF70AFF64
:10058000BDE820404FF000064FF000074FF0000894
:100590004FF0000B21F00701AC46ACE8C009ACE815
:1005A000C009ACE8C009ACE8C0098D46704710B579
:1005B0000446AFF300802046BDE81040FFF7D5BEEB
:1005C00001491820ABBEFEE726000200704700007C
:1005D00070B53C4905460068884202D03A4A9042CC
:1005E00002D1D1F8080302E03848D0F8080310F42B
:1005F000403F11D003F062FE04466868B0F5803FCA
:1006000006D0B0F5003F03D0B0F5403F26D101E061
:10061000000C17E0A40821E04FF4002003F00CF8D0
:10062000044668688103890B18D181140C2915D2FE
:10063000DFE801F0140606060606060B0D0F11137F
:10064000800C4000B4FBF0F408E0240906E06409E3
:1006500004E0A40902E0E40900E0240A02F0B8F88A
:1006600041F20301884208D8194884422868816809
:1006700016D821F48071816070BD1648844204D878
:100680002868816821F44071F5E712481149C04398
:10069000491E2044884206D82868816821F44071A8
:1006A00041F48071E7E70C480C49204488422868EF
:1006B000816804D821F4407141F40071DBE741F412
:1006C0004071D8E70020024000210240006002583B
:1006D000002D3101105E5F00DF4341FF1FBCBE00F3
:1006E00010B5846B616D11F0500F06D0616DC906B5
:1006F00025D5204600F0DEFC10BD606D40F4007092
:10070000606520680168090707D506F0DDFB90B138
:100710002068C068800403D50DE0C06880070AD156
:10072000606D20F480706065606DC00403D4606DFE
:1007300040F001006065204600F0BAFC10BDE16C9D
:10074000C96CBDE81040084710B5806B416D41F0A1
:1007500040014165816D41F00401816500F0AAFC12
:1007600010BD10B5806B00F0A4FC10BD2DE9F04168
:100770000446006806F09CFB08BB20688168204A9C
:1007800011422AD18168D6433140491C816002F070
:1007900025F81C4B054620681B4F984201D0B842F3
:1007A00001D11A4900E01A498968B84201F01F02D4
:1007B00001D1194600E00146814219D0C2B11CE0C6
:1007C00006F076FB20B9206881683140491C8160C1
:1007D00002F004F8401B02280AD9606D40F01000B6
:1007E0006065A06D40F00100A0650120BDE8F081CA
:1007F00020680168C943C907E2D10020F6E700007C
:100800003F000080002002400021024000230240FF
:1008100000630258014800F04FBC00009001002422
:10082000FEE70000014801F0D3B800002C040024CA
:10083000014801F0CDB80000A4040024014801F0F3
:10084000C7B80000F4010024014801F0C1B800005D
:10085000D80A0024014801F0BBB800001C0700249E
:10086000014801F0B5B8000094070024014801F0E8
:10087000AFB800002C060024014801F0A9B8000020
:10088000A406002410B52A4A016891423AD0284AA9
:100890001832914236D0264A3032914232D0244A20
:1008A000483291422ED0224A603291422AD0204AC8
:1008B0007832914226D01E4A9032914222D01C4A70
:1008C000A83291421ED01B4A91421BD0194A1832BD
:1008D000914217D0174A3032914213D0154A48320C
:1008E00091420FD0134A603291420BD0114A7832B4
:1008F000914207D00F4A9032914203D00D4AA8325C
:10090000914211D1CAB20C4C1823103AB2FBF3F247
:100910006FF3090102F00703032AE35CC36500D902
:10092000091D8165084610BD21F0FF01F9E70000AF
:100930001000024010040240BC99000810B5016884
:100940000123224CCAB2A1421BD0204C1434A14234
:1009500017D01E4C2834A14213D01C4C3C34A14269
:100960000FD01A4C5034A1420BD0184C6434A14221
:1009700007D0164C7834A14203D0144C8C34A142D9
:100980000FD11421083AB2FBF1F1114A02EB8102B6
:1009900002660F4A01F01F0180328B40C0E9192323
:1009A00010BD1824103AB2FBF4F20A4C2144A829D5
:1009B00000D80832084901EB8201016606498031FE
:1009C000416602F01F018B40836610BD0854025837
:1009D00000580258F0FBFDBF0008024010B5027934
:1009E000531E072B30D8194C0168A1421BD0174C5D
:1009F0001434A14217D0154C2834A14213D0134C03
:100A00003C34A1420FD0114C5034A1420BD00F4CBA
:100A10006434A14207D00D4C7834A14203D00B4C72
:100A20008C34A14206D10A4901EB8201C166084912
:100A3000443105E0074901EB8201C16605494431B3
:100A4000016701219940416710BD00000854025818
:100A5000FC580258FC080240014610B500208B6982
:100A60004FF0C0748A6A53B1B3F5005F15D072B10C
:100A7000012A0CD0022A0AD0032A09D104E01AB1B3
:100A8000012A06D0022A03D1C96AC90100D5012072
:100A900010BDC96AA142FAD010BD002AF7D0012AC0
:100AA000F2D0022AF3D0032AF3D010BD70B5D0E9FA
:100AB0001964856D7460C46E14B1D0E91C4666601B
:100AC000404E0468B4423AD03E4E1836B44236D056
:100AD0003C4E3036B44232D03A4E4836B4422ED034
:100AE000384E6036B4422AD0364E7836B44226D0DC
:100AF000344E9036B44222D0324EA836B4421ED084
:100B0000314EB4421BD0304E1836B44217D02E4E60
:100B10003036B44213D02C4E4836B4420FD02A4E51
:100B20006036B4420BD0284E7836B44207D0264EF9
:100B30009036B44203D0244EA836B44214D190F873
:100B40005C4004F01F063F24B440AC600468256894
:100B500025F4802525602DE09A600068C16070BD95
:100B600099600068C26070BD184EB4421BD0174E29
:100B70001436B44217D0154E2836B44213D0134E53
:100B80003C36B4420FD0114E5036B4420BD00F4E0B
:100B90006436B44207D00D4E7836B44203D00B4EC3
:100BA0008C36B442DFD190F85C4004F01F0601247B
:100BB000B4406C60046863608368402B0368CFD1E5
:100BC000CAE7000010000240100402400854025816
:100BD0007047704770477047704770477047000014
:100BE0002DE9F047044690F8500000270D460128F3
:100BF0009AB014D0012084F85000DFF8E8804FF05C
:100C00000009216841450ED1374E0096304606F066
:100C100057F98246206806F053F960B10EE00220D1
:100C20001AB0BDE8F087616D41F0200161650120D7
:100C300084F85090F4E7BAF1000F08D0606D40F0EE
:100C400020006065012784F850903846E8E7206866
:100C50004346984201D0B04201D1244800E02448E4
:100C600040F61F722968DFF88CC00029816821F4E2
:100C700040411ED0D5F8048041EA08018160216816
:100C8000994201D0B14207D19968B368C1F300011C
:100C9000C3F30003194303E0DCF80810C1F30001BB
:100CA0000029D0D1AB68296819438368934319435D
:100CB00015E081602168994201D0B14207D199685D
:100CC000B368C1F30001C3F30003194303E0DCF888
:100CD0000810C1F300010029B5D1816891438160FA
:100CE000B1E7000000200240002102400023024042
:100CF00000630258006002582DE9F84F00270446AF
:100D0000DFF874930D460097BB4690F85000DB4E19
:100D1000DFF86CA3012808D04FF0010884F8508058
:100D2000206806F0C9F818B156E10220BDE8F88F36
:100D30002168CA692868030329D090FAA0F0B0FAA4
:100D400080F000F01F0308FA03F00243CA61D5E9FE
:100D5000002120680C2303EA91131844036B01F06F
:100D60001F014FF01F0CC2F384620CFA01FC8A4091
:100D700023EA0C0313430363206806F09DF80090F8
:100D8000206806F091F80099014303D06DE0C0F3AC
:100D90008460D6E7AA682968206806F09DF8B948FB
:100DA0000168B8EB117F06D168692168C968C1F391
:100DB0008201490008E02168C868C0066869F5D565
:100DC000C96801F0100149088840296904291CD02C
:100DD00023682A6803EB81010B6E02F0F84202439C
:100DE00003F0004313430B66697E226828690129DA
:100DF00008D0002102EB8000026E22F000420A437C
:100E0000026632E04FF00041F4E72068016E2A7874
:100E100001F0F841B1EB826F03D1016E21F0004186
:100E200001662068416E2A7801F0F841B1EB826FCB
:100E300003D1416E21F0004141662068816E2A781D
:100E400001F0F841B1EB826F03D1816E21F00041D6
:100E500081662068C16E2A7801F0F841B1EB826F9B
:100E600003D1C16E21F00041C166206806F020F870
:100E7000002873D121682A7B286851F8C03FC0F34D
:100E8000130C23EA0C0302F0180C7F4A22FA0CF22E
:100E9000024013430B60E968494575D12868010396
:100EA0001AD090FAA0F1B1FA81F1491C01F01F01AA
:100EB00009294FEA003130D8002910D090FAA0F16A
:100EC000B1FA81F101F1010101F01F0108FA01F20B
:100ED00008D1C0F3846109E0C0F38461E5E7C0F3A1
:100EE0008461EFE790FAA0F1B1FA81F101F101011B
:100EF00001F01F0142EA816102D1C0F3846003E086
:100F000090FAA0F0B0FA80F000F1010000F01F00AC
:100F100000EB400041EA005132E000290DD090FA88
:100F2000A0F1B1FA81F101F1010101F01F0108FA0C
:100F300001F205D1C0F3846106E0C0F38461F2E7F9
:100F400090FAA0F1B1FA81F101F1010101F01F0164
:100F500042EA816103D1C0F3846004E041E090FA89
:100F6000A0F0B0FA80F0494A00F1010000F01F0043
:100F700000EB400002EB005041EA000141F000713B
:100F8000AA68206805F0A8FF2A68002A29DA404BE1
:100F90002068404DDFF80091984201D0B04201D165
:100FA000294600E049468968984201F0E07101D085
:100FB000B0420AD1D3F808C0D6F80880CCF3000CB0
:100FC000C8F300084CEA080C03E0DAF808C0CCF3D8
:100FD000000CBCF1000F08D0606D40F0200060658F
:100FE000012784F850B03846A0E6DFF8B0C062456B
:100FF0001CD15FEA012C19D45045F2D1984202D09D
:10100000B04200D04D4641F40000A96821F0E071E3
:101010000143A960224823490068B0FBF1F0400079
:1010200000E0401E00900028FBD1DAE7DFF878C02E
:1010300062450CD15FEAC11C09D45045D1D1984218
:1010400002D0B04200D04D4641F080700EE0DFF893
:101050005CC06245C5D14A02C3D45045C1D1984253
:1010600002D0B04200D04D4641F48000A96821F082
:10107000E0710143A960B4E70000FF47002102408E
:10108000006002580010005CFFFF0F00000020FE0F
:10109000002002400023024000630258000084CB7D
:1010A0002C010024400D0300000052C70000B8CFFF
:1010B00070477047704700002DE9F05F04460068F4
:1010C00006684568DFF87082DFF870B2DFF870926A
:1010D000404501D0484501D1584600E09948806814
:1010E00000F01F07B0070ED5A8070CD5606DC0062D
:1010F00003D4606D40F4006060652046FFF76AFD30
:10110000216802200860700701D5680703D4300702
:1011100037D5280735D5606DC00603D4606D40F41F
:1011200000706065206805F0CFFE20B32068484558
:1011300001D1414600E00146814208D03FB1052F70
:1011400005D0092F03D0484503D1414602E0C168CC
:1011500001E00146C96889040DD4016809070AD570
:1011600005F0AAFE58B3606D40F010006065A06DF8
:1011700040F00100A0652046FFF79AFF21680C208F
:101180000860B00601D5A80603D4700658D56806D5
:1011900056D5606DC00603D4606D40F400506065A4
:1011A0002068C16C11F4C07F1AD000218A4605F076
:1011B0008BFE02462068484514D1414613E0206862
:1011C000416821F00C014160606D20F48070606521
:1011D000606DC004CFD4606D40F001006065CAE767
:1011E0000121E3E70146814208D03FB1062F05D037
:1011F000072F03D0484503D1414602E0C16801E012
:101200000146C968BAF1000F04D18B0112D48AB12A
:101210008A040FD4026852060CD589020AD405F05C
:1012200043FEE8B3606D40F010006065A06D40F0D3
:101230000100A0652046FFF7CEFC21686020086011
:1012400030060BD5280609D5606D40F48030606506
:10125000204600F087F9216880200860F0050CD551
:10126000E8050AD5606D40F4003060652046FFF760
:10127000B4FC21684FF480700860B0050CD5A80557
:101280000AD5606D40F4802060652046FFF7A6FC1B
:1012900021684FF400700860F00631D5E80600E0E0
:1012A0000AE02DD5206BE8B12068EFB3404501D0AE
:1012B000484512D1584611E02068416821F060018C
:1012C0004160606D20F480506065606DC005B1D4F0
:1012D000606D40F001006065ACE71A48806800F47A
:1012E000404050B1606D40F480606065A06D40F09A
:1012F0000200A0652046FFF7DDFE2168102008608F
:10130000700517D5680515D5606D40F4804060659F
:10131000A06D40F00800A06521684FF4806008606F
:101320002046BDE8F05F00E001E0FFF755BCC06873
:101330008007D6E7BDE8F09F00200240002302406E
:101340000021024000630258F8B54FF00005040088
:101350002E46009502D0606D10B107E00120F8BD67
:10136000204600F001F9A66584F850602068816885
:10137000C1F3407119B181686E4A114081602068E3
:101380008168C1F3007179B981686B4A114041F0FD
:101390008051816069486A490068B0FBF1F000E063
:1013A000401E00900028FBD120688168C1F30071C5
:1013B00041B9616D41F010016165A16D41F001011C
:1013C000A165012505F078FD616DC90600D430B135
:1013D000606D40F01000606501252846F8BD606D25
:1013E00020F4807040F002006065206805F060FD28
:1013F00000BB544A2068544B904201D0984207D118
:1014000091689E68C1F30001C6F30006314303E012
:101410004E498968C1F3000161B9904201D09842F8
:1014200001D14B4800E04B486168826822F47C128D
:101430000A43826001F0CCF941F20301884202D9EB
:10144000A06810280CD0A168206B227F0843617D22
:10145000490341EA02410843D1B201290CD010E00E
:10146000617D227F206B490340F0100041EA024178
:10147000084340F00C00EFE7218C374A02EB414172
:101480000843616A29B1A26A01F47871014342EA12
:1014900001002168CA68314B1A400243CA602068C3
:1014A00005F00AFD0646206805F0FEFC06431DD146
:1014B000217DE06A40EA81312068C26844F203037A
:1014C0009A430A43C26094F83800012816D0206875
:1014D000016921F00101016120680169626B21F05D
:1014E0007041114301612046FFF772F8E06801285E
:1014F0002068016B21F00F0110D012E0D4E9101028
:10150000A28F01230143A06C03EB0242104301436D
:1015100020680269124B1A401143DCE7A269521E8F
:1015200011430163606D20F0020040F0010060652E
:1015300053E70000C0FFFF5FC0FFFF7F2C010024C6
:10154000400D0300002002400021024000600258CC
:1015500000230240006302580000FEFF03C0F0FFBA
:101560001EF800FC70470000F0B587B00646142155
:101570006846FEF7BAFF2A49306888424DD12948AB
:10158000016841F0200101600068264900F0200058
:1015900005900831086840F004000860086800F011
:1015A00004000590086840F02000086008680324E3
:1015B0000025694600F02000059010208DE83100DC
:1015C000194800F0FFFF4FF400670097174869467D
:1015D000CDE9014500F0F6FF164C154820600920C2
:1015E000C4E901057810C4E90350C000C4E90570DE
:1015F0004011E0610002C4E90805204600F066FDE4
:1016000008B1FFF7E6FA0022F46412201146A6633F
:1016100001F0B6FD122001F0A5FD07B0F0BD0000FD
:1016200000200240D8440258000802580014025812
:1016300040000240F40100242DE9F047344F0446F5
:1016400000689146DFF8CC808A46B84201D0404518
:1016500001D1314900E03149896801F01F0505F0E9
:101660002BFC002851D194F8500001284DD00120C6
:1016700084F85000002625B1052D02D0092D00D098
:1016800003E02046FFF772F818B184F85060BDE817
:10169000F087606D40F60161884340F480706065BA
:1016A0002068404500D00746874200D01DB9606DD4
:1016B00020F480106065606DC00404D5A06D20F03A
:1016C0000600A06500E0A665E16C1548C863E16C02
:1016D00014480864E16C1448C8641C202168086040
:1016E00084F850602068416841F010014160216831
:1016F0004B46E06C5246403100F048FE21688A6853
:101700000A4B1A40121D8A60C1E70220BFE70000A1
:1017100000200240002102400023024000630258E2
:10172000E10600086307000849070008C0FFFF7FC3
:1017300030B50C7A00231A46012C32D1304B0268A6
:101740009A422CD02E4B18339A4228D02C4B30334F
:101750009A4224D02A4B48339A4220D0284B6033F7
:101760009A421CD0264B78339A4218D0244B90339F
:101770009A4214D0224BA8339A4210D0214B9A425D
:101780000DD0204B18339A4209D01E4B30339A4269
:1017900005D01C4B48339A4201D01A4B6033D1E933
:1017A000003290F83540012C04D04FF400614165BF
:1017B000012030BD90F83440012C1FD0012480F866
:1017C000344050F8604F256825F4813525608C89B8
:1017D0000D4D05EBC44444EA036313430A7A497A86
:1017E00043EA024242EA412250F82C190B68DBB26C
:1017F0001A430A6000210170084630BD022030BD46
:1018000010000240100402400000F8FF2DE9F05FD4
:1018100028B190F83510022904D0802141650120BB
:10182000BDE8F09F684C684D674E1834664F303500
:10183000664B4836644A6037DFF88C91A833DFF88E
:1018400088A1DFF884B109F17809DFF880E10AF1B5
:10185000900A01680BF1A80BDFF870810EF1780E89
:10186000914232D0A14230D0A9422ED0B1422CD0E8
:10187000B9422AD0494528D0514526D0594524D0CF
:10188000C446614521D0DFF844C10CF1180C614514
:101890001BD0DFF838C10CF1300C614515D0DFF8F2
:1018A0002CC10CF1480C61450FD0DFF820C10CF1C0
:1018B000600C614509D0714507D0DFF810C10CF10B
:1018C000900C614501D099422ED14FF0040C80F864
:1018D00035C0914223D0A14221D0A9421FD0B142AC
:1018E0001DD0B9421BD0494519D0514517D0594593
:1018F00015D0414513D03548183081420FD03348B8
:10190000303081420BD031484830814207D02F48D7
:101910006030814203D0714501D02C489030086876
:1019200020F0010008604DE0D1F8008028F00E089A
:10193000C1F80080016891421ED0A1421CD0A9428A
:101940001AD0B14218D0B94216D0494514D05145E9
:1019500012D0594510D01D4A91420DD01B4A183261
:10196000914209D0194A3032914205D0174A483283
:10197000914201D0154A60320A6822F001020A60E1
:10198000016E0A6822F480720A6090F85C20816D12
:1019900002F01F03012202FA03F34B60D0E919138E
:1019A0004B60C16E31B10B6823F480730B60D0E9DA
:1019B0001C134B60002180F8341080F83520016D35
:1019C00001B1884700202BE71000024010040240BC
:1019D0002DE9FC5F0446002000904FF41651F948B1
:1019E0000068B0FBF1F00190A56D2E682A68F64FF3
:1019F000DFF8D483DFF8D0A3DFF8CCB308F1180800
:101A000020680AF1300ADFF8C4930BF1480BB842A2
:101A100038D04146884235D0504533D0584531D032
:101A2000E949603188422DD0E7497831884229D090
:101A3000E5499031884225D0E349A831884221D038
:101A400048451FD0E149183188421BD0DF49303169
:101A5000884217D0DD494831884213D0DFF86CE363
:101A60000EF1600E70450DD0D84B7833984209D0F6
:101A7000DFF858C30CF1900C604503D0D349A8316E
:101A800088427DD194F85C10082301F01F0103FA0D
:101A900001F232424CD0B84233D0404531D05045AB
:101AA0002FD058452DD0C8496031884229D0C64929
:101AB0007831884225D0C4499031884221D0C2492A
:101AC000A83188421DD048451BD0C04918318842F2
:101AD00017D0BE493031884213D0BC4948318842C2
:101AE0000FD0BA49603188420BD0B849783188426A
:101AF00007D0B6499031884203D0B449A831884212
:101B000003D1016801F0040102E0016801F008015D
:101B100071B1016821F00401016094F85C0000F0EB
:101B20001F0003FA00F2AA60606D40F001006065DA
:101B300094F85C00012100F01F008140314241D047
:101B40002068B84235D0404533D0504531D0584553
:101B50002FD09D4A603290422BD09B4A78329042DF
:101B600027D0994A9032904223D0974AA832904287
:101B70001FD048451DD0954A1832904219D000E038
:101B8000B4E1924A3032904213D0904A48329042A7
:101B90000FD08E4A603290420BD08C4A78329042FD
:101BA00007D08A4A9032904203D0884AA8329042A5
:101BB0007ED1406910F0800F04D0A960606D40F0C4
:101BC0000200606594F85C00042100F01F00814071
:101BD00031423FD02068B84233D0404531D05045E3
:101BE0002FD058452DD0784A6032904229D0764A7D
:101BF0007832904225D0744A9032904221D0724A75
:101C0000A83290421DD048451BD0704A18329042ED
:101C100017D06E4A3032904213D06C4A483290420C
:101C20000FD06A4A603290420BD0684A78329042B4
:101C300007D0664A9032904203D0644AA83290425C
:101C40004FD1006810F0020F04D0A960606D40F021
:101C50000400606594F85C00102100F01F008140D2
:101C6000314259D02068B84235D0404533D0504534
:101C700031D058452FD0544A603290422BD0524A2E
:101C80007832904227D0504A9032904223D04E4A28
:101C9000A83290421FD048451DD04C4A183290427D
:101CA00019D04A4A3032904215D0484A483200E0B2
:101CB00015E090420FD0454A603290420BD0434A23
:101CC0007832904207D0414A9032904203D03F4A46
:101CD000A832904207D1006800F0080006E00068D2
:101CE00070E70068B6E7006800F00400A0B1A960E2
:101CF00020680168490304D50068000308D5A16C79
:101D000007E00168C90503D4016821F008010160FA
:101D1000216C09B12046884794F85C00202100F02E
:101D20001F008140314278D02068B84233D040450E
:101D300031D050452FD058452DD0234A60329042A3
:101D400029D0214A7832904225D01F4A90329042C1
:101D500021D01D4AA83290421DD048451BD01B4AB5
:101D60001832904217D0194A3032904213D0174A95
:101D7000483290420FD0154A603290420BD0134A3D
:101D80007832904207D0114A9032904203D00F4AE5
:101D9000A832904203D1006800F0100002E0006811
:101DA00000F00200A0B3A96094F835000428206870
:101DB00001680DD049037DD50068000329D4616C0A
:101DC00028E000002C010024100002401004024012
:101DD00021F0160101602068416921F08001416114
:101DE000206C08B9A06C20B12068016821F00801BE
:101DF000016094F85C0000F01F013F208840A8605B
:101E0000002084F83400012084F83500216D66E05C
:101E100003E0E16B09B120468847606D00287DD062
:101E2000606DC0075AD0042084F835002068B8429D
:101E30002BD0404529D0504527D0584525D0A04922
:101E4000884222D09E49183188421ED09C493031A8
:101E500088421AD09A494831884216D0484514D051
:101E60009849884211D09749183188420DD0954938
:101E70003031884209D093494831884205D0914990
:101E80006031884201D08F497831016821F0010129
:101E9000016021680098019A401C0090904202D88D
:101EA0000868C007F6D1002084F834000868C0072D
:101EB00011D000E001E003200EE00168C905A8D4BC
:101EC000016821F010010160002084F83400012035
:101ED00084F835009DE7012084F83500E16C002985
:101EE0001CD002B02046BDE8F05F08477649884222
:101EF0001DD075491431884219D073492831884260
:101F000015D071493C31884211D06F495031884217
:101F10000DD06D496431884209D000E086E06A49FD
:101F20007831884203D068498C3188427ED101687B
:101F30004FF0040894F85C6006F01F0608FA06F8F3
:101F400018EA020FCDF8008047D05FEA417844D507
:101F500000986860080403D5C8033CD4A16CBEE7B0
:101F6000880638D42068B8422DD05549483988426F
:101F700029D0504527D0584525D05149884222D0F4
:101F80004F49183188421ED04D49303188421AD00D
:101F90004B494831884216D0484514D049498842B7
:101FA00011D04849183188420DD046493031884215
:101FB00009D0704507D0984205D0604503D041490B
:101FC0009031884203D1016821F0080102E00168E4
:101FD00021F004010160216C81E74FF0020808FA4A
:101FE00006F818EA020FCDF800804FD05FEA81783A
:101FF0004CD500986860080403D5C80344D4616CCC
:102000006DE7880640D42068B8422FD02C49483963
:1020100088422BD0504529D0584527D0284988429E
:1020200024D027491831884220D000E045E02449D7
:10203000303188421AD022494831884216D048456A
:1020400014D02049884211D01E49183188420DD041
:102050001C493031884209D0704507D0984205D0DC
:10206000604503D017499031884203D1016821F0BF
:10207000140102E0016821F00A010160002084F8E7
:102080003400012084F83500E16B28E70823B340D1
:10209000134212D0090710D5016821F00E0101602A
:1020A00094F85C0000F01F01012000FA01F1696062
:1020B0006065002184F834100EE7BDE8FC9F000045
:1020C0007000024028040240085402582DE9F05FD5
:1020D000044600F083FB002C06467DD0A64A01276B
:1020E000A54B0025A4491832DFF88CC23033DFF845
:1020F0008882DFF884920CF1480CDFF87CA208F1AA
:102100006008DFF874B209F1780920680AF1900AD2
:10211000DFF868E20BF1A80B88422BD0904229D05F
:10212000984227D0604525D0404523D0484521D04E
:1021300050451FD058451DD070451BD08F491831D0
:10214000884217D08D493031884213D08B494831AD
:1021500088420FD08949603188420BD08749783155
:10216000884207D085499031884203D08349A831FD
:1021700088427DD184F83450022184F835107E499C
:10218000884225D0904223D0984221D060451FD06C
:1021900040451DD048451BD0504519D0584517D053
:1021A000704515D075491831884211D073493031C6
:1021B00088420DD071494831884209D06F49603159
:1021C000884205D06D497831884201D06B49903101
:1021D000016821F0010100E0AFE0016006E000F0DD
:1021E000FDFA801B052801D92020A2E020680068A4
:1021F000C007F4D121680A6861480240D4E90203AB
:102200001843D4E9043633431843A3691843E369F8
:102210001843236A18431043626A042A03D1D4E99D
:102220000B231A43104308602068406920F007011F
:10223000606A042840EA01060DD1A06A0643E06AFC
:1022400048B12046FEF708FC28B14020606584F8BC
:10225000357072E00CE0206846612046FEF712FB04
:1022600094F85C1001F01F023F219140816053E01F
:10227000444988421BD043491431884217D0414910
:102280002831884213D03F493C3188420FD03D4924
:10229000503188420BD03B496431884207D03949DC
:1022A0007831884203D037498C31884240D184F854
:1022B0003450022184F83510026833490A40A1687D
:1022C000402930D0802930D00021E36841EAD30191
:1022D000236941EAD301636941EAD301A36941EA71
:1022E000D301E36941EAD301236A41EA131111439F
:1022F000016024492068494208441421B0FBF1F0F0
:102300008000E0652046FEF7BDFA94F85C1001F00D
:102310001F0107FA01F141602046FEF70FFBA0689C
:1023200080280DD00DE01021CFE74FF48041CCE79D
:1023300040206065032084F835000120BDE8F09F4F
:102340006560216E20790860D4E9190141606068F8
:10235000401E072808D82046FEF740FBE06E0560C7
:10236000D4E91C01416002E0E566256765676565A3
:1023700084F835700020E1E71000024010040240AC
:102380003F8010FE085402580F00FEFF2DE9F84F61
:1023900004004FF00000009014D094F8340001289D
:1023A00012D0012084F8340094F835500020012D1B
:1023B0000CD084F834004FF4006060650120009078
:1023C000BDE8F88F0120FBE70220F9E7022584F839
:1023D00035506065704D704E6F4F1835DFF8B8C1DD
:1023E0003036DFF8B4814837DFF8AC91DFF8A8A1C8
:1023F00008F16008DFF8A0B109F1780920680AF156
:10240000900A0BF1A80B604533D0A84231D0B042FE
:102410002FD0B8422DD040452BD0484529D050452B
:1024200027D0584525D0DFF874C1604521D0DFF8AA
:102430006CC10CF1180C60451BD0DFF860C10CF1C9
:10244000300C604515D0DFF854C10CF1480C6045E4
:102450000FD0DFF848C10CF1600C604509D0DFF8FF
:102460003CC10CF1780C604503D0DFF830C10CF1B1
:10247000900CD0F800C02CF0010CC0F800C0204631
:10248000FEF714FB4449206888422CD0A8422AD089
:10249000B04228D0B84226D0404524D0484522D06A
:1024A000504520D058451ED03C4A90421BD03B4A54
:1024B0001832904217D0394A3032904213D0374AFE
:1024C000483290420FD0354A603290420BD0334AA6
:1024D0007832904207D0314A9032904203D02F4A4E
:1024E000A83290420CD1026822F01E0242F016027D
:1024F0000260206C88B12068026842F008020BE09C
:10250000026822F00E0242F00A020260206C20B142
:102510002068026842F004020260206E0268D20362
:1025200003D5026842F480720260E06E18B102685E
:1025300042F4807202602068884226D0A84224D0EB
:10254000B04222D0B84220D040451ED048451CD0D1
:1025500050451AD0584518D01049884215D00F4917
:102560001831884211D00D49303188420DD00B49C5
:102570004831884209D009496031884205D007496D
:102580007831884201D005499031016841F001015C
:102590000160009814E7000010000240100402409F
:1025A00070B5044600F01AF90546601C02D00448D4
:1025B0000078044400F012F9401BA042FAD370BD29
:1025C000200100242DE9F84F6C4C00224FF0B04A56
:1025D0004FF0010B4FF0030E4FF00F09C7E00BFA5D
:1025E00002F73B4070D04D68022D01D0122D12D160
:1025F000D50800EB850CDCF820605507ED0E09FAD4
:1026000005F826EA0806D1F8108008FA05F848EA25
:102610000608CCF82080D0F800C0560091F804805D
:102620000EFA06F508F003082CEA050C08FA06F87D
:1026300048EA0C08C0F80080D1F804C0BCF1010FD2
:1026400008D0BCF1020F05D0BCF1110F02D0BCF1D3
:10265000120F16D1D0F808C0D1F80C802CEA050C66
:1026600008FA06F848EA0C08C0F80880D0F804C058
:102670002CEA070C0F79C7F30017974047EA0C07BD
:102680004760C768AF438D68B5403D43C5604D683E
:10269000ED006BD53A4D2E6846F002062E602D688F
:1026A00022F0030606F1B04605F002050095D6F8C3
:1026B00008C495072F0F09FA07F52CEA050C314DD0
:1026C000A84202D100252EE050E02F4DA84201D1B2
:1026D000012528E02D4DA84201D1022523E02C4DF3
:1026E000A84201D103251EE02A4DA84201D10425AC
:1026F00019E0294DA84201D1052514E0274DA84233
:1027000001D106250FE0264DA84201D107250AE098
:10271000244DA84201D1082505E0234DA84201D14E
:10272000092500E00A25BD4045EA0C05C6F8085415
:1027300025684E689D43F60300D51D4325606568F6
:102740004E689D43B60300D51D436560DAF800501E
:1027500056464F689D43FF0200D51D43356075689E
:102760004F689D43BF0200D51D437560521C0B6826
:1027700033FA02F57FF433AFBDE8F88F80000058DC
:10278000F44402580000025800040258000802589D
:10279000000C025800100258001402580018025889
:1027A000001C02580020025800240258006908400A
:1027B00000D001207047426931EA020200D10904C9
:1027C000816170470AB1816170470904FBE700002D
:1027D00001480068000C70470010005C01488068E8
:1027E000704700002001002438B5040053D00220B7
:1027F00084F8C1000025C4F8C450C4F8C850C4F817
:10280000CC50C4F8D050C4F8D450C4F8D850207A72
:10281000C0071BD021492068884208D120480168A0
:1028200041F000510160006800F000500090206805
:102830000168228A21F4404102F440420A43A18AFD
:1028400022F4405201F4405111430160204600F04F
:1028500029F8207A800708D52068016821F44072A1
:10286000A18901F4407111430160012084F8C10085
:10287000002184F8C050C1EBC100491C04EB80006A
:10288000C9B205298561C561056245628562056336
:10289000F1D9002038BD012038BD0000007401408E
:1028A000F044025808B500680649884208D1064835
:1028B000016841F000510160006800F00050009094
:1028C00008BD000000740140F044025870B586B0A5
:1028D000044614216846FDF708FE1749206888421F
:1028E00028D11648016841F004010160016801F037
:1028F00004010591016841F00101016000680224B2
:102900000026694600F0010005904FF4A0708DE8A4
:10291000510001200325CDE903500948FFF752FE7D
:102920004FF4A05069468DE851000648CDE90354A4
:10293000FFF748FE06B070BD00740140E044025845
:10294000000802580000025870B590F8C130022B00
:1029500023D0022380F8C130052920D003688024C9
:1029600004EBC1141D5925F007069568354325F081
:102970001806D56835431D510468942505EBC1152B
:10298000136863510368982404EBC11152685A50CC
:10299000012180F8C110002070BD022070BD0168C7
:1029A0000B6823F0070493682343D46823F01803CB
:1029B0001C430C6003681168596151680268916199
:1029C000E6E72DE9F04F90F8C140022C25D090F8B1
:1029D000C040012C21D04FF0010980F8C0900224A2
:1029E00080F8C14007270026052919D09C24012A18
:1029F00004EBC11C3AD0A8244FF0800804EBC115A9
:102A0000022A4FF4005A4FF4405B08EBC1142FD058
:102A1000042A41D0082A0BD140E00220BDE8F08F03
:102A2000012A0AD0022A0CD0042A0ED0082A10D07B
:102A300080F8C17080F8C0600EE002681968D1614A
:102A40000AE002681968516206E00268196891623A
:102A500002E002681968D16290F8C110072940D0DD
:102A600080F8C19080F8C0600020D7E719682EE098
:102A700007684FF0A40808EBC1111A687A5059682A
:102A80000029E9D001680A5922F440520A5101682C
:102A90000A595F683A4315E019681FE007684FF06C
:102AA000AC0808EBC1111A687A5059680029D3D0D4
:102AB00001680A5922F440420A5101680A595F68C4
:102AC00042EA87020A515968514504D1996802685F
:102AD00042F80C10C0E75945BED1996802685151BF
:102AE000BAE701209AE710B590F8C020012A0FD06C
:102AF000012480F8C040022280F8C12050F8C02B89
:102B000013680B431360447000210170084610BD28
:102B1000022010BD70B5044690F8C100022811D003
:102B200094F8C00001280ED0012584F8C05002207E
:102B300084F8C100204603F011FE84F8C150002043
:102B400084F8C00070BD022070BD10B590F8C020A0
:102B5000012A11D0012480F8C040022280F8C1204F
:102B600050F8C02BD2F894330B43C2F8943344701E
:102B700000210170084610BD022010BD2DE9F04172
:102B8000054690F8C10014460E46022825D095F857
:102B9000C000012823D0012785F8C070022085F8E5
:102BA000C100052E1DD0284603F03CFEC6EBC60032
:102BB000216805EB8000016261684162A168816261
:102BC000E168C162216901633146284603F099FD3D
:102BD00085F8C170002085F8C000BDE8F0810220B2
:102BE000FBE728680168D0F8A02321F02003616981
:102BF000194321F40063A169194321F48063E16959
:102C0000194321F0C063216A194321F00063616A0E
:102C10001943A36A21F0404141EA830121F00053A6
:102C2000216B194322F48033E26A01601A43286859
:102C3000C0F8A023BAE790F84120202A24D190F8C8
:102C40004020012A20D0012280F84020242280F850
:102C500041200268136823F00103136002681368BF
:102C600023F480531360026813680B4313600168F8
:102C70000A6842F001020A60202180F84110002118
:102C800080F84010084670470220704790F84120B5
:102C9000202A22D190F84020012A1ED0012280F85B
:102CA0004020242280F841200268136823F00103A9
:102CB00013600268136823F4706343EA0121116012
:102CC00001680A6842F001020A60202180F8411080
:102CD000002180F84010084670470220704700002D
:102CE00070B5040004D094F84100002510B106E04E
:102CF000012070BD204684F8405000F0FFF82420E9
:102D000084F841002068016821F001010160216818
:102D1000606820F0706008612068816821F40041DB
:102D20008160E0680128A06807D040F40440216871
:102D30008860E068022803D006E040F40040F6E72F
:102D400021684FF40060486020684168114A1143CF
:102D500041602068C16821F40041C160D4E90401E8
:102D60000843A16940EA01202168C860D4E907014D
:102D70000843216808602068016841F00101016092
:102D80006564202084F84100256384F842500020C7
:102D900070BD0000008000022DE9FF4F83B00446A3
:102DA00090F841009A469346DDE91087DDF8489097
:102DB000202874D15FEA080014D09FB194F8400035
:102DC00001286CD0012084F84000FFF707FD0122A4
:102DD000054619230090D103204603F05DFE00282C
:102DE00071D103E04FF4007060646CE0222084F83D
:102DF0004100402084F8420000266664C4F8248024
:102E00006785534666635A4604992046CDE9009586
:102E100003F0FAFD10B184F8406054E0618DFF27A3
:102E200034484FF08078FF294FF0007A04D9278585
:102E30003A464346009005E0618D53462185009057
:102E400094F828202046049903F010FE00224B46F7
:102E500004212046009503F01FFEA0BB2068406AB5
:102E6000616A0870606A401C6062208D401E80B2FA
:102E70002085618D491E6185618DD9B1D0B900224F
:102E80004B4680212046009503F006FED8B9608DA0
:102E9000FF2805D927853A464346009606E026E0F6
:102EA000608D53462085009694F82820204604998A
:102EB00003F0DCFD608D0028C8D12A464946204633
:102EC00003F017FE18B1012007B0BDE8F08F2068AD
:102ED0002021C16120684268074B1A40426084F893
:102EE000411084F84260002084F84060ECE7022042
:102EF000EAE700000024008000E800FE2DE9F0472A
:102F000086B0054614216846FDF7EFFA5C4F12269D
:102F1000DFF868C100242968083759480422594B52
:102F200061454FF0030A19D1016841F020010160A9
:102F300000686946CDF800A000F02000CDE90164EA
:102F40000394CDE904201846FFF73CFB386840F4B1
:102F500080003860386800F480008DE0DFF828C118
:102F600061456AD1016841F004010160016801F026
:102F700004010591016841F0010101600068B0465B
:102F80009146694600F0010005904FF400700090F2
:102F9000CDE901643D481646CDE90342FFF712FB37
:102FA0004FF480700090CDE9018439486946CDE93D
:102FB0000346FFF707FB386840F4000038603868C4
:102FC0004FF48068344F00F400000590314807F159
:102FD000080138604A207860402081E811017C6156
:102FE0003846BC61FC61C7E90846C7E90AA45646F1
:102FF0003C63FFF76BF808B1FDF7EBFDAF63BD6312
:10300000254F24487837183038604920C7E9010433
:10301000C7E903487C613846BC61FC61C7E90849DF
:10302000C7E90A643C63FFF751F808B1FDF7D1FD29
:10303000EF63BD6306B0BDE8F087184DA942F9D132
:10304000016841F0200101600068694600F020003D
:1030500005904FF440400090CDE90164CDE9034272
:103060001846FFF7AFFA06481430016841F08001B6
:103070000160006800F080000590DBE70058004028
:10308000E044025800140258005C00400008025856
:1030900000000258100002402C040024001C0058BC
:1030A0000248816802781144816070472001002441
:1030B000032010B500F084F801F03AF90E4A1168C7
:1030C000C1F303230D49CB5C03F01F03D8400C4B25
:1030D0001860126802F00F02895C01F01F01C840FD
:1030E00008490860002000F00FF808B1012010BD69
:1030F00000F02AF8002010BD18440258C4990008B6
:103100002C0100243001002470B50D4D04462A78AE
:10311000A2B14FF47A700B49B0FBF2F00968B1FB31
:10312000F0F002F08CFA48B9102C07D200222146A8
:10313000501E00F025F800206C6070BD012070BDAD
:10314000200100242C010024054808B5016841F045
:1031500002010160006800F00200009008BD00005C
:10316000F4440258002809DB012100F01F029140BD
:103170004009800000F1E020C0F800117047000015
:103180000E4BF0B41B68C3F30223C3F10704042CF5
:1031900000D904241D1D072D01D2002300E0DB1EF1
:1031A000012606FA04F56D1E0D409D409E40761ED8
:1031B000164045EA0601F0BC06F061B90CED00E0EE
:1031C000064A00F0070110684FF6FF03184040EA76
:1031D0000120034908431060704700000CED00E037
:1031E0000000FA05124970B50A68520706D40A6849
:1031F00002F00702824201D0012070BD0A6822F06D
:10320000070202430A60FFF7E9FA094D4FF47A76A4
:103210000446083D06E0FFF7E1FA001BB04201D981
:10322000032070BD28688004F5D5002070BD000023
:103230000C48025810B501F07BF806490968064AA7
:10324000C1F30321515C01F01F01C840034908602C
:1032500010BD000018440258C49900082C01002435
:1032600010B501F02BF805490968054AC1F30211B0
:10327000515C01F01F01C84010BD000020440258FD
:10328000C4990008484910B50A68096802F00302A9
:10329000454B1B1DC1F305111B68434C03F0010393
:1032A0000C342468C4F3CC0414FB03F300EE103A8E
:1032B000B8EE400AE9B33C4B9FED3C1A0833F7EEF9
:1032C000000A62B1DFED3A1A012A01D0022A5ED06B
:1032D00002EE101AF8EE422A81EEA22A1AE0324AD1
:1032E000283A1468A4060DD51268C2F3C104314A05
:1032F000E24001EE902AF8EE612A01EE901AF8EE13
:10330000611A05E001EE901ADFED2B2AF8EE611A42
:1033100082EEA12A1968C1F3080101EE901A19681A
:10332000F8EE611A40EE011A31EEA00A22EE000A10
:1033300000E033E0C1F3462101EE101AB8EE411A65
:1033400031EE201AC0EE011ABCEEE11A80ED001A2F
:103350001968C1F3064101EE101AB8EE411A31EEB8
:10336000201AC0EE011ABCEEE11A80ED011A1968AC
:10337000C1F3066101EE101AB8EE411A71EE200A8F
:1033800080EE201ABCEEC10A80ED020A10BD01EEEB
:10339000901ADFED0A2AF8EE611AB9E70021016000
:1033A0004160816010BD00002844025800000039CF
:1033B0000024744A0090D0030024744C0024F44A82
:1033C000484910B50A68096802F00302454B1B1D05
:1033D000C1F305311B68434C03F010031434246817
:1033E000C4F3CC0414FB03F300EE103AB8EE400A29
:1033F000E9B33C4B9FED3C1A1033F7EE000A62B183
:10340000DFED3A1A012A01D0022A5ED002EE101A2C
:10341000F8EE422A81EEA22A1AE0324A283A1468CB
:10342000A4060DD51268C2F3C104314AE24001EE90
:10343000902AF8EE612A01EE901AF8EE611A05E082
:1034400001EE901ADFED2B2AF8EE611A82EEA12A26
:103450001968C1F3080101EE901A1968F8EE611AB3
:1034600040EE011A31EEA00A22EE000A00E033E03D
:10347000C1F3462101EE101AB8EE411A31EE201ABE
:10348000C0EE011ABCEEE11A80ED001A1968C1F312
:10349000064101EE101AB8EE411A31EE201AC0EEC4
:1034A000011ABCEEE11A80ED011A1968C1F3066138
:1034B00001EE101AB8EE411A71EE200A80EE201AC1
:1034C000BCEEC10A80ED020A10BD01EE901ADFEDDC
:1034D0000A2AF8EE611AB9E70021016041608160B3
:1034E00010BD000028440258000000390024744A2E
:1034F0000090D0030024744C0024F44A484910B5CD
:103500000A68096802F00302454B1B1DC1F305510F
:103510001B68434C03F480731C342468C4F3CC044C
:1035200014FB03F300EE103AB8EE400AE9B33C4B4B
:103530009FED3C1A1833F7EE000A62B1DFED3A1A3C
:10354000012A01D0022A5ED002EE101AF8EE422AB9
:1035500081EEA22A1AE0324A283A1468A4060DD550
:103560001268C2F3C104314AE24001EE902AF8EE3B
:10357000612A01EE901AF8EE611A05E001EE901A48
:10358000DFED2B2AF8EE611A82EEA12A1968C1F349
:10359000080101EE901A1968F8EE611A40EE011A5E
:1035A00031EEA00A22EE000A00E033E0C1F346212A
:1035B00001EE101AB8EE411A31EE201AC0EE011ACF
:1035C000BCEEE11A80ED001A1968C1F3064101EE64
:1035D000101AB8EE411A31EE201AC0EE011ABCEEF4
:1035E000E11A80ED011A1968C1F3066101EE101AA3
:1035F000B8EE411A71EE200A80EE201ABCEEC10A24
:1036000080ED020A10BD01EE901ADFED0A2AF8EEF5
:10361000611AB9E7002101604160816010BD0000BE
:1036200028440258000000390024744A0090D00356
:103630000024744C0024F44A2DE9F04301465A4812
:10364000DFF860814FF4807C584F89B00211460446
:10365000C3106145A8F104044FF0805529D1D8F872
:10366000001001F0070105291FD2DFE801F0030A6D
:103670000F20140006A8FFF705FE079809B0BDE863
:10368000F0836846FFF79CFE0098F7E703A8FFF772
:1036900035FF0398F2E7216811F04051EED0A942BE
:1036A0007CD11046EAE71846E8E70020E6E738460E
:1036B000E4E7B1F5007F1AD0DFF8E8C0B1F5806F1C
:1036C0000CF1080C24D0B1F5006F36D04FF48059BE
:1036D00049454ED1D8F8001001F4E041B1F5005F42
:1036E000D4D03FDC0029C5D04945DED1C9E7D8F8A0
:1036F000001001F4E0718029C8D004DC0029B9D0A1
:103700004029D2D1BDE7C029D1D06145CDD1C2E792
:10371000DCF8001001F46001B1F5800FB6D005DCD3
:103720000029A7D0B1F5001FBFD1AAE7B1F5C00F9E
:10373000BDD0B1F5000FB8D1ADE7DCF8001001F055
:10374000E061B1F1007FA1D005DC002992D0B1F198
:10375000807FAAD195E7B1F1407FA8D0B1F1806F09
:10376000A3D198E7B1F5405FA1D0B1F5804F9CD1CE
:1037700091E7B1F5002F98D1DCF8001011F4403139
:10378000B4D0B1F5803F04D0B1F5003F8DD182E7D0
:1037900004E003A8FFF7B2FE05986FE7B14284D1B9
:1037A00081E70000504402580090D0030080BB0025
:1037B0002DE9F84F0446006800252E46010104F16A
:1037C0002400FE4FDFF8F88300901DD5606E50B1E5
:1037D000B0F5801F0CD0B0F5001F0ED0B0F5401F23
:1037E0001DD001250FE0386840F40030386016E045
:1037F0000221201D04F0CEFA03E00098022104F01B
:1038000053FB05000BD02E462088C00523D5606DE4
:1038100005281ED2DFE800F00C11161B1B00D8F89B
:103820000010626E21F440111143C8F80010EBE75C
:10383000386840F40030386009E00021201D04F0B1
:10384000A9FA03E00098002104F02EFB05466DB1B3
:1038500000E001252E462088800528D5A06D80280F
:103860001ED00CDC90B140280ED114E0D8F8001026
:10387000626D21F007011143C8F80010EBE7C02882
:1038800013D0B0F5807F10D001250FE0386840F4E8
:103890000030386009E00021201D04F07BFA03E0CD
:1038A0000098002104F000FB054685B12E462088D3
:1038B000DFF8109340052CD5D4F8A400B0F5800FA4
:1038C00020D00DDCA0B1B0F5001F0FD115E0D8F865
:1038D0000010A26D21F4E0711143C8F80010E6E772
:1038E000B0F5C00F13D0B0F5000F10D001250FE0D8
:1038F000386840F40030386009E00021201D04F0F1
:1039000049FA03E00098002104F0CEFA054675B1AB
:103910002E46208800052DD5D4F8A800B0F1007FF0
:1039200021D00EDCA8B1B0F1807F10D116E0D9F81B
:103930000010D4F8A42021F460011143C9F800104C
:10394000E7E7B0F1407F13D0B0F1806F10D00125D0
:103950000FE0386840F40030386009E00021201D95
:1039600004F018FA03E00098002104F09DFA0546DF
:103970006DB12E46206880011FD5A06CD8B11028EB
:103980000FD0202812D0302815D0012514E0D9F806
:103990000010D4F8A82021F0E0611143C9F800100C
:1039A000E8E7386840F40030386004E00221201D68
:1039B00004F0F0F905466DB12E462088C0042BD5E1
:1039C000E06DB0F5005F20D00DDCA0B1B0F5805FF8
:1039D0000FD115E07A48001F0168A26C21F0300178
:1039E00011430160E9E7B0F5405F13D0B0F5804FB7
:1039F00010D001250FE0386840F40030386009E04D
:103A00000021201D04F0C6F903E00098002104F015
:103A10004BFA054685B12E462088800429D5206EB4
:103A2000B0F5403F23D010DC08B3B0F5803F14D090
:103A3000B0F5003F0FD115E0D8F80010E26D21F489
:103A4000E0411143C8F80010E6E7B0F5802F0ED032
:103A5000B0F5A02F0BD001250AE00121201D04F0B4
:103A600099F903E00098012104F01EFA05468DB192
:103A70002E46208840042AD5D4F8AC00B0F1405F2F
:103A800023D010DC08B3B0F1805F14D0B0F1005F38
:103A90000FD115E0D8F80010226E21F4E021114377
:103AA000C8F80010E5E7B0F1804F0ED0B0F1A04F9C
:103AB0000BD001250AE00121201D04F06BF903E081
:103AC0000098012104F0F0F905466DB12E462088DA
:103AD00000041FD5E06ED8B1B0F1805F0ED0B0F118
:103AE000005F10D0012514E0D9F80010D4F8AC2004
:103AF00021F0E0411143C9F80010E8E7386840F4CC
:103B00000030386004E00121201D04F043F905462F
:103B10006DB12E462068C0011ED5606CD0B1012861
:103B20000ED0022811D0032814D0012513E0D8F8B4
:103B30000010E26E21F040511143C8F80010E9E78F
:103B4000386840F40030386004E00221201D04F0A1
:103B500021F9054675B12E462068DFF86CB04002A9
:103B60005AD51A48016841F480710160FEF736FEAB
:103B700082460EE01248001F0168626C21F00301CA
:103B800011430160E8E7FEF729FEA0EB0A00642874
:103B90003AD80E480068C005F5D5B5BB09481830BD
:103BA0000068B4F8B01000F4407001F4407188422D
:103BB00019D00448183001680AE000002C4402586B
:103BC00050440258584402581044025800480258C1
:103BD000026821F4407142F480320260026822F4EB
:103BE000803202600160D4F8B000B0F5807F22D14D
:103BF000FEF7F4FD824609E0FEF7F0FDA0EB0A01B6
:103C000041F28830814201D9032504E0FE48006872
:103C10008007F1D57DB12E462078DFF8F0A3C007EC
:103C20003CD0A06F182837D025DC78B3082828D0DE
:103C3000102824D12BE0D4F8B000C0F301210329CF
:103C40000ED0DBF8001021F47C51CBF80010EE48C8
:103C50000168B4F8B020C2F30B0211430160DBE746
:103C6000DBF80020EA4B22F47C5203EA10100243F6
:103C7000CBF80020EBE720280ED028280CD0012517
:103C80000BE00121201D04F085F804E004E0009819
:103C9000012104F009F905465DB12E462078800720
:103CA0001ED5606F062819D2DFE800F0160C111639
:103CB0001616DAF80010A26F21F038011143CAF885
:103CC0000010EBE70121201D04F064F803E00098E8
:103CD000012104F0E9F8054675B100E001252E4602
:103CE000207840071FD5D4F89000062819D2DFE8C5
:103CF00000F0160C11161616DAF80010626F21F09B
:103D000007011143CAF80010EAE70121201D04F061
:103D100041F803E00098012104F0C6F805469DB182
:103D200000E001252E46207880062BD5D4F88C00A3
:103D3000B0F1405F24D011DC10B3B0F1805F15D03A
:103D4000B0F1005F10D116E0D9F80010D4F890203F
:103D500021F007011143C9F80010E4E7B0F1804FEA
:103D60000ED0B0F1A04F0BD001250AE00021201D9C
:103D700004F010F803E00098022104F095F80546DD
:103D80008DB12E46207840062BD5D4F89800B0F59A
:103D9000406F24D011DC10B3B0F5806F15D0B0F5B2
:103DA000006F10D116E0DAF80010D4F88C2021F062
:103DB000E0411143CAF80010E4E7B0F5805F0ED08F
:103DC000B0F5A05F0BD001250AE00021201D03F013
:103DD000E1FF03E00098022104F066F805468DB18A
:103DE0002E46207800062BD5D4F89C00B0F5C04FA5
:103DF00024D011DC10B3B0F5005F15D0B0F5804FC2
:103E000010D116E0D9F80010D4F8982021F4E05130
:103E10001143C9F80010E4E7B0F5004F0ED0B0F53B
:103E2000204F0BD001250AE00021201D03F0B2FF36
:103E300003E00098022104F037F8054665B32E46EA
:103E4000207800070BD5D4F88000B0F5805F2DD026
:103E5000DAF8002022F440520243CAF80020207809
:103E6000C0060BD5D4F89400B0F5807F26D0D9F8E1
:103E7000002022F440720243C9F8002020680003A9
:103E800030D5D4F8A00008B3B0F5803F23D0B0F50A
:103E9000003F25D0012524E0D9F80010D4F89C205B
:103EA00021F460411143C9F80010C9E700980221CC
:103EB00003F0FAFF0028D2D00126D0E700980221B3
:103EC00003F0F2FF0028D9D00126D7E70021201DFA
:103ED00003F060FF03E00098022103F0E5FF0546D0
:103EE00085B12E462068400322D5D4F88400B0F571
:103EF000801F11D0B0F5001F13D0B0F5401F15D0B2
:103F0000012514E0D9F80010D4F8A02021F44031A4
:103F10001143C9F80010E5E7386840F40030386014
:103F200004E00098012103F0BFFF054655B12E467D
:103F30002068C0031CD5E06C70B1B0F5803F10D094
:103F4000012514E0DAF80010D4F8842021F440119F
:103F50001143CAF80010EBE7386840F400303860CD
:103F600004E00221201D03F015FF0546CDB12E46C9
:103F70002068800005D50098022103F095FF00B16C
:103F80000126206880031BD5E06FB8B1B0F5807FB3
:103F900010D0B0F5007F11D0B0F5407F0ED00125D4
:103FA0000DE01A4808380168E26C21F480311143B1
:103FB0000160DDE7386840F40030386055B32E46C4
:103FC0002068C00207D5D8F80010226F21F0004108
:103FD0001143C8F800102068C00008D5DBF80010B5
:103FE000D4F8B42021F480411143CBF800102068AC
:103FF000800207D5D8F80010A26E21F0807111431D
:10400000C8F80010206806E0704402585444025872
:10401000CFFFFF001CE040000CD5DBF8001021F4BE
:104020000041CBF80010DBF80010D4F8B8201143A1
:10403000CBF800102068002806DA0B480168226DD2
:1040400021F04051114301605EB10120BDE8F88FBD
:10405000DAF80010E26F21F440711143CAF8001041
:10406000AEE70020F2E700004C4402582DE9F05F73
:1040700004000D467ED0DFF82C92D9F8000000F045
:104080000F00A8420CD2D9F8001021F00F012943EB
:10409000C9F80010D9F8000000F00F00A84269D15B
:1040A0002078814E40070AD52069316801F07001FF
:1040B000884204D9316821F07001014331602078D1
:1040C000DFF8E88100070CD560694146D8F8002088
:1040D00002F07002904204D90A6822F07002024392
:1040E0000A602078C0060CD5A0694146D8F80020A7
:1040F00002F4E062904204D90A6822F4E0620243CA
:104100000A602078DFF8A8B180060CD5E06959462E
:10411000DBF8002002F07002904204D90A6822F015
:10412000700202430A60207880070AD5E06831688F
:1041300001F00F01884204D9316821F00F010143D9
:1041400031602078C0073DD03068A16820F47060ED
:1041500008433060544960681839022818D0032891
:1041600019D00968012819D04907002949DADFF870
:1041700038A100E045E0AAF1080ADAF8001021F0C1
:1041800007010143CAF80010FEF728FB074611E0BB
:1041900009688903E9E709688901E6E7C905E4E7F1
:1041A000FEF71CFBC11B41F28830814202D903207B
:1041B000BDE8F09FDAF80000616800F03800B0EB6D
:1041C000C10FEDD1207880070AD5E068316801F091
:1041D0000F01884204D2316821F00F0101433160A0
:1041E000D9F80010484601F00F01A9420BD9016827
:1041F00021F00F0129430160006800F00F00A84280
:1042000001D00120D4E7207840070AD52069316821
:1042100001F07001884204D2316821F0700101433D
:104220003160207800070CD560694146D8F800203D
:1042300002F07002904204D20A6822F07002024337
:104240000A602078C0060CD5A0694146D8F8002045
:1042500002F4E062904204D20A6822F4E06202436F
:104260000A60207880060CD5E0695946DBF800200A
:1042700002F07002904204D20A6822F070020243F7
:104280000A6000F055F831680A4AC1F30321515C15
:1042900001F01F01C840084908600020BDE8F05F38
:1042A000FEF732BF00200052184402581C44025846
:1042B00020440258C49900082C01002410B5FEF7D0
:1042C000B9FF06490968064A01F00F01515C01F087
:1042D0001F01C8400349086010BD0000184402587F
:1042E000C49900083001002410B5FFF7E7FF054925
:1042F0000968054AC1F30211515C01F01F01C84071
:1043000010BD00001C440258C499000810B5FFF706
:10431000D5FF05490968054AC1F30221515C01F046
:104320001F01C84010BD00001C440258C499000879
:10433000434830B50068444C10F03801414808D07B
:104340000211082903D010290BD018290BD01046D0
:1043500030BD21688906FBD52168C1F3C101C84081
:1043600030BD3A4830BD364918310A68096802F054
:104370000302334B1C33C1F305111B68304D03F0AE
:10438000010324352D68C5F3CC0515FB03F300EEBE
:10439000103AB8EE400AE9B3294BDFED2D0A20337D
:1043A000B7EE001A62B1DFED2B1A012A01D0022A02
:1043B0003CD002EE101AF8EE422A81EEA22A17E053
:1043C000226892060CD52268C2F3C102D04001EEE9
:1043D000900AF8EE612A01EE901AF8EE611A05E0F3
:1043E00001EE901ADFED1C2AF8EE611A82EEA12A86
:1043F0001868C0F3080001EE900A1868F8EE611A18
:1044000040EE201A31EE810A22EE000AC0F3462067
:10441000401C00E011E000EE900AF8EE600A80EE29
:10442000201ABCEEC10A10EE100A30BD01EE901A3F
:10443000DFED0A2AF8EE611AD8E7002030BD00004F
:10444000104402580090D0030044025800127A0031
:10445000000000390024744A0024744C0024F44AFB
:104460002DE9F05F04007CD02078DFF8FCA3DFF8B2
:10447000FC83FF4DC00748D0DAF80000D8F80010E0
:1044800000F03800102815D0182803D101F00300DF
:1044900002280FD06068B0F5803F12D010B1B0F59F
:1044A000A02F18D0286820F480302860286820F4D5
:1044B000802009E02868800327D560680028D2D0D2
:1044C00023E0286840F480302860606888B1FEF7F7
:1044D00085F9064609E0286840F480202860F0E766
:1044E000FEF77CF9801B64287ED828688003F7D506
:1044F0000BE0FEF773F9064604E0FEF76FF9801B48
:104500006428F1D828688003F7D4207841F20309A1
:10451000D84E80075AD5DAF80000D8F8001010F00D
:1045200038000ED0182801D188070AD0E068B0B34F
:10453000296821F0190101432960FEF74FF9074668
:1045400029E02868400702D5E06800288BD0286859
:10455000E16820F0190008432860FEF73FF907469C
:1045600005E0CBE0FEF73AF9C01B0228BCD828686A
:104570004007F7D5FEF72CF94845306810D8216977
:1045800020F47C3040EA013030601FE0FEF726F96D
:10459000C01B0228A8D828684007F7D5EAE705E03D
:1045A000217C20F0FE4040EA0160EDE7286820F021
:1045B00001002860FEF712F9074604E0FEF70EF945
:1045C000C01B022890D828684007F7D42078C0067E
:1045D00055D5DAF80000D8F8001000F03800DFF800
:1045E00088B2ABF1040B00E0ECE0082810D01828EA
:1045F00003D101F0030001280AD0E06900282868EF
:104600002ED040F080002860FEF7E8F807461FE053
:104610002868C0051FD5E06980286FD11BE030688D
:1046200094F8201020F0F84040EA8160306026E0E5
:10463000DBF8001094F8202021F07C5141EA02615F
:10464000CBF800101BE0FEF7C9F8C01B02288DD87C
:104650002868C005F7D5FEF7BBF84845E8D8DEE77F
:1046600020F080002860FEF7B9F8064604E0FEF767
:10467000B5F8801B02288DD82868C005F7D42078AB
:10468000000724D5794F60694C37002838680FD06F
:1046900040F001003860FEF7A1F8064604E0FEF79E
:1046A0009DF8801B02288DD838688007F7D50EE06A
:1046B00020F001003860FEF791F8064604E0FEF7AE
:1046C0008DF8801B02287DD838688007F7D42078C1
:1046D000800623D5A0690028286810D040F48050B7
:1046E0002860FEF77BF8064604E0FEF777F8801BAB
:1046F000022867D828688004F7D50FE0DEE020F4B0
:1047000080502860FEF76AF8064604E0FEF766F877
:10471000801B022856D828688004F7D420784007E8
:1047200046D5554F386840F480703860FEF756F82B
:10473000064604E0FEF752F8801B642842D8386829
:10474000C005F7D5494FA068483701280AD008B1FD
:10475000052813D0386820F001003860386820F050
:10476000040002E0386840F001003860A06841F2BF
:10477000883988B1FEF732F8064609E0386840F01B
:1047800004003860EEE7FEF729F8811B494519D887
:1047900038688007F7D50BE0FEF720F8064604E0FE
:1047A000FEF71CF8811B49450CD838688007F7D400
:1047B000606AE0B3DAF80010C1F3C20103297DD0CA
:1047C000022800E07BE0286820F08070286003D099
:1047D000FEF704F8044688E0FEF700F8064604E019
:1047E000FDF7FCFF801B02287CD828688001F7D4E5
:1047F000D8F8001040F2F3329143E26A41EA021124
:10480000A26A1143C8F8001094F834004FF4FE0275
:10481000218E4002491EA0F5007080B2C1F308014C
:104820000843218F491E02EA0141084300E05FE08E
:1048300094F83C101202491E02EA016108430B4938
:1048400008310860081F016821F001010160074973
:104850000C310A684FF6F8739A43A36C42EAC3021C
:104860000A6001680AE00000104402582844025817
:10487000004402580444025800480258226C21F0B7
:104880000C01114301600168626C21F002011143C7
:104890000160016841F480310160016841F4003138
:1048A0000160016841F480210160016841F001016B
:1048B0000160286840F08070286001E01AE011E093
:1048C000FDF78CFF044604E0FDF788FF001B02287B
:1048D00008D828688001F7D50AE0FDF77FFF001BA4
:1048E000022802D90320BDE8F09F28688001F4D493
:1048F0000020F8E70120F6E7704700002DE9F047B7
:10490000044600680769D0F81490D0F8088007EAD8
:10491000090594F88160002015F0600F08D169073F
:1049200006D5616F20468847216F204688470120C1
:1049300005F04101012905D1690703D4216F204603
:104940008847012005F02201022906D1690704D415
:10495000616F2046BDE8F0470847002858D1280776
:104960004FF0010A69D52068816941F00801816131
:104970002068816941F0100181612068816941F4FA
:10498000006181612068016921F00801016118F46A
:10499000404F09D0042E04D0A06FC06920B1032E6F
:1049A0003FD0E06FC069A8BB2068806810F4404F1A
:1049B0001FD022E0E0680F2806D92068006B616EE6
:1049C0000860606E001D0EE00728206805D9008E83
:1049D000616E0880606E801C05E090F83000616EAA
:1049E0000870606E401C6066B4F86A00401EA4F84F
:1049F0006A00B4F86A000028DCD1204603F024FBEA
:104A000084F881A0D4F8840020B12046FFF774FF19
:104A1000BDE8F087FFE7052E07D0042E09D0032E4E
:104A2000F6D1204600F009FEF2E7204600F006FE2F
:104A3000EEE7204600F067FBEAE75FEA095007D59A
:104A4000380705D52068816941F400618161DFE79D
:104A500015F4587FDCD068060AD5D4F8840040F0FD
:104A60000400C4F884002068816941F0400181613C
:104A7000A8050AD5D4F8840040F00100C4F88400E9
:104A80002068816941F400718161E8050AD5D4F894
:104A9000840040F00800C4F884002068816941F473
:104AA00080718161A8060AD5D4F8840040F08000A6
:104AB000C4F884002068816941F020018161D4F844
:104AC00084000028A4D02068016821F00101016061
:104AD0002068016940F26B3291430161C8F3813073
:104AE000032802D084F881A08FE72068816821F430
:104AF000404181600E4DE06F50B10565E06FFCF7FD
:104B000085FE28B1D4F8840040F04000C4F8840049
:104B1000A06F002888D00565A06FFCF777FE0028FD
:104B200086D0D4F8840040F04000C4F884006FE7D9
:104B3000058100082DE9F041040027D00025A56279
:104B4000474F2068474A484BB84206D0904204D0AD
:104B5000984202D0E1680F2918D8E16B012606EBD4
:104B6000511CE1680831C908B84201FB0CF105D0BD
:104B7000904203D0984201D0082907D8B84203D008
:104B8000904201D0984204D1102902D90120BDE8F9
:104B9000F08194F8810020B9204684F8805000F01C
:104BA00065F8022084F881002068016821F0010185
:104BB0000160A069B0F1806F0AD16068B0F5800F24
:104BC00006D1A06B20B92068016841F480510160D2
:104BD000A16AE0690843E16B0843E1680843216882
:104BE0008860616A606BA2690843A16B1143084346
:104BF0002169084361690843216A084361680843E1
:104C0000E16C0843A1680843A16C0843A16D084307
:104C10002168C860606868B92068816821F4C05163
:104C200041F4006181602068816821F4C06141F431
:104C3000806181602068016D21F00101016560687B
:104C4000400206D52068C168626D21F00041114321
:104C5000C160C4F8845084F88160002097E70000A8
:104C60000030014000380040003C00402DE9F04F8A
:104C70008BB0044614216846FBF737FC00250595E8
:104C8000069502260795052708954FF48069894AFD
:104C90004FF0040821684FF0030B874891426FD111
:104CA000854910310A6842F480520A60096801F4AB
:104CB00080510991016841F008010160016801F02B
:104CC00008010991016841F04001016000686946EE
:104CD00000F04000099080200090CDE90165774800
:104CE000CDE90357FDF76EFC78020090CDE9016530
:104CF00073486946CDE90357FDF764FC724E4FF4E3
:104D0000803A70484F4630602520C6E90105C6E963
:104D100003597561D946C6F824803046B561C6E9A5
:104D2000075AC6E90AB53563FDF7D0F908B1FBF7B4
:104D300050FFE667B463644E62487836183006F177
:104D40000801306026207060402081E8A100756174
:104D50003046C6F82480B561C6E9075AC6E90A9507
:104D60003563FDF7B3F908B1FBF733FFA6670022FF
:104D70000121B4632320FEF703FA232094E0FFE728
:104D8000524A91427ED14C4908310A6842F480422D
:104D90000A60096801F480410991016841F0040149
:104DA0000160016801F004010991016841F002010C
:104DB00001600068694600F002000990062000903A
:104DC000CDE901654248CDE90357FDF7FBFBCDF87E
:104DD00000906946CDE901653E48CDE90357FDF7EE
:104DE000F1FB394E47463C48D846F03606F12001E3
:104DF00030602720C6E90105C6E9035975613046D0
:104E0000B561F56181E8A001F5623563FDF75EF9F2
:104E100008B1FBF7DEFE4FF0070B2B48CDE905B5D7
:104E20008DF81C50F03005A94FF0010A8DF81D5087
:104E3000CDF820A0FCF77CFC08B1FBF7CAFEE667C2
:104E4000B463264E244806F108011830306028204B
:104E50007060402081E8210206F120007561B56193
:104E6000F56180E8A001F56230463563FDF72EF963
:104E700008B1FBF7AEFECDE905B58DF81C508DF8F5
:104E80001D5000E012E0154805A9CDF820A0FCF760
:104E90004FFC08B1FBF79DFE0022A66724201146B7
:104EA000B463FEF76DF92420FEF75CF90BB0BDE8A2
:104EB000F08F000000300140E0440258000C02581E
:104EC00000180258100402402C060024003800404C
:104ED00000080258000402587000024094070024A1
:104EE0002DE9F84F04461D460020174600904FF468
:104EF000800B606888464FF00409584501D1A068CE
:104F000088B194F88000012817D04FF0010A84F886
:104F100080A0FDF763FC94F881100646002001296B
:104F20000DD0022127E084F881902046009313469B
:104F30000A4600F0FEF9BDE8F88F0220FBE7B8F161
:104F4000000F17D0B7B184F881908146C4F884006F
:104F5000C4F86480A4F86870A4F86A70E065A4F8E6
:104F60006000A4F8620020676067A068B0F5C02FF9
:104F700005D009E0012184F880000846DBE72068BD
:104F8000016821F400610160206841686FF30F013E
:104F9000394341602068016841F0010101606068A7
:104FA000584504D12068016841F400710160E0684F
:104FB0000F282DD948F20807B4F86A00002856D007
:104FC0002068416939420BD0006B616E0860606EE9
:104FD000001D6066B4F86A00401EA4F86A00EBE7A2
:104FE000FDF7FCFB801BA84202D3681CE4D001E063
:104FF000002DE1D1204603F027F884F88090D4F802
:10500000840040F48070C4F8840084F881A076E0C5
:10501000072828D865E02068416911F4604F18D04E
:105020004169090409D5006B616E0860606E001D5E
:105030006066B4F86A00801E08E0008E616E088029
:10504000606E801C6066B4F86A00401EA4F86A00B6
:1050500009E0FDF7C3FB801BA84202D3681C02D005
:10506000C8E7002DC6D0B4F86A000028D3D13CE0D0
:105070002068416911F4604F29D04169090409D5BC
:10508000006B616E0860606E001D6066B4F86A00B7
:10509000001F19E0416901F4C041B1F5005F09D971
:1050A000008E616E0880606E801C6066B4F86A00D5
:1050B000801E09E090F83000616E0870606E401C40
:1050C0006066B4F86A00401EA4F86A0009E0FDF7C3
:1050D00085FB801BA84202D3681C02D08AE7002D02
:1050E00088D0B4F86A000028C2D1204602F0ACFF94
:1050F00084F8809084F881A0D4F8840008B101205D
:1051000019E7009817E770472DE9F84F044690F823
:1051100080001D46174601288A464FF0000B0DD02F
:105120004FF0010984F88090FDF758FB94F8811046
:1051300006460020012904D002211FE00220BDE81C
:10514000F88FBAF1000F18D0BFB1032184F8811095
:105150008046C4F88400C4F85CA0A4F86070A4F889
:1051600062706066A4F86800A4F86A00606720674F
:10517000A068B0F5C02F05D009E0012184F88000B7
:105180000846DCE72068016841F40061016020689E
:1051900041686FF30F01394341602068016841F0B5
:1051A000010101606068B0F5800F04D120680168DA
:1051B00041F400710160E0680F2819D82BE02068E5
:1051C000416989070BD5E16D09680162E06D001D39
:1051D000E065B4F86200401EA4F8620008E0FDF744
:1051E000FDFA801BA84202D3681C01D005E025B15E
:1051F000B4F862000028E2D17FE0204602F024FFEC
:1052000084F88080D4F8840040F48070C4F884006E
:1052100084F8819089E007282AD86AE020684169EB
:1052200089071BD5B4F8621001290BD9E16B49B18C
:10523000E16D09680162E06D001DE065B4F862008F
:10524000801E08E0E16D09880184E06D801CE06546
:10525000B4F86200401EA4F8620009E0FDF7BEFA4F
:10526000801BA84202D3681C02D0C6E7002DC4D020
:10527000B4F862000028D1D13FE020684169890775
:105280002DD5B4F8621003290CD9E16B402909D956
:10529000E16D09680162E06D001DE065B4F862002F
:1052A000001F19E0B4F8621001290BD9E16B49B174
:1052B000E16D09880184E06D801CE065B4F862004E
:1052C000801E09E0E16D097880F82010E06D401C37
:1052D000E065B4F86200401EA4F8620009E0FDF742
:1052E0007DFA801BA84202D3681C02D085E7002DFE
:1052F00083D0B4F862000028BFD1002233460821D1
:105300002046009502F00BFF28B1D4F8840040F04D
:105310002000C4F88400204602F096FE84F88080C5
:1053200084F88190D4F8840008B1012007E758463A
:1053300005E72DE9FF4F83B0044600201D46934644
:10534000109F019094F88000012814D04FF0010ABA
:1053500084F880A0FDF742FA804694F881002E463A
:105360006368002201284FF480010CD08B4208D1E1
:10537000A36833B903E0022007B0BDE8F08F04282A
:1053800001D0022037E0049898B3BBF1000F31D070
:105390007DB394F88100042802D0052084F88100B0
:1053A00091461046C4F88420C4F864B0A4F86A504A
:1053B000A4F86850049AE265A4F86250A4F860501A
:1053C00020676067206842686FF30F022A434260DB
:1053D0002068026842F0010202606068884204D1DD
:1053E0002068016841F400710160E0680F282BD843
:1053F00046E0FFE7012084F88020BDE7206841698E
:1054000089070DD565B1E16D09680162E06D001D88
:10541000E065B4F86200401EA4F86200B4F862507F
:105420002068416948F2080211420DD066B1006B54
:10543000616E0860606E001D6066B4F86A00401E10
:10544000A4F86A00B4F86A6055EA0600D6D1FDF700
:10545000C5F9A0EB0800B84202D3781C02D1D0E015
:10546000002F5ED1204602F0EFFD84F88090D4F842
:10547000840040F48070C4F8840084F881A0D8E0EF
:1054800007284BD8BAE02068416989071BD5D5B1F8
:10549000012D0BD9E16B49B1E16D09680162E06D45
:1054A000001DE065B4F86200801E08E0E16D098827
:1054B0000184E06D801CE065B4F86200401EA4F831
:1054C0006200B4F862502068416911F4604F1AD04C
:1054D000CEB14169090409D5006B616E0860606E48
:1054E000001D6066B4F86A00801E08E0008E616EE0
:1054F0000880606E801C6066B4F86A00401EA4F8E4
:105500006A00B4F86A60FDF769F9A0EB0800B842D8
:1055100002D3781C02D0A5E7002FA3D055EA0600DD
:10552000B1D16EE02068416989072BD555B3032DB1
:105530000CD9E16B40290BD9E16D09680162E06D7E
:10554000001DE065B4F86200001F17E0012D0BD9C3
:10555000E16B49B1E16D09880184E06D801CE06573
:10556000B4F86200801E09E0E16D097880F820102F
:10557000E06D401CE065B4F86200401EA4F86200D3
:10558000B4F862502068416911F4604F2BD056B3D3
:105590004169090409D5006B616E0860606E001DE9
:1055A0006066B4F86A00001F19E0416901F4C04167
:1055B000B1F5005F09D9008E616E0880606E801CB5
:1055C0006066B4F86A00801E09E090F83000616EF1
:1055D0000870606E401C6066B4F86A00401EA4F853
:1055E0006A00B4F86A60FDF7F9F8A0EB0800B84269
:1055F00002D3781C02D035E7002F8CD055EA060084
:1056000090D10022434608212046009702F087FDF2
:1056100028B1D4F8840040F02000C4F8840020466B
:1056200002F012FD84F8809084F881A0D4F8840000
:1056300008B10120A0E601989EE670477047401E21
:10564000B0F1807F10B501D3012010BD4FF0E024F0
:1056500060610F21601703F012FF0020A061072096
:105660002061002010BD70477047704730B590F83A
:105670003C20012A3AD0012280F83C20CA6800244C
:105680008B6822F440721A4D1A434B6822F48062F0
:105690001A430B6822F400621A430B6922F4805209
:1056A0001A434B6922F400521A438B6A22F4804257
:1056B0001A430B8B22F4702242EA03420368AB4286
:1056C00002D00C4DAB420CD18D8C22F4700242EA18
:1056D0000552CD6922F08072096A2A4322F00072D5
:1056E0000A435A6480F83C40002030BD022030BD9F
:1056F000000001400004014070B590F83C20012AF0
:1057000024D0012580F83C50022280F83D20036817
:105710005A689E680E4CA34202D00E4CA34203D19D
:1057200022F470044A68224322F070040A688968EF
:1057300022435A6026F0800421430268916080F879
:105740003D50002180F83C10084670BD022070BD1D
:10575000000001400004014010B5040003D094F89B
:105760003D0010B107E0012010BD002084F83C008E
:10577000204600F00DF8022084F83D002068211D2D
:1057800002F00CFE012084F83D00002010BD000056
:1057900008B500680C49884208D10C48016841F4FA
:1057A00080710160006800F480700BE00849884255
:1057B00009D106480830016841F4003101600068F1
:1057C00000F40030009008BD00200040E84402587A
:1057D000004401400168CA6842F00102CA600168E1
:1057E0008868064A1040062806D0B0F5803F03D0EE
:1057F000086840F0010008600020704707000100C1
:105800002DE9F04104000D4603D094F83D0018B195
:1058100008E00120BDE8F081002084F83C0020462B
:1058200000F03CF8022084F83D00206881681A4AA4
:10583000114081602068211D02F0B0FD2068816860
:105840008269066A2B68AF6926F0AA060B4340F20C
:1058500003318A43A96842EA0722EF6911434FF6F0
:10586000FC429143EA6841EA07212F6A0A43296909
:10587000090141EA073111436A686D69836046EAAC
:1058800005152A432068816120680262012084F89E
:105890003D000020BEE70000F8BFFEFF30B587B036
:1058A000044614216846FAF720FE206800223C4C8A
:1058B00002233C490125A04219D13A48103004681E
:1058C00044F001040460006800F0010005900868DD
:1058D00040F0100008600868694600F0100005906C
:1058E0004FF4206000903048CDE9013234E02D4C77
:1058F0000834B0F1804F19D02C4DA84232D1206825
:1059000040F002002060206800F002000590086866
:1059100040F0020008600868694600F00200059047
:10592000302000902248CDE9013235E0206840F077
:1059300001002060206800F001000590086840F038
:10594000010008600868694600F001000590032026
:1059500000901848CDE90132CDE90325FCF732FE6D
:1059600007B030BD144DA842FAD1206840F00400C1
:105970002060206800F004000590086840F00800EE
:1059800008600868694600F0080005904FF4405030
:1059900000900A48CDE90132CDE90323DEE700009B
:1059A00000000140E044025800100258000400408A
:1059B000000402580000025800080040000C025881
:1059C00010B50446006889B1042904D001220021E1
:1059D00002F044FD20680122042102F03FFD20680E
:1059E000016841F001010160002010BD0122002189
:1059F000F3E7704770B50446006801694FF0000591
:105A0000C943890715D4C168C943890711D4E91E60
:105A1000016101202077206880698007204602D03C
:105A2000FFF7E7FF04E000F064F9204600F094FA85
:105A3000257720680169C943490717D4C168C9435C
:105A4000490713D46FF00401016102202077206818
:105A5000806910F4407F204602D0FFF7CAFF04E0BF
:105A600000F047F9204600F077FA257720680169B1
:105A7000C943090716D4C168C943090712D46FF096
:105A800008010161042020772068C0698007204652
:105A900002D0FFF7AEFF04E000F02BF9204600F043
:105AA0005BFA257720680169C943C90617D4C16824
:105AB000C943C90613D46FF0100101610820207793
:105AC0002068C06910F4407F204602D0FFF791FFA4
:105AD00004E000F00EF9204600F03EFA2577206839
