:020000040800F2
:100000007813002479030008F1A10008DF8D0008AF
:10001000EDA10008C908000881CB0008000000001D
:10002000000000000000000000000000BDA9000862
:10003000E50D00080000000099A40008FDAA0008D2
:100040009303000893030008930300089303000838
:100050009303000893030008930300089303000828
:10006000930300089303000893030008ED080008B9
:10007000FD0800080D0900081D0900082D090008E9
:100080003D09000893030008B9080008930300081D
:1000900093030008930300089303000893030008E8
:1000A00093030008930300089303000893030008D8
:1000B00093030008930300089303000893030008C8
:1000C00093030008930300089303000851A8000855
:1000D00061A80008930300089303000871CB00088F
:1000E0009303000893030008000000009303000836
:1000F0009303000893030008930300089303000888
:100100009303000893030008E9AC00089303000878
:100110009303000893030008930300089303000867
:100120004D0900085D0900089303000893030008C7
:100130009303000893030008930300089303000847
:1001400000000000000000000000000000000000AF
:100150009303000893030008930300089303000827
:100160009303000893030008930300089303000817
:1001700093030008930300089303000800000000A5
:1001800093030008930300089303000893030008F7
:1001900093030008930300089303000893030008E7
:1001A00093030008930300089303000893030008D7
:1001B00093030008930300089303000893030008C7
:1001C00093030008930300089303000893030008B7
:1001D00093030008930300089303000893030008A7
:1001E0009303000893030008930300089303000897
:1001F0009303000893030008930300089303000887
:100200009303000893030008930300089303000876
:100210009303000893030008930300089303000866
:1002200093030008930300089303000800000000F4
:1002300093030008930300080000000093030008E4
:100240009303000893030008930300089303000836
:100250009303000893030008930300089303000826
:100260009303000893030008930300089303000816
:1002700093030008930300089303000800000000A4
:100280009303000800000000930300080000000032
:10029000000000009303000800F002F800F05CF892
:1002A0000AA090E8000C82448344AAF10107DA45D1
:1002B00001D100F051F8AFF2090EBAE80F0013F0C7
:1002C000010F18BFFB1A43F00103184768D4000060
:1002D00088D400000A444FF0000C10F8013B13F0E2
:1002E000070408BF10F8014B1D1108BF10F8015B8F
:1002F000641E05D010F8016B641E01F8016BF9D182
:1003000013F0080F1EBF10F8014BAD1C0C1B09D1D8
:100310006D1E58BF01F801CBFAD505E014F8016B4A
:1003200001F8016B6D1EF9D59142D6D370470000DC
:100330000023002400250026103A28BF78C1FBD8EE
:10034000520728BF30C148BF0B6070471FB50DF082
:10035000DBF91FBD10B510BD00F004F91146FFF721
:10036000F5FF0CF081FC00F022F903B4FFF7F2FF77
:1003700003BC00F025F90000094880470948004700
:10038000FEE7FEE7FEE7FEE7FEE7FEE7FEE7FEE745
:10039000FEE7FEE704480549054A064B70470000A2
:1003A00049AC000899020008780D00247813002455
:1003B000780F0024780F002453EA020C00F06980C3
:1003C0002DE9F04B4FF00006002B1FBFB3FA83F569
:1003D00003FA05F424FA05F65E4012BF1643B2FA9A
:1003E00082F502FA05F4C5F120051EBF22FA05FCCC
:1003F00044EA0C04203556EA044C4FEA144418BF72
:10040000641C4FF000084FF00009904271EB030CA0
:1004100039D3002919BFB1FA81F701FA07F6B0FA0A
:1004200080F700FA07F6C7F120071EBF20FA07FC85
:1004300046EA0C062037B6FBF4FCA7EB0507103F95
:1004400007F01F0BCBF120060CFA0BFB2CFA06F67B
:1004500044BFB3460026202FA4BF5E464FF0000BDA
:100460005BEA060C08BF4FF0010B19EB0B09ABFB65
:10047000027C48EB0608C01B06FB02CC0BFB03CC3E
:1004800071EB0C01C1E70B46024641464846BDE808
:10049000F08B13B54FF000004FF00001AFF3008078
:1004A000BDE81C4070474FF000020429C0F01280E4
:1004B00010F0030C00F01B80CCF1040CBCF1020F17
:1004C00018BF00F8012BA8BF20F8022BA1EB0C01EC
:1004D00000F00DB85FEAC17C24BF00F8012B00F8E2
:1004E000012B48BF00F8012B70474FF0000200B508
:1004F000134694469646203922BFA0E80C50A0E847
:100500000C50B1F12001BFF4F7AF090728BFA0E8F4
:100510000C5048BF0CC05DF804EB890028BF40F8C0
:10052000042B08BF704748BF20F8022B11F0804F02
:1005300018BF00F8012B704770477047704710B51F
:1005400000F008F8006810BD10B5044600F002F88D
:10055000046010BD00487047140D00240048704727
:10056000140D00247546FFF7F9FFAE4605006946F5
:10057000534620F00700854618B020B5FFF70AFF64
:10058000BDE820404FF000064FF000074FF0000894
:100590004FF0000B21F00701AC46ACE8C009ACE815
:1005A000C009ACE8C009ACE8C0098D46704710B579
:1005B0000446AFF300802046BDE81040FFF7D5BEEB
:1005C00001491820ABBEFEE726000200704700007C
:1005D00070B5044651492068884203D050492068CC
:1005E000884208D14F48006800F4403008B101202B
:1005F00009E0002007E04C48006800F4403008B1F2
:10060000012000E00020B8B105F076F905466068E9
:10061000B0F5803F06D0B0F5003F04D0B0F5403FC4
:1006200008D105E000BF6068000CB5FBF0F502E002
:10063000AD0800E000BF2AE04FF4002004F0C2F84B
:1006400005466068C0F31101F9B980140C281CD26A
:10065000DFE800F01B060708090A0B11131517192C
:1006600000BF00BF00BF00BF00BF6068800C40003B
:10067000B5FBF0F50AE02D0908E06D0906E0AD09CB
:1006800004E0ED0902E02D0A00E000BF00BF02F027
:10069000BBFE41F20301884210D82448854206D9A6
:1006A0002068806840F480702168886034E02068A9
:1006B000806820F48070216888602DE01C488542A5
:1006C00006D82068806820F440702168886023E0A4
:1006D000174885420BD94000854208D820688068B9
:1006E00020F4407040F480702168886014E0114864
:1006F00085420BD94000854208D82068806820F4E4
:10070000407040F400702168886005E020688068CF
:1007100040F440702168886070BD000000200240F5
:10072000002102400823024008630258002D3101D5
:10073000105E5F0020BCBE0070B50546AC6B606DFE
:1007400000F0500098BB606D40F400706065206858
:10075000006800F00800A8B1206808F085FE10B31A
:100760002068C06800F40050E8B9606D20F4807023
:100770006065606D00F48050A8B9606D40F00100C4
:10078000606510E02068C06800F0030058B9606D33
:1007900020F480706065606D00F4805018B9606D61
:1007A00040F001006065204600F060FE0CE0FFE7CD
:1007B000606D00F0100018B1204600F059FE03E013
:1007C000E06CC16C2846884770BD70B50546AC6BBF
:1007D000606D40F040006065A06D40F00400A065D1
:1007E000204600F045FE70BD70B50446A56B284656
:1007F00000F03DFE70BD000070B50446206808F0B2
:100800001AFE00284CD1206880682649084048B16B
:10081000606D40F010006065A06D40F00100A065C3
:10082000012070BD206808F0EFFD02F0F3FD0546E1
:100830001D4A2168914203D01C4A2168914201D18E
:100840001B4900E01B49084608F0EBFD0646174926
:100850002068884201D1144800E02068216888425D
:1008600000D0E6B915E0206808F0E5FD10B9206871
:1008700008F0CAFD02F0CEFD401B022809D9606DC8
:1008800040F010006065A06D40F00100A0650120FF
:10089000C7E72068006800F001000028E3D000BF2F
:1008A0000020BEE73F0000800020024000210240FF
:1008B000002302400063025810B5024800F0DAFD40
:1008C00010BD00005403002400BFFEE700200249D1
:1008D0000968486370470000D00B00244FF49670FD
:1008E0000149096848637047D00B002410B50248DD
:1008F00001F0AAFB10BD0000F005002410B502486D
:1009000001F0A2FB10BD00006806002410B50248EB
:1009100001F09AFB10BD0000B803002410B5024896
:1009200001F092FB10BD00009C0C002410B50248A1
:1009300001F08AFB10BD0000E008002410B5024859
:1009400001F082FB10BD00005809002410B50248D8
:1009500001F07AFB10BD0000F007002410B502483A
:1009600001F072FB10BD0000680800240146374A00
:100970000868904249D0354A18320868904244D0FD
:10098000324A3032086890423FD0304A48320868D4
:1009900090423AD02D4A60320868904235D02B4AB6
:1009A00078320868904230D0284A903208689042E5
:1009B0002BD0264AA8320868904226D0244A0868DC
:1009C000904222D0224A1832086890421DD0204A14
:1009D00030320868904218D01D4A48320868904268
:1009E00013D01B4A6032086890420ED0184A783201
:1009F0000868904209D0164A90320868904204D0A4
:100A0000134AA8320868904201D1012000E000207A
:100A1000B0B10A78103A1823B2FBF3F000F00702E5
:100A20000C4B9A5CCA65032805D90A686FF3090262
:100A3000121D8A6503E00A686FF309028A6503E004
:100A4000086820F0FF008865886D7047100002403C
:100A5000100402401CD7000810B502682B4C036834
:100A6000A34222D0294C14340368A3421DD0274C42
:100A700028340368A34218D0244C3C340368A342B2
:100A800013D0224C50340368A3420ED01F4C643460
:100A90000368A34209D01D4C78340368A34204D0F4
:100AA0001A4C8C340368A34201D1012300E00023D7
:100AB0008BB10378083B1424B3FBF4F1144B03EB24
:100AC00081030366124B8033436601F01F04012348
:100AD000A340836618E00378103B1824B3FBF4F1BD
:100AE0000C4B9A4204D80B4BA83B9A4200D30831D6
:100AF000094B03EB81030366074B8033436601F028
:100B00001F040123A340836610BD0000085402584F
:100B100000580258B8040240000802400179A9B305
:100B2000082940D8204B02689A4222D01E4B143329
:100B300002689A421DD01C4B283302689A4218D092
:100B4000194B3C3302689A4213D0174B503302685A
:100B50009A420ED0144B643302689A4209D0124B69
:100B6000783302689A4204D00F4B8C3302689A4261
:100B700001D1012200E000224AB14A1E0B4B03EBD7
:100B80008202C266094A4032026708E00BE04A1E50
:100B9000074B03EB8202C266054A403202674A1ED7
:100BA0000123934043677047085402580059025884
:100BB00000090240014600208A69D2B98A6A32B12E
:100BC000012A0DD0022A03D0032A10D10EE000BF63
:100BD000CA6A02F08072B2F1807F00D1012007E082
:100BE000CA6AB2F1C07F00D1012001E000E000BF7D
:100BF00036E08A69B2F5005F1BD18A6A32B1012AF8
:100C000007D0022A03D0032A11D10AE000BF012035
:100C10000EE0CA6A02F08072B2F1807F00D101203A
:100C200006E0CA6AB2F1C07F00D1012000E000BF37
:100C300016E08A6A32B1012A05D0022A04D0032ABA
:100C40000CD103E000BF00BF012008E0CA6A02F037
:100C50008072B2F1807F00D1012000E000BF00BFB0
:100C600070470000F0B5846D856DD0E919767E601F
:100C7000C66E16B1D0E91C767E60574F0668BE423C
:100C800049D0554F18370668BE4244D0524F3037CE
:100C90000668BE423FD0504F48370668BE423AD041
:100CA0004D4F60370668BE4235D04B4F78370668E7
:100CB000BE4230D0484F90370668BE422BD0464FD8
:100CC000A8370668BE4226D0444F0668BE4222D0EE
:100CD000424F18370668BE421DD0404F3037066875
:100CE000BE4218D03D4F48370668BE4213D03B4F36
:100CF00060370668BE420ED0384F78370668BE426D
:100D000009D0364F90370668BE4204D0334FA8371B
:100D10000668BE4201D1012600E00026DEB190F84F
:100D20005C6006F01F073F26BE40A6600668366876
:100D300026F4802607683E60066873608668402E49
:100D400004D10668B2600668F16044E00668B160EC
:100D50000668F2603FE0224F0668BE4222D0204F74
:100D600014370668BE421DD01D4F28370668BE42A4
:100D700018D01B4F3C370668BE4213D0184F50376F
:100D80000668BE420ED0164F64370668BE4209D0D0
:100D9000134F78370668BE4204D0114F8C3706686F
:100DA000BE4201D1012600E00026A6B190F85C60A9
:100DB00006F01F070126BE406E60066873608668F5
:100DC000402E04D10668B2600668F16003E0066850
:100DD000B1600668F260F0BD1000024010040240ED
:100DE0000854025870477047704770477047704703
:100DF000704700002DE9F04399B004460E464FF0CD
:100E00000008306800B100BF00BF94F8500001280E
:100E100003D1022019B0BDE8F083012084F850000E
:100E200000BF47492068884202D14648009001E04F
:100E300000200090009850B9606D40F0200060657F
:100E400000BF002084F8500000BF0120E2E70098B6
:100E500008F005FB0746206808F001FB002861D177
:100E6000002F5FD136492068884203D03549206879
:100E7000884201D1344800E034480546306858B310
:100E8000A86820F4404071680843A8602C49206895
:100E9000884203D02B492068884201D12A4800E0CB
:100EA0002A482949884209D1254808F0C9FA8146CB
:100EB000244808F0C5FA49EA000002E0244808F096
:100EC000BFFA70BBB16830680843A96840F61F726A
:100ED00091430843A8602BE0A86820F44040A86034
:100EE00017492068884203D016492068884201D1FA
:100EF000154800E015481449884209D1104808F007
:100F00009FFA81460F4808F09BFA49EA000002E088
:100F10000F4808F095FA20B9A86840F61F71884379
:100F2000A86005E0606D40F0200060654FF00108AA
:100F300000BF002084F8500000BF40466AE7000070
:100F400000200240002102400023024000630258BA
:100F5000006002582DE9F84F04460D464FF0000A94
:100F60000020009094F83800012800D100E000BF74
:100F7000FA49E868884200D00EE0F94920688842C2
:100F800000D100BFF7492068884200D100BFF64970
:100F90002068884200D100BF00BF94F850000128AB
:100FA00002D10220BDE8F88F012084F8500000BF74
:100FB000206808F04FFA00287ED12068C1692868AF
:100FC000C0F3130018B92868C0F3846004E02868EF
:100FD00090FAA0F0B0FA80F000F01F0201209040DB
:100FE00001432068C1612168D5E9002001F1300C7E
:100FF000C0F3012B0CEB8B03D3F800C000F01F0EE5
:101000004FF01F0B0BFA0EFB2CEA0B0C00F01F0B22
:10101000C2F3846E0EFA0BFE4CEA0E0CC3F800C04D
:1010200000BF206808F016FA8146206808F0FEF933
:101030008046B9F1000F5BD1B8F1000F58D1AA6812
:101040002968206808F022FAC848006800F070405B
:10105000B0F1805F07D168692168C968C1F3820176
:101060004900884014E02068C06800F0100038B9DA
:1010700068692168C968C1F382014900884007E0B6
:1010800068692168C96801F0100189084900884031
:101090000746286904282CD020682A68296900F1AD
:1010A000600C0CEB8103D3F800C00CF0004C02F094
:1010B000F84B4BEA070B00E0B8E14CEA0B0CC3F825
:1010C00000C000BF20686A7E2969012A01D1D207C9
:1010D00000E00022134600F1600C0CEB8102D2F814
:1010E00000C02CF0004C4CEA030CC2F800C000BF5A
:1010F00037E02068006E00F0F8402978B0EB816F8F
:1011000005D12068006E20F0004021680866206844
:10111000406E00F0F8402978B0EB816F05D120686F
:10112000406E20F00040216848662068806E00F024
:10113000F8402978B0EB816F05D12068806E20F0EF
:101140000040216888662068C06E00F0F840297869
:10115000B0EB816F05D12068C06E20F0004021689F
:10116000C866206808F067F9002872D12068EA682C
:101170002968D0F8C030C1F3130C23EA0C0302F045
:10118000180BDFF8ECC12CFA0BFC0CEA010C43EA5B
:101190000C03C0F8C03000BF7049E86888427DD1B8
:1011A0002B68C3F313031BB92B68C3F3846304E0F8
:1011B0002B6893FAA3F3B3FA83F35B1C03F01F03CA
:1011C000092B3ED82B68C3F313031BB92B68C3F359
:1011D000846304E02B6893FAA3F3B3FA83F35B1CF4
:1011E00003F01F034FF0010C0CFA03FC2B68C3F350
:1011F00013031BB92B68C3F3846304E02B6893FAD1
:10120000A3F3B3FA83F35B1C03F01F034CEA836C74
:101210002B68C3F313031BB92B68C3F3846304E087
:101220002B6893FAA3F3B3FA83F35B1C03F01F0359
:1012300003EB43034FF0000B4BEA03534CEA030369
:1012400041E02B68C3F3130323B92B68C3F3846312
:1012500005E0ABE02B6893FAA3F3B3FA83F35B1CCE
:1012600003F01F034FF0010C0CFA03FC2B68C3F3CF
:1012700013031BB92B68C3F3846304E02B6893FA50
:10128000A3F3B3FA83F35B1C03F01F034CEA836CF4
:101290002B68C3F313032BB92B6800E018E0C3F3EA
:1012A000846304E02B6893FAA3F3B3FA83F35B1C23
:1012B00003F01F030A3B03EB43034FF0007B4BEAB1
:1012C00003534CEA03031946AA68206808F0DEF8C5
:1012D000286800F00040002868D0214A2168914227
:1012E00003D0204A2168914201D1224900E02249DD
:1012F0000846816801F0E07600BF194920688842FD
:1013000003D018492068884201D11A4800E01A48E1
:101310001849884209D1124808F08DF883461148CF
:1013200008F089F84BEA000002E00F4808F083F863
:10133000A0BB12492868884239D106F4000070BB6E
:1013400009492068884277D1054B22689A4203D028
:10135000044B22689A4213D1064A12E00000FF476C
:101360000020024000210240006002580010005C92
:10137000FFFF0F000023024000630258000084CBEF
:10138000314A104646F4000108F094F82F480068EE
:101390002F49B0FBF1F04000009004E03FE006E090
:1013A0000098401E009000980028F9D144E0294997
:1013B0002868884217D106F08070A0B926492068B5
:1013C000884239D1254B22689A4203D0244B2268A7
:1013D0009A4201D1234A00E01B4A104646F0807130
:1013E00008F068F828E020492868884224D106F4EB
:1013F000800008BB1849206888421DD1174B22681D
:101400009A4203D0164B22689A4201D1154A00E055
:101410000D4A104646F4800108F04CF80CE0606D6F
:1014200040F0200060654FF0010A05E0606D40F07B
:10143000200060654FF0010A00BF002084F85000D2
:1014400000BF5046AEE5000000630258A80100242A
:10145000400D0300000052C7006002580020024007
:1014600000210240002302400000B8CF70477047BF
:10147000704700002DE9F84F0446002000902068D6
:10148000056820684668CD4A2168914203D0CC4A5D
:101490002168914201D1CB4900E0CB49084607F0D1
:1014A000C0FF074605F00200022811D106F0020035
:1014B00002280DD1606D00F0100018B9606D40F485
:1014C000006060652046FFF78FFC022021680860FD
:1014D00005F00400042803D106F00400042807D016
:1014E00005F0080008285DD106F00800082859D149
:1014F000606D00F0100018B9606D40F40070606518
:10150000206807F0B1FF002846D0AD492068884226
:1015100001D1AA4800E020682168884204D01FB1A8
:10152000052F01D0092F03D12068D0F80C8009E0E5
:10153000A3492068884201D1A04800E02068834682
:10154000DBF80C8008F40050B0F5005F24D0206870
:10155000006800F0080008281ED1206807F07AFF14
:1015600090B92068406820F00C0021684860606DE8
:1015700020F480706065606D00F4805060B9606D2B
:1015800040F00100606507E0606D40F010006065AC
:10159000A06D40F00100A0652046FFF767FF0C201A
:1015A0002168086005F02000202803D106F0200003
:1015B000202807D005F04000402870D106F04000F8
:1015C00040286CD1606D00F0100018B9606D40F4D7
:1015D000005060652068C16C01F4C07109B9012137
:1015E00000E000218A4600BF206807F03DFF8146E9
:1015F00073492068884201D1704800E02068216862
:10160000884204D01FB1062F01D0072F03D12068D4
:10161000D0F80C8009E06A492068884201D1674807
:1016200000E020688346DBF80C80BAF1000F08D197
:1016300008F0007020BBB9F1000F2AD008F4005068
:10164000F0B92068006800F04000402821D108F47B
:101650000010A8B9206807F0E9FE90B9206840683A
:1016600020F0600021684860606D20F48050606563
:10167000606D00F4807018B9606D40F00100606525
:1016800007E0606D40F010006065A06D40F0010063
:10169000A0652046FFF7A9FB60202168086005F0DF
:1016A000800080280DD106F08000802809D1606D6F
:1016B00040F480306065204600F0CCF9802021683D
:1016C000086005F48070B0F5807F0FD106F480705B
:1016D000B0F5807F0AD1606D40F40030606520462F
:1016E000FFF785FB4FF480702168086005F40070F7
:1016F000B0F5007F0FD106F40070B0F5007F0AD17D
:10170000606D40F4802060652046FFF771FB4FF468
:1017100000702168086005F01000102833D106F031
:10172000100010282FD1206B10B90120009019E073
:101730008FB1224A2168914203D0214A2168914207
:1017400001D1204900E02049084607F065FE48B174
:101750000120009006E02068C06800F0030008B196
:1017600001200090009801280AD1606D40F480604B
:101770006065A06D40F00200A0652046FFF778FE8E
:1017800010202168086005F48060B0F5806F13D1E7
:1017900006F48060B0F5806F0ED1606D40F480403B
:1017A0006065A06D40F00800A0654FF4806021687E
:1017B00008602046FFF71AFBBDE8F88F00200240C2
:1017C0000021024000230240006302582DE9F84F37
:1017D00004464FF000090020009014B90120BDE834
:1017E000F88FE06818B1207F012800D100BF606D3C
:1017F00030B9204600F030F90020A06584F8500090
:1018000020688168C1F3407131B120688168864ADF
:101810001140816000BF00BF206807F016FEA0B92C
:1018200020688168814A114041F08051816000BF89
:101830007F4800687F49B0FBF1F0009002E000981B
:10184000401E009000980028F9D1206807F0FDFDA7
:1018500048B9606D40F010006065A06D40F0010077
:10186000A0654FF00109206807F0F4FD0646606DA1
:1018700000F0100000287DD1002EFCD1606D20F416
:10188000807040F002006065206807F0D4FD78BBEE
:1018900069492068884203D068492068884201D19C
:1018A000674800E067486649884209D1624807F006
:1018B000C2FD8246614807F0BEFD4AEA000002E030
:1018C000614807F0B8FD98B95B4B22689A4203D093
:1018D0005A4B22689A4201D1594A00E0594A1046AF
:1018E0006168826822F47C120A43826000BF00BFF4
:1018F00001F08AFD41F2030188420ED9A068102848
:101900000BD1607D216B41EA4030A168084340F073
:101910000C01207F41EA004508E0607D216B41EA2F
:101920004030A1680843217F40EA0145207F01281B
:1019300003D1208C401E45EA4045606A28B1A08C46
:1019400000F47870A16A084305432068C0683F49E5
:10195000084028432168C860206807F07BFD804666
:10196000206807F063FD0746B8F1000F3AD1CFBBFE
:10197000207D00E050E0E16A41EA80352068C068DF
:1019800044F20301884328432168C86094F8380072
:10199000012816D1606A08B1A06A00B900BFA08F03
:1019A000012141EA0041206C0843616C0843A16CAD
:1019B000084321680969264A1140084321680861E3
:1019C00005E02068006920F00100216808612068B6
:1019D000006920F07040616B08432168086120466F
:1019E000FEF7F6FDE068012809D12068006B20F0C1
:1019F0000F00A169491E08432168086305E02068BB
:101A0000006B20F00F0021680863606D20F0020079
:101A100040F00100606505E0606D40F01000606519
:101A20004FF001094846DAE6C0FFFF5FC0FFFF7FC5
:101A3000A8010024400D03000020024000210240C4
:101A400000230240006302580060025803C0F0FF08
:101A50001EF800FC7047000010B586B00446142143
:101A600001A8FEF742FD37492068884267D100BFD0
:101A70003548006840F02000334908600846006897
:101A800000F02000009000BF00BF00BF2E480830CB
:101A9000006840F004002C490831086008460068DE
:101AA00000F00400009000BF00BF00BF08460068BF
:101AB00040F0200008600846006800F02000009018
:101AC00000BF00BF1020019003200290002003906F
:101AD00001A91E4801F07CFB4FF400600190032037
:101AE00002900020039001A9194801F071FB1948E8
:101AF0001949086009204860002117488160C160C9
:101B00004FF480610161490041618900816149119F
:101B1000C161090201620021416201F011F808B1BE
:101B2000FFF761F900BF0C48E064846300BF002246
:101B30001146122002F052FA122002F03FFA06B0CB
:101B400010BD000000200240D8440258000802588E
:101B50000014025840000240B80300242DE9F0416F
:101B600004460F4690463F4A2168914203D03E4AC0
:101B70002168914201D13D4900E03D49084607F006
:101B800050FC0646206807F065FC002866D100BFBF
:101B900094F85000012802D10220BDE8F081012014
:101BA00084F8500000BF1EB1052E01D0092E4FD180
:101BB0002046FEF721FE0546002D44D1606D40F61B
:101BC0000161884340F4807060652749206888423D
:101BD00001D1244800E020682168884200D01EB965
:101BE000606D20F480106065606D00F4805020B15D
:101BF000A06D20F00600A06501E00020A0651D4852
:101C0000E16CC8631C48E16C08641C48E16CC86462
:101C10001C202168086000BF002084F8500000BF2D
:101C20002068406840F0100021684860226802F196
:101C3000400143463A46E06C01F040F90546206811
:101C400007F01CFC0BE000BF002084F8500006E009
:101C5000012500BF002084F8500000E0022528463E
:101C60009BE70000002002400021024000230240C8
:101C70000063025839070008E9070008CB0700088D
:101C800030B5024600230024087A012855D1444D7E
:101C90001068A84249D0424D18351068A84244D077
:101CA0003F4D30351068A8423FD03D4D4835106853
:101CB000A8423AD03A4D60351068A84235D0384D28
:101CC00078351068A84230D0354D90351068A8425C
:101CD0002BD0334DA8351068A84226D0314D10685E
:101CE000A84222D02F4D18351068A8421DD02D4D86
:101CF00030351068A84218D02A4D48351068A842DF
:101D000013D0284D60351068A8420ED0254D783587
:101D10001068A84209D0234D90351068A84204D01D
:101D2000204DA8351068A84201D1012000E0002014
:101D300000B100E000BF0B684C6892F83500012844
:101D400028D100BF92F83400012801D1022030BD13
:101D5000012082F8340000BF106E006820F481304A
:101D6000156E28601D068889401E45EAC040204344
:101D70000D7A40EA05404D7A40EA4520156E2D68FF
:101D8000EDB22843156E286000BF002082F83400B1
:101D900000BFDCE74FF4006050650120D7E700008A
:101DA000100002401004024070B504460CB9012036
:101DB00070BD94F83500022803D0802060650120B2
:101DC000F6E79F492068884249D09D49183120682C
:101DD000884244D09A493031206888423FD098499F
:101DE0004831206888423AD095496031206888425D
:101DF00035D0934978312068884230D0904990316D
:101E0000206888422BD08E49A8312068884226D08D
:101E10008C492068884222D08A491831206888423B
:101E20001DD0884930312068884218D08549483112
:101E30002068884213D083496031206888420ED0E0
:101E4000804978312068884209D07E4990312068E5
:101E5000884204D07B49A8312068884201D1012002
:101E600000E00020F0B3042084F8350074492068B5
:101E700088424BD0724918312068884246D0704958
:101E800030312068884241D06D494831206888420D
:101E90003CD06B4960312068884237D0684978313E
:101EA0002068884232D066499031206888422DD01F
:101EB0006349A8312068884228D062492068884256
:101EC00024D060491831206888421FD05D493031E4
:101ED000206888421AD05B4948312068884215D072
:101EE000584900E020E06031206888420ED0554912
:101EF00078312068884209D0524990312068884260
:101F000004D05049A8312068884206D12068006872
:101F100020F001002168086090E02068006820F04F
:101F200001002168086089E02068006820F00E0048
:101F30002168086042492068884249D040491831E8
:101F40002068884244D03E493031206888423FD0E2
:101F50003B494831206888423AD03949603120688D
:101F6000884235D0364978312068884230D03449AB
:101F70009031206888422BD03149A83120688842AE
:101F800026D030492068884222D02E491831206856
:101F900088421DD02B4930312068884218D0294909
:101FA00048312068884213D0264960312068884231
:101FB0000ED0244978312068884209D021499031D7
:101FC0002068884204D01F49A8312068884206D181
:101FD0002068006820F001002168086005E02068A2
:101FE000006820F0010021680860206E006820F47D
:101FF0008070216E0860A56D94F85C0000F01F01F0
:10200000012088406860D4E919104860E06E40B152
:10201000E06E006820F48070E16E0860D4E91C1066
:10202000486000BF002084F8340000BF012084F81D
:102030003500206D10B12046216D88470020B7E69D
:1020400010000240100402402DE9F84F0446002021
:102050000090FE4800684FF41651B0FBF1FAA66DEF
:10206000D4F858803768D8F80090F9492068884239
:1020700049D0F74918312068884244D0F4493031BA
:10208000206888423FD0F2494831206888423AD0DF
:10209000EF4960312068884235D0ED4978312068B9
:1020A000884230D0EA499031206888422BD0E849F4
:1020B000A8312068884226D0E6492068884222D08C
:1020C000E4491831206888421DD0E2493031206847
:1020D000884218D0DF4948312068884213D0DD4952
:1020E0006031206888420ED0DA4978312068884211
:1020F00009D0D84990312068884204D0D549A83108
:102100002068884201D1012000E0002000287DD015
:1021100094F85C0000F01F01082088403840002837
:1021200068D0CB492068884249D0C9491831206815
:10213000884244D0C6493031206888423FD0C449E3
:102140004831206888423AD0C149603120688842CD
:1021500035D0BF4978312068884230D0BC499031B1
:10216000206888422BD0BA49A8312068884226D0FE
:10217000B8492068884222D0B64918312068884280
:102180001DD0B44930312068884218D0B149483157
:102190002068884213D0AF496031206888420ED051
:1021A000AC4978312068884209D0AA49903120682A
:1021B000884204D0A749A8312068884204D1206809
:1021C000006800F0040003E02068006800F00800E8
:1021D00080B12068006820F004002168086094F84D
:1021E0005C0000F01F0108208840B060606D40F086
:1021F0000100606594F85C0000F01F010120884038
:102200003840E8B392492068884200E0B8E24BD0F9
:102210008F4918312068884246D08D493031206876
:10222000884241D08A494831206888423CD0884958
:1022300060312068884237D08549783120688842EB
:1022400032D083499031206888422DD08049A8310E
:102250002068884228D07F492068884224D07D4960
:102260001831206888421FD07A493031206888426E
:102270001AD0784948312068884215D0754900E065
:1022800026E06031206888420ED07249783120689B
:10229000884209D06F4990312068884204D06D4946
:1022A000A8312068884204D12068406900F080008D
:1022B00002E020680068002050B194F85C0000F053
:1022C0001F0101208840B060606D40F00200606531
:1022D00094F85C0000F01F01042088403840E8B307
:1022E0005B49206888424BD05949183120688842A0
:1022F00046D0574930312068884241D0544948314E
:10230000206888423CD0524960312068884237D0EA
:102310004F4978312068884232D04D499031206849
:1023200088422DD04A49A8312068884228D049499E
:102330002068884224D047491831206888421FD03D
:1023400044493031206888421AD0424948312068D7
:10235000884215D03F496031206800E024E088427F
:102360000ED03C4978312068884209D039499031F3
:102370002068884204D03749A8312068884204D1B7
:102380002068006800F0020002E020680068002079
:1023900050B194F85C0000F01F0104208840B06048
:1023A000606D40F00400606594F85C0000F01F016F
:1023B000102088403840E8B325492068884251D031
:1023C00023491831206888424CD021493031206897
:1023D000884247D01E4948312068884242D01C4973
:1023E0006031206888423DD01949783120688842A0
:1023F00038D0174990312068884233D01449A83129
:10240000206888422ED01349206888422AD011497A
:1024100018312068884225D00E4930312068884222
:1024200020D00C494831206888421BD009496031CE
:10243000206800E04DE0884214D0064978312068D9
:1024400088420FD003499031206805E0A80100249C
:102450001000024010040240884203D0FE49206868
:10246000884204D12068006800F0080003E020687A
:10247000006800F0040060B394F85C0000F01F01F5
:1024800010208840B0602068006800F4802080B18F
:102490002068006800F4002028B9206CC8B12046EC
:1024A000216C884715E0A06C98B12046A16C884744
:1024B0000FE02068006800F4807028B92068006888
:1024C00020F0080021680860206C10B12046216CC3
:1024D000884794F85C0000F01F01202088403840B5
:1024E00000287DD0DD492068884249D0DB49183179
:1024F0002068884244D0D9493031206888423FD092
:10250000D6494831206888423AD0D44960312068A1
:10251000884235D0D14978312068884230D0CF49BF
:102520009031206888422BD0CC49A831206888425D
:1025300026D0C949A8392068884221D0C649903997
:10254000206888421CD0C44978392068884217D056
:10255000C14960392068884212D0BF494839206893
:1025600088420DD0BC4930392068884208D0BA4929
:1025700018392068884203D0B7492068884204D1BE
:102580002068006800F0100003E02068006800F098
:10259000020028B394F85C0000F01F01202088405E
:1025A000B06094F8350004282DD12068006820F030
:1025B0001600216808602068406920F080002168CA
:1025C0004861206C08B9A06C28B12068006820F030
:1025D00008002168086094F85C0000F01F0100E02A
:1025E0003FE03F208840B06000BF002084F8340006
:1025F00000BF012084F83500206D10B12046216D08
:102600008847BDE8F88F2068006800F4802080B11A
:102610002068006800F4002028B9606C08B32046E8
:10262000616C88471DE0E06BD8B12046E16B8847BC
:1026300017E02068006800F4807068B920680068BE
:1026400020F010002168086000BF002084F83400EA
:1026500000BF012084F83500E06B10B12046E16B2B
:102660008847606D00287DD0606D00F00100E8B300
:10267000042084F835007949206888424BD0774996
:1026800018312068884246D0744930312068884229
:1026900041D072494831206888423CD06F4960314E
:1026A0002068884237D06D4978312068884232D01E
:1026B0006A499031206888422DD06849A831206845
:1026C000884228D06449A8392068884223D06249CA
:1026D0009039206888421ED05F4978392068884246
:1026E00019D05D4960392068884200E041E012D08D
:1026F00059494839206888420DD0574930392068F7
:10270000884208D0544918392068884203D0524979
:102710002068884206D12068006820F00100216806
:10272000086005E02068006820F00100216808606A
:1027300000BF0098401C0090504500D905E020687B
:10274000006800F001000028F3D100BF00BF0020A6
:1027500084F8340000BF2068006800F0010028B150
:10276000032000E00BE084F8350002E0012084F84B
:102770003500E06C002802D02046E16C8847D9E1A2
:1027800037492068884222D0354914312068884270
:102790001DD0334928312068884218D030493C3157
:1027A0002068884213D02E495031206888420ED0CC
:1027B0002B4964312068884209D029497831206842
:1027C000884204D026498C312068884201D10120FA
:1027D00000E000200028D2D02068056894F85C0052
:1027E00000F01F010420884000EA0900D0B305F082
:1027F0000400B8B394F85C0000F01F010420884086
:10280000C8F8040005F4004080B105F4803030B908
:10281000A06C0028B3D02046A16C88478AE1206CC8
:102820000028ACD02046216C884783E105F02000C9
:10283000F0BB0A492068884252D008491831206804
:1028400088424DD0054930312068884248D003493C
:1028500048312068884206E0B80402401000024077
:10286000085402584FE03BD0B3492068884237D023
:10287000B14918312068884232D0AF4930312068E0
:1028800088422DD0AC4948312068884228D0AB49D5
:102890002068884224D0A9491831206888421FD076
:1028A000A6493031206888421AD0A449483100E056
:1028B00023E02068884213D0A04960312068884214
:1028C0000ED09E4978312068884209D09B499031CA
:1028D0002068884204D09949A8312068884206D1EE
:1028E0002068006820F008002168086005E0206882
:1028F000006820F0040021680860206C10B32046B6
:10290000216C884716E194F85C0000F01F0102205A
:10291000884000EA0900E8B305F00200D0B394F85B
:102920005C0000F01F0102208840C8F8040005F494
:10293000004070B105F4803028B9606C10B12046B9
:10294000616C8847F6E0E06BF0B32046E16B8847A6
:10295000F0E005F02000C0BB77496039206888426C
:102960004DD0754948392068884248D0724930397D
:102970002068884243D070491839206888423ED088
:102980006D49206888423AD06B49183120688842E6
:1029900035D000E04EE068493031206888422ED0C2
:1029A000654948312068884229D0644920688842B6
:1029B00025D0624918312068884220D05F493031E3
:1029C000206888421BD001E06EE02DE05B49483171
:1029D0002068884213D059496031206888420ED05F
:1029E000564978312068884209D05449903120688E
:1029F000884204D05149A8312068884206D1206815
:102A0000006820F014002168086005E02068006874
:102A100020F00A002168086000BF002084F834001C
:102A200000BF012084F83500E06BE8B32046E16B7D
:102A300088477FE094F85C0000F01F010820884080
:102A400000EA090080B305F0080068B33A4960392C
:102A5000206888424AD0384948392068884245D0A1
:102A6000354930392068884240D0334918392068C8
:102A700088423BD030492068884237D02E491831EF
:102A80002068884232D02C493031206888422DD0CD
:102A9000294948312068884228D02849206888423E
:102AA00024D02649183100E044E0206888421DD037
:102AB000224930312068884218D0204948312068A6
:102AC000884213D01D496031206888420ED01B49CE
:102AD00078312068884209D01849903120688842AE
:102AE00004D01649A8312068884206D120680068C1
:102AF00020F01C002168086005E02068006820F0D4
:102B00000E002168086094F85C0000F01F010120AD
:102B10008840C8F804000120606500BF002084F8E8
:102B2000340000BF012084F83500E06C10B120466D
:102B3000E16C884700BF64E5700002401004024069
:102B40002DE9F041044600F065FC804614B90120EF
:102B5000BDE8F081D4492068884249D0D249183173
:102B60002068884244D0D0493031206888423FD024
:102B7000CD494831206888423AD0CB49603120683D
:102B8000884235D0C84978312068884230D0C6495B
:102B90009031206888422BD0C349A83120688842F0
:102BA00026D0C2492068884222D0C0491831206806
:102BB00088421DD0BD4930312068884218D0BB49B9
:102BC00048312068884213D0B84960312068884273
:102BD0000ED0B64978312068884209D0B349903187
:102BE0002068884204D0B149A8312068884201D1C8
:102BF000012000E00020002873D0606A00B100BF0F
:102C000000BF002084F8340000BF022084F83500A3
:102C1000A5492068884249D0A349183120688842D4
:102C200044D0A1493031206888423FD09E49483184
:102C3000206888423AD09C4960312068884235D06B
:102C4000994978312068884230D09749903120687E
:102C500088422BD09449A8312068884226D09349D5
:102C60002068884222D091491831206888421DD0BE
:102C70008E4930312068884218D08C49483120680C
:102C8000884213D089496031206888420ED0874934
:102C900078312068884209D0844990312068884280
:102CA00004D08249A8312068884206D12068006893
:102CB00020F001002168086005E02068006820F02D
:102CC0000100216808600DE000F0A4FBA0EB080003
:102CD000052807D920206065032084F835000120ED
:102CE00036E745E02068006800F001000028EBD1DD
:102CF000206805686E480540D4E90201084321694F
:102D0000084361690843A1690843E1690843216AEE
:102D100008430543606A042803D1D4E90B01084342
:102D20000543206805602068456925F00705606A4D
:102D30000543606A04280DD1A06A0543E06A48B1E2
:102D40002046FDF737FF28B140206065012084F858
:102D50003500FDE6206845612046FDF707FE064682
:102D600094F85C0000F01F013F208840B06073E0E1
:102D700050492068884222D04E4914312068884248
:102D80001DD04C4928312068884218D049493C312F
:102D90002068884213D047495031206888420ED0BD
:102DA000444964312068884209D04249783120681A
:102DB000884204D03F498C312068884201D10120EB
:102DC00000E00020F0B300BF002084F8340000BF12
:102DD000022084F835002068056837480540A0685F
:102DE000402801D1102105E0A068802801D1C1014F
:102DF00000E00021E06841EAD001206941EAD00109
:102E0000606941EAD001A06941EAD001E06941EA84
:102E1000D001206A41EA1010054320680560254969
:102E20002068401A1421B0FBF1F08000E0652046D4
:102E3000FDF79CFD074694F85C0000F01F0101209F
:102E4000884000E001E0786006E0402060650320F3
:102E500084F8350001207BE62046FDF7FDFDA068E3
:102E6000802801D1002060602079216E0860D4E9BB
:102E700019104860606860B16068082809D8204669
:102E8000FDF74CFE0020E16E0860D4E91C1048609C
:102E900003E00020E0662067606700206065012095
:102EA00084F83500002053E6100002401004024070
:102EB0003F8010FE085402580F00FEFF2DE9F0413C
:102EC00004460D4616461F464FF0000814B901206F
:102ED000BDE8F08100BF94F83400012801D1022040
:102EE000F6E7012084F8340000BF94F8350001288B
:102EF0007ED1022084F8350000206065A849206852
:102F0000884249D0A64918312068884244D0A44953
:102F10003031206888423FD0A1494831206888423A
:102F20003AD09F4960312068884235D09C49783139
:102F30002068884230D09A499031206888422BD04E
:102F40009749A8312068884226D09649206888424F
:102F500022D094491831206888421DD091493031DF
:102F60002068884218D08F4948312068884213D0A1
:102F70008C496031206888420ED08A4978312068B7
:102F8000884209D0874990312068884204D0854919
:102F9000A8312068884206D12068006820F001002E
:102FA0002168086005E02068006820F001002168C1
:102FB00008603B46324629462046FDF753FE7849D5
:102FC000206888424BD0764918312068884246D024
:102FD000734930312068884241D0714948312068B6
:102FE00088423CD06E4960312068884237D000E08A
:102FF000C9E06B4978312068884230D06849903107
:10300000206888422BD06649A8312068884226D0A3
:1030100064492068884222D0624918312068884279
:103020001DD0604930312068884218D05D49483150
:103030002068884213D05B496031206888420ED0F6
:10304000584978312068884209D056499031206823
:10305000884204D05349A8312068884201D1012018
:1030600000E0002080B12068006820F01E0040F0E1
:10307000160021680860206CB0B12068006840F03C
:103080000800216808600FE02068006820F00E004A
:1030900040F00A0021680860206C28B120680068B0
:1030A00040F0040021680860206E006800F4803061
:1030B00028B1206E006840F48070216E0860E06ED8
:1030C00028B1E06E006840F48070E16E0860344919
:1030D0002068884249D0324918312068884244D05B
:1030E0002F493031206888423FD02D49483120682F
:1030F00088423AD02A4960312068884235D0284930
:1031000078312068884230D0254990312068884243
:103110002BD02349A8312068884226D02149206835
:10312000884222D01F491831206888421DD01D498D
:1031300030312068884218D01A49483120688842C6
:1031400013D018496031206888420ED01549783173
:103150002068884209D0134990312068884204D001
:103160001049A8312068884206D12068006840F0E4
:1031700001002168086010E02068006840F001004C
:103180002168086009E000BF002084F8340000BF17
:103190004FF4006060654FF00108404698E600007B
:1031A000100002401004024070B5044600F032F9ED
:1031B00006462546681C10B104480078054400BF47
:1031C00000F028F9801BA842FAD370BDA4010024A6
:1031D000F8B502460023734DDEE001279F400E68DC
:1031E00006EA0704002C71D04E68022E02D04E6809
:1031F000122E13D1DF0802F1200656F827005E07D1
:10320000F70E0F26BE40B0435F07FF0E0E69BE40AB
:103210003043DF0802F1200646F8270010685F00FF
:103220000326BE40B0430E7906F003065F00BE40A1
:10323000304310604E68012E08D04E68022E05D033
:103240004E68112E02D04E68122E13D190685F0086
:103250000326BE40B0435F00CE68BE40304390605E
:10326000506801269E40B0430E79C6F300169E407A
:1032700030435060D0685F000326BE40B0435F001B
:103280008E68BE403043D0604E6806F08056B6F17E
:10329000805F1BD100BF444E366846F00206424FA5
:1032A0003E603E46366806F00206009600BF00BF4C
:1032B0003E4E9F0856F827009E07370F0F26BE4048
:1032C000B0433B4EB24202D100262EE063E0394EBD
:1032D000B24201D1012628E0374EB24201D1022686
:1032E00023E0364EB24201D103261EE0344EB242F4
:1032F00001D1042619E0334EB24201D1052614E073
:10330000314EB24201D106260FE0304EB24201D119
:1033100007260AE02E4EB24201D1082605E02D4EC6
:10332000B24201D1092600E00A269F073F0FBE40A6
:1033300030431E4E9F0846F827002868A0434E6879
:1033400006F48036B6F5803F00D1204328606868D7
:10335000A0434E6806F40036B6F5003F00D1204386
:1033600068604FF0B0463068A0434E6806F480169F
:10337000B6F5801F00D120434FF0B0463060706832
:10338000A0434E6806F40016B6F5001F00D1204396
:103390004FF0B04670605B1C0E68DE40002E7FF47C
:1033A0001CAFF8BD80000058F444025808040058CF
:1033B000000002580004025800080258000C02588D
:1033C000001002580014025800180258001C02583D
:1033D0000020025800240258024613690B400BB12A
:1033E000012000E00020704742690A408A4202D171
:1033F0000A04826100E0816170470AB1816101E0E5
:103400000B0483617047000001480068000C70479E
:103410000010005C01480068704700009C01002417
:10342000F8B504460CB90120F8BD0220C43404F8F4
:10343000030C002020606060A060E060206160619B
:10344000C43C207A00F0010008B335492068884266
:103450000DD100BF3348006840F00050314908608A
:103460000846006800F00050009000BF00BF2068D0
:10347000066826F44046208A00F44040064326F4BD
:103480004056A08A00F4405006432068066020465B
:1034900000F04AF8207A00F0020048B1206806687F
:1034A00026F44076A08900F4407006432068066048
:1034B000012084F8C10000BF002084F8C00000BFD4
:1034C000002529E00021C5EBC50204F1180040F8F1
:1034D0002210C5EBC50200EB82004160C5EBC502BE
:1034E00004F1180000EB82008160C5EBC50204F115
:1034F000180000EB8200C160C5EBC50204F11800A2
:1035000000EB82000161C5EBC50204F1180000EB7D
:1035100082008161681CC5B2052DD3D9002083E7E4
:1035200000740140F044025808B5094A016891420C
:103530000DD100BF0749096841F00051054A1160EB
:103540001146096801F00051009100BF00BF08BD9D
:1035500000740140F044025810B586B004461421AE
:1035600001A8FCF7C2FF1F492068884238D100BF7C
:103570001D48006840F004001B49086008460068C8
:1035800000F00400009000BF00BF00BF08460068C4
:1035900040F0010008600846006800F0010000905B
:1035A00000BF00BF4FF4A0700190022002900020E5
:1035B0000390032004900120059001A90B48FFF718
:1035C00007FE4FF4A05001900220029000200390CB
:1035D000032004900220059001A90548FFF7F8FD9B
:1035E00006B010BD00740140E044025800080258C3
:1035F0000000025870B504460D46164694F8C10006
:10360000022800D170BD022084F8C100052D04D12C
:103610003146204605F017FA04E032462946204696
:1036200005F0CCFA012084F8C1000020EAE730B5AB
:10363000044694F8C100022800D130BD00BF94F8C0
:10364000C000012801D10220F7E7012084F8C00062
:1036500000BF022084F8C100052928D1012A06D024
:10366000022A08D0042A0AD0082A10D10BE01868D0
:103670002568E86114E018682568686210E0186839
:103680002568A8620CE018682568E86208E0072051
:1036900084F8C10000BF002084F8C00000BF00BF54
:1036A00000BF94F8C10007287AD10120C5E7012A9C
:1036B00006D0022A0BD0042A3FD0082A7DD143E04D
:1036C0001D682068803000EBC110C5617EE01D6878
:1036D0002068803000EBC1104562586808B320684C
:1036E000803000EBC110006820F440552068803025
:1036F00000EBC11005602068803000EBC11000684D
:103700005D6828432568803505EBC1152860586839
:10371000B0F5005F06D19D682068803000EBC110D5
:10372000C56109E05868B0F5405F05D19D68206823
:10373000803000EBC110856248E01D682068803051
:1037400000EBC110856241E01D682068803000EB0D
:10375000C110C562586810B32068803000EBC110FA
:10376000006820F440452068803000EBC1100560FF
:103770002068803000EBC11000685D6840EA850574
:103780002068803000EBC11005605868B0F5005F1C
:1037900008D19D682068803000EBC110C5610BE046
:1037A0001BE00AE05868B0F5405F05D19D682068CD
:1037B000803000EBC110856208E0072084F8C1006A
:1037C00000BF002084F8C00000BF00BF00BF94F815
:1037D000C100072801D101202FE7012084F8C10092
:1037E00000BF002084F8C00000BF00BF25E70246EC
:1037F00000BF92F8C000012801D1022070470120CB
:1038000082F8C00000BF022082F8C1001068006882
:10381000084313681860012082F8C10000BF00202F
:1038200082F8C00000BF00BFE8E72DE9F041044680
:103830000D4616461F4694F8C100022801D1BDE886
:10384000F08100BF94F8C000012801D10220F6E702
:10385000012084F8C00000BF022084F8C1003B466C
:1038600032462946204605F030F9012084F8C1008F
:1038700000BF002084F8C00000BF00BFDFE70246A1
:1038800000BF92F8C000012801D10220704701203A
:1038900082F8C00000BF022082F8C1001068D0F892
:1038A000940308431368C3F89403012082F8C1000D
:1038B00000BF002082F8C00000BF00BFE6E770B57F
:1038C00004460D46164694F8C100022800D170BD8A
:1038D00000BF94F8C000012801D10220F7E70120C1
:1038E00084F8C00000BF022084F8C100052D04D177
:1038F0003146204605F0BBF804E032462946204612
:1039000005F07CF9C5EBC50204F1180000EB82005C
:1039100031688160C5EBC50204F1180000EB82003C
:103920007168C160C5EBC50204F1180000EB8200AC
:10393000B1680161C5EBC50204F1180000EB82001B
:10394000F1684161C5EBC50204F1180000EB82008B
:10395000316981612946204605F035F8012084F857
:10396000C10000BF002084F8C00000BF00BFAEE768
:10397000024692F8410020282DD100BF92F8400065
:10398000012801D102207047012082F8400000BFC9
:10399000242082F841001068006820F001001368BC
:1039A00018601068006820F4805013681860106870
:1039B00000680843136818601068006840F0010050
:1039C00013681860202082F8410000BF002082F8B0
:1039D000400000BFD7E70220D5E710B502460B46EE
:1039E00092F8410020282AD100BF92F84000012817
:1039F00001D1022010BD012082F8400000BF242028
:103A000082F841001068006820F00100146820600E
:103A10001068016821F4706141EA032110680160B7
:103A20001068006840F0010014682060202082F8CF
:103A3000410000BF002082F8400000BFDAE702200A
:103A4000D8E7000010B504460CB9012010BD94F869
:103A5000410028B9002084F84000204600F024F9F5
:103A6000242084F841002068006820F001002168CB
:103A70000860606820F070602168086120688068D4
:103A800020F4004021688860E068012805D1A06822
:103A900040F400402168886004E0A06840F40440DD
:103AA00021688860E068022802D1800221684860AD
:103AB0002068406813490843216848602068C0684E
:103AC00020F400402168C860D4E904010843A169DA
:103AD00040EA01202168C860D4E907010843216851
:103AE00008602068006840F001002168086000203C
:103AF0006064202084F841000020206384F84200A4
:103B000000BFA3E7008000022DE9FC5F0446894660
:103B100092469B46DDE90C780E9E94F841002028E1
:103B20007ED117B1B8F1000F05D14FF40070606479
:103B30000120BDE8FC9F00BF94F84000012801D19E
:103B40000220F6E7012084F8400000BFFFF762FC86
:103B5000054619230122D1032046009505F0FAF904
:103B600008B10120E5E7222084F84100402084F8D4
:103B70004200002060646762A4F82A8060635B46AC
:103B8000524649462046CDE9006505F08BF930B133
:103B900000BF002084F8400000BF0120C9E7608D0D
:103BA000FF280CD9FF2020853D48009094F828205C
:103BB0004FF080734946204605F0B2F90BE0608D66
:103BC00020853748009094F828204FF0007349462C
:103BD000204605F0A5F900BF334600220421204607
:103BE000009505F0B7F908B10120A2E72068406A06
:103BF000616A0870606A401C6062208D401E2085EA
:103C0000608D401E6085608D48B3208D38BB334683
:103C1000002280212046009505F09CF918B100E0B3
:103C20003CE0012085E7608DFF280CD9FF2020852E
:103C30000020009094F828204FF0807349462046D9
:103C400005F06EF90BE0608D20850020009094F85F
:103C500028204FF000734946204605F061F9608D39
:103C60000028B9D12A463146204605F0A2F908B10C
:103C700001205EE720202168C8612068406809496A
:103C8000084021684860202084F84100002084F822
:103C9000420000BF84F8400000BF4AE7022048E726
:103CA0000024008000E800FE10B586B00446142110
:103CB00001A8FCF71AFC7A49206888422AD100BF83
:103CC0007848006840F0200076490860084600689F
:103CD00000F02000009000BF00BF032001901220E0
:103CE00002900020039004900420059001A96E48E2
:103CF000FFF76EFA00BF6B480830006840F48000A0
:103D00006849083108600846006800F480000090A7
:103D100000BFC2E06549206888427DD100BF61488C
:103D2000006840F004005F4908600846006800F041
:103D30000400009000BF00BF00BF0846006840F0CC
:103D4000010008600846006800F00100009000BF14
:103D500000BF4FF4007001901220029000200390E9
:103D600004900420059001A95148FFF731FA4FF45F
:103D70008070019012200290002003900490042093
:103D8000059001A94B48FFF723FA00BF45480830CA
:103D9000006840F4000043490831086008460068A4
:103DA00000F40000009000BF00BF43484349086092
:103DB0004A2048604021414881600021C1604FF4A1
:103DC00080610161002141618161C1610162042161
:103DD0004162032181620021C1620163FEF7B0FEEE
:103DE00008B1FDF700F800BF3448A063846300BF4A
:103DF0003148183032490860492048600021304875
:103E00008160C1604FF48061016100214161816185
:103E1000C1610162042100E00FE04162032181627F
:103E20000021C1620163FEF78BFE08B1FCF7DBFFE6
:103E300000BF2348E06384632FE022492068884262
:103E40002BD100BF1748006840F0200015490860DA
:103E50000846006800F02000009000BF00BF4FF44B
:103E60004040019012200290002003900490042012
:103E7000059001A90C48FFF7ABF900BF09481430C1
:103E8000006840F080000749143108600846006867
:103E900000F08000009000BF00BF06B010BD000021
:103EA00000580040E044025800140258005C0040F2
:103EB000000802580000025810000240F0050024DB
:103EC00068060024001C005803480068034909786C
:103ED00008440149086070479C010024A4010024A3
:103EE00010B5032000F0B8F801F042FD1049096850
:103EF000C1F303210F4A515C01F01F01C8400E4974
:103F000008600B48006800F00F001146085C00F0E4
:103F10001F0109480068C84008490860002000F0F7
:103F20000FF808B1012010BD00F036F80020FAE7C4
:103F30001844025824D70008A8010024AC0100242A
:103F400070B504461148007808B9012070BD0F48CB
:103F500000784FF47A71B1FBF0F00D490968B1FBBC
:103F6000F0F5284603F005FA08B10120EEE7102C21
:103F700007D200222146501E00F030F805480460A8
:103F800001E00120E2E70020E0E70000A4010024B6
:103F9000A8010024A001002408B500BF064800685D
:103FA00040F00200044908600846006800F0020082
:103FB000009000BF00BF08BDF44402580146084607
:103FC000002809DB00F01F0301229A4043099B00EF
:103FD00003F1E023C3F8002100BF70472DE9F05F33
:103FE00080460D46164608F0CDFD074639462A465E
:103FF000334601F00700C0F1070ABAF1040F02D9F5
:104000004FF0040A01E0C0F1070AD14600F1040AAA
:10401000BAF1070F02D24FF0000A01E0A0F1030A43
:10402000D4464FF0010A0AFA09FAAAF1010A0AEA8B
:10403000020A0AFA0CFA4FF0010B0BFA0CFBABF177
:10404000010B0BEA030B4AEA0B042146404608F039
:10405000A1FDBDE8F09F000000BF00F00702064B85
:1040600019684FF6FF031940044B0B4343EA022142
:10407000014B196000BF70470CED00E00000FA052D
:1040800070B504461548006800F00400042807D005
:104090001248006800F00700A04201D0012070BD66
:1040A0000E48006820F0070020430C490860FFF725
:1040B000B1F9054607E0FFF7ADF9401BB0F57A7F8F
:1040C00001D90320EBE705480838006800F40050E8
:1040D000B0F5005FEFD10020E1E700000C48025886
:1040E00010B501F045FC07490968C1F30321064AF0
:1040F000515C01F01F01C84004490860084600688F
:1041000010BD00001844025824D70008A80100245C
:1041100010B501F0F1FB05490968C1F30211044A29
:10412000515C01F01F01C84010BD0000204402583E
:1041300024D7000870B50146844D2D6805F00303AF
:10414000824D2D68C5F30510804D2D1D2D6805F09D
:1041500001047E4D0C352D68C5F3CC0515FB04F527
:1041600001EE105AB8EE411AF0EE410A00286FD065
:1041700023B1012B4ED0022B6BD16BE0734D283D48
:104180002D68C5F340153DB3704D283D2D68C5F32E
:10419000C1066F4D25FA06F201EE102AF8EE411A1B
:1041A00001EE100AB8EE411A81EE812A9FED691ADC
:1041B000C0EE811A654D08352D68C5F3080501EE7E
:1041C000105AB8EE411A31EE811AF7EE001A31EEAC
:1041D000211A22EE010A1CE001EE100AB8EE411A83
:1041E000DFED5D1A81EE812A9FED5A1AC0EE811A29
:1041F000564D08352D68C5F3080501EE105AB8EE86
:10420000411A31EE811AF7EE001A31EE211A22EE30
:10421000010A5BE001EE100AB8EE411ADFED4F1A19
:1042200081EE812A9FED4B1AC0EE811A474D083569
:104230002D68C5F3080501EE105AB8EE411A31EEAB
:10424000811AF7EE001A31EE211A22EE010A3DE042
:1042500077E01DE001EE100AB8EE411A9FED402A0A
:10426000C2EE011A9FED3B1A80EE812A374D0835C8
:104270002D68C5F3080501EE105AB8EE411A32EE6A
:10428000011AB7EE002A31EE021A21EE810A1DE072
:1042900001EE100AB8EE411ADFED301A81EE812AE4
:1042A0009FED2C1AC0EE811A284D08352D68C5F3F4
:1042B000080501EE105AB8EE411A31EE811AF7EEF8
:1042C000001A31EE211A22EE010A00BF00BF1F4D75
:1042D00008352D68C5F3462501EE105AB8EE411A8F
:1042E000F7EE001A31EE211AC0EE011ABCEEE11A07
:1042F00081ED001A154D08352D68C5F3064501EE10
:10430000105AB8EE411AF7EE001A31EE211AC0EE3B
:10431000011ABCEEE11A81ED011A0C4D08352D6829
:10432000C5F3066501EE105AB8EE411AF7EE001A11
:1043300031EE211AC0EE011ABCEEE11A81ED021A2B
:1043400003E000250D604D608D6070BD284402586B
:104350000090D003000000460024744C0024744AEE
:104360000024F44A70B50146844D2D6805F003031E
:10437000824D2D68C5F30530804D2D1D2D6805F04B
:1043800010047E4D14352D68C5F3CC0515FB04F5DE
:1043900001EE105AB8EE411AF0EE410A00286FD033
:1043A00023B1012B4ED0022B6BD16BE0734D283D16
:1043B0002D68C5F340153DB3704D283D2D68C5F3FC
:1043C000C1066F4D25FA06F201EE102AF8EE411AE9
:1043D00001EE100AB8EE411A81EE812A9FED691AAA
:1043E000C0EE811A654D10352D68C5F3080501EE44
:1043F000105AB8EE411A31EE811AF7EE001A31EE7A
:10440000211A22EE010A1CE001EE100AB8EE411A50
:10441000DFED5D1A81EE812A9FED5A1AC0EE811AF6
:10442000564D10352D68C5F3080501EE105AB8EE4B
:10443000411A31EE811AF7EE001A31EE211A22EEFE
:10444000010A5BE001EE100AB8EE411ADFED4F1AE7
:1044500081EE812A9FED4B1AC0EE811A474D10352F
:104460002D68C5F3080501EE105AB8EE411A31EE79
:10447000811AF7EE001A31EE211A22EE010A3DE010
:1044800077E01DE001EE100AB8EE411A9FED402AD8
:10449000C2EE011A9FED3B1A80EE812A374D10358E
:1044A0002D68C5F3080501EE105AB8EE411A32EE38
:1044B000011AB7EE002A31EE021A21EE810A1DE040
:1044C00001EE100AB8EE411ADFED301A81EE812AB2
:1044D0009FED2C1AC0EE811A284D10352D68C5F3BA
:1044E000080501EE105AB8EE411A31EE811AF7EEC6
:1044F000001A31EE211A22EE010A00BF00BF1F4D43
:1045000010352D68C5F3462501EE105AB8EE411A54
:10451000F7EE001A31EE211AC0EE011ABCEEE11AD4
:1045200081ED001A154D10352D68C5F3064501EED5
:10453000105AB8EE411AF7EE001A31EE211AC0EE09
:10454000011ABCEEE11A81ED011A0C4D10352D68EF
:10455000C5F3066501EE105AB8EE411AF7EE001ADF
:1045600031EE211AC0EE011ABCEEE11A81ED021AF9
:1045700003E000250D604D608D6070BD2844025839
:104580000090D003000000460024744C0024744ABC
:104590000024F44A70B50146844D2D6805F00303EC
:1045A000824D2D68C5F30550804D2D1D2D6805F4F5
:1045B00080747E4D1C352D68C5F3CC0515FB04F5C4
:1045C00001EE105AB8EE411AF0EE410A00286FD001
:1045D00023B1012B4ED0022B6BD16BE0734D283DE4
:1045E0002D68C5F340153DB3704D283D2D68C5F3CA
:1045F000C1066F4D25FA06F201EE102AF8EE411AB7
:1046000001EE100AB8EE411A81EE812A9FED691A77
:10461000C0EE811A654D18352D68C5F3080501EE09
:10462000105AB8EE411A31EE811AF7EE001A31EE47
:10463000211A22EE010A1CE001EE100AB8EE411A1E
:10464000DFED5D1A81EE812A9FED5A1AC0EE811AC4
:10465000564D18352D68C5F3080501EE105AB8EE11
:10466000411A31EE811AF7EE001A31EE211A22EECC
:10467000010A5BE001EE100AB8EE411ADFED4F1AB5
:1046800081EE812A9FED4B1AC0EE811A474D1835F5
:104690002D68C5F3080501EE105AB8EE411A31EE47
:1046A000811AF7EE001A31EE211A22EE010A3DE0DE
:1046B00077E01DE001EE100AB8EE411A9FED402AA6
:1046C000C2EE011A9FED3B1A80EE812A374D183554
:1046D0002D68C5F3080501EE105AB8EE411A32EE06
:1046E000011AB7EE002A31EE021A21EE810A1DE00E
:1046F00001EE100AB8EE411ADFED301A81EE812A80
:104700009FED2C1AC0EE811A284D18352D68C5F37F
:10471000080501EE105AB8EE411A31EE811AF7EE93
:10472000001A31EE211A22EE010A00BF00BF1F4D10
:1047300018352D68C5F3462501EE105AB8EE411A1A
:10474000F7EE001A31EE211AC0EE011ABCEEE11AA2
:1047500081ED001A154D18352D68C5F3064501EE9B
:10476000105AB8EE411AF7EE001A31EE211AC0EED7
:10477000011ABCEEE11A81ED011A0C4D18352D68B5
:10478000C5F3066501EE105AB8EE411AF7EE001AAD
:1047900031EE211AC0EE011ABCEEE11A81ED021AC7
:1047A00003E000250D604D608D6070BD2844025807
:1047B0000090D003000000460024744C0024744A8A
:1047C0000024F44A2DE9F04189B00746B7F5807F0F
:1047D00032D1B448006800F00706052E29D2DFE880
:1047E00006F003080D26120006A8FFF7A3FC079C9D
:1047F00021E003A8FFF7B6FD039C1CE06846FFF725
:10480000C9FE009C17E0A748001F006800F0405553
:104810000DB9A54C0AE0B5F1805F01D1A34C05E0CC
:10482000B5F1005F01D1A24C00E0002403E0A14CEF
:1048300001E0002400BF30E1B7F5007F38D199488E
:10484000006800F4E076802E14D003DC46B1402EE0
:104850002BD10AE0C02E26D0B6F5807F25D10EE000
:1048600006A8FFF767FC079C21E003A8FFF77AFD85
:10487000039C1CE06846FFF78DFE009C17E089480A
:10488000001F006800F040550DB9874C0AE0B5F1F3
:10489000805F01D1854C05E0B5F1005F01D1844C0A
:1048A00000E0002403E0834C01E0002400BFF4E0BA
:1048B000B7F5806F3CD17B480830006800F4600693
:1048C000B6F5800F16D004DC56B1B6F5001F2CD11A
:1048D0000BE0B6F5C00F26D0B6F5000F25D10EE0DF
:1048E00006A8FFF727FC079C21E003A8FFF73AFD85
:1048F000039C1CE06846FFF74DFE009C17E06948EA
:10490000001F006800F040550DB9674C0AE0B5F192
:10491000805F01D1654C05E0B5F1005F01D1644CC9
:1049200000E0002403E0634C01E0002400BFB4E099
:10493000B7F5006F3CD15B480830006800F0E066D6
:10494000B6F1007F16D004DC56B1B6F1807F2CD1D1
:104950000BE0B6F1407F26D0B6F1806F25D10EE096
:1049600006A8FFF7E7FB079C21E003A8FFF7FAFC86
:10497000039C1CE06846FFF70DFE009C17E04948C9
:10498000001F006800F040550DB9474C0AE0B5F132
:10499000805F01D1454C05E0B5F1005F01D1444C89
:1049A00000E0002403E0434C01E0002400BF74E079
:1049B000B7F5805F3DD13B48006800F4E048B8F5AA
:1049C000005F18D006DCB8F1000F0AD0B8F5805FA0
:1049D0002CD10BE0B8F5405F26D0B8F5804F25D13B
:1049E0000EE006A8FFF7A6FB079C21E003A8FFF74F
:1049F000B9FC039C1CE06846FFF7CCFD009C17E067
:104A00002848001F006800F040550DB9264C0AE008
:104A1000B5F1805F01D1254C05E0B5F1005F01D112
:104A2000234C00E0002403E0224C01E0002400BFFE
:104A300033E0B7F5002F2FD11A480830006800F492
:104A40004038B8F1000F06D0B8F5803F08D0B8F56F
:104A5000003F1ED109E003A8FFF784FC039C1AE085
:104A60006846FFF797FD029C15E00E48001F00689E
:104A700000F040550DB90C4C0AE0B5F1805F01D152
:104A80000A4C05E0B5F1005F01D1094C00E00024BB
:104A900001E0002400BF00E00024204609B0BDE88A
:104AA000F0810000504402580090D00300093D00FE
:104AB00000127A000080BB002DE9F0410446002579
:104AC000A846206800F00060B0F1006F30D1606E41
:104AD00048B1B0F5801F0DD0B0F5001F10D0B0F573
:104AE000401F15D113E0F948006840F40030F74941
:104AF00008600FE00221201D05F0D0FC054609E00A
:104B0000022104F1240005F07BFD054602E001E0EE
:104B1000012500BF00BF55B9EC482430006820F4DF
:104B20004010616E0843E9492431086000E0A8465E
:104B3000208800F48070B0F5807F2DD1606D05284D
:104B40001AD2DFE800F0030A10171800DF480068E7
:104B500040F40030DD49086010E00021201D05F020
:104B60009DFC05460AE0002104F1240005F048FD03
:104B7000054603E002E001E0012500BF00BF55B992
:104B8000D2482430006820F00700616D0843CF4907
:104B90002431086000E0A846208800F40070B0F5D9
:104BA000007F33D1A06D802817D003DC40B14028AE
:104BB0001CD10CE0C02817D0B0F5807F16D114E0CE
:104BC000C248006840F40030C049086010E000218D
:104BD000201D05F063FC05460AE0002104F12400D5
:104BE00005F00EFD054603E002E001E0012500BFEF
:104BF00000BF55B9B5482430006820F4E070A16DBD
:104C00000843B2492431086000E0A846208800F437
:104C10008060B0F5806F38D1D4F8A400B0F5800F73
:104C200019D004DC50B1B0F5001F1DD10DE0B0F576
:104C3000C00F17D0B0F5000F16D114E0A3480068DC
:104C400040F40030A149086010E00021201D05F06B
:104C500025FC05460AE0002104F1240005F0D0FC03
:104C6000054603E002E001E0012500BF00BF5DB999
:104C700096482C30006820F46000D4F8A410084353
:104C800092492C31086000E0A846208800F40060BA
:104C9000B0F5006F38D1D4F8A800B0F1007F19D07A
:104CA00004DC50B1B0F1807F1DD10DE0B0F1407F48
:104CB00017D0B0F1806F16D114E08448006840F43A
:104CC00000308249086010E00021201D05F0E6FB5D
:104CD00005460AE0002104F1240005F091FC054698
:104CE00003E002E001E0012500BF00BF5DB97748A5
:104CF0002C30006820F0E060D4F8A8100843734915
:104D00002C31086000E0A846206800F00070B0F187
:104D1000007F27D1A06CA0B1102804D0202809D092
:104D200030280FD10CE06948006840F40030674932
:104D3000086009E00221201D05F0B0FB054603E0F4
:104D400002E001E0012500BF00BF55B95F482030F7
:104D5000006820F03000A16C08435C4920310860F5
:104D600000E0A846208800F48050B0F5805F36D17E
:104D7000E06DB0F5005F19D004DC50B1B0F5805F94
:104D80001DD10DE0B0F5405F17D0B0F5804F16D1C2
:104D900014E04E48006840F400304C49086010E0D0
:104DA0000021201D05F07AFB05460AE0002104F1F0
:104DB000240005F025FC054603E002E001E00125A2
:104DC00000BF00BF55B941482430006820F4E040DE
:104DD000E16D08433D492431086000E0A846208881
:104DE00000F40050B0F5005F34D1206EB0F5403FC4
:104DF0001DD007DC68B1B0F5803F0BD0B0F5003FA7
:104E000018D10DE0B0F5802F12D0B0F5A02F11D140
:104E10000FE011E00121201D05F040FB05460BE0ED
:104E2000012104F1240005F0EBFB054604E003E05A
:104E300002E001E0012500BF00BF55B9234824303E
:104E4000006820F4E020216E0843204924310860E6
:104E500000E0A846208800F48040B0F5804F38D1AB
:104E6000D4F8AC00B0F1405F1DD007DC68B1B0F100
:104E7000805F0BD0B0F1005F18D10DE0B0F1804F32
:104E800012D0B0F1A04F11D10FE011E00121201D8F
:104E900005F004FB05460BE0012104F1240005F0B8
:104EA000AFFB054604E003E002E001E0012500BF9E
:104EB00000BF6DB905482C30006820F0E040D4F800
:104EC000AC10084301492C31086002E02C44025820
:104ED000A846208800F40040B0F5004F26D1E06ECF
:104EE00098B1B0F1805F03D0B0F1005F0ED106E061
:104EF000F948006840F40030F749086008E00121F3
:104F0000201D05F0CBFA054602E001E0012500BFB7
:104F100000BF55B9F0482430006820F04050E16EE1
:104F20000843ED492431086000E0A846206800F0FD
:104F30008070B0F1807F27D1606CA0B1012804D0CF
:104F4000022809D003280FD10CE0E348006840F4A0
:104F50000030E149086009E00221201D05F09EFAB9
:104F6000054603E002E001E0012500BF00BF55B99E
:104F7000D9482030006820F00300616C0843D6490E
:104F80002031086000E0A846206800F48000B0F5F9
:104F9000800F7DD1D148006840F48070CF4908600F
:104FA000FEF738FA064606E0FEF734FA801B64285E
:104FB00001D9032505E0C948006800F48070002885
:104FC000F2D000BF85BBC4484430006800F4407094
:104FD000B4F8B01001F44071884213D0BE48443098
:104FE000006820F44077BC484430006840F48030CA
:104FF000B949443108600846006820F480300860F0
:1050000008460760D4F8B000B0F5807F15D1FEF7F0
:1050100001FA064609E0FEF7FDF9801B41F28831EE
:10502000884202D9032507E038E0AB4844300068E5
:10503000C0F340000028EED000BF55BB00BFB4F85D
:10504000B00000F44070B0F5407F0ED1A2481C388B
:10505000006820F47C51A24AD4F8B000104041EA24
:1050600010109D491C39086007E09B481C380068F7
:1050700020F47C5098491C390860974844300068F7
:10508000B4F8B010C1F30B0108439349443101E077
:1050900005E001E0086002E0A84600E0A8462078AC
:1050A00000F0010068B3A06F182819D005DC48B1E2
:1050B000082808D0102816D10BE0202811D0282865
:1050C00011D10FE011E00121201D05F0E7F905469F
:1050D0000BE0012104F1240005F092FA054604E0FA
:1050E00003E002E001E0012500BF00BF55B97A48A6
:1050F0002830006820F03800A16F08437649283135
:10510000086000E0A846207800F00200022828D1BC
:10511000606F062815D2DFE800F003040A111213AD
:1051200011E00121201D05F0B9F905460BE0012130
:1051300004F1240005F064FA054604E003E002E00F
:1051400001E0012500BF00BF55B963482830006861
:1051500020F00700616F08435F492831086000E0D4
:10516000A846207800F0040004282AD1D4F8900042
:10517000062815D2DFE800F003040A11121311E02B
:105180000121201D05F08AF905460BE0012104F1FB
:10519000240005F035FA054604E003E002E001E0F2
:1051A000012500BF00BF5DB94B482C30006820F0DE
:1051B0000700D4F89010084347492C31086000E0FC
:1051C000A846207800F02000202836D1D4F88C00A2
:1051D000B0F1405F1DD007DC68B1B0F1805F0BD04B
:1051E000B0F1005F18D10DE0B0F1804F12D0B0F1F6
:1051F000A04F11D10FE011E00021201D05F04EF964
:1052000005460BE0022104F1240005F0F9F90546FA
:1052100004E003E002E001E0012500BF00BF5DB94A
:105220002D482830006820F0E040D4F88C10084366
:1052300029492831086000E0A846207800F04000A5
:10524000402836D1D4F89800B0F5406F1DD007DC67
:1052500068B1B0F5806F0BD0B0F5006F18D10DE0DC
:10526000B0F5805F12D0B0F5A05F11D10FE011E072
:105270000021201D05F012F905460BE0022104F182
:10528000240005F0BDF9054604E003E002E001E07A
:10529000012500BF00BF5DB90F482C30006820F425
:1052A000E050D4F8981008430B492C31086000E016
:1052B000A846207800F0800080283AD1D4F89C00DD
:1052C000B0F5C04F23D00DDC98B1B0F5005F11D020
:1052D000B0F5804F1ED113E02C440258004802580C
:1052E000FFFCFF0FB0F5004F12D0B0F5204F11D1E9
:1052F0000FE011E00021201D05F0D0F805460BE07D
:10530000022104F1240005F07BF9054604E003E0E6
:1053100002E001E0012500BF00BF4DB9B6480068BA
:1053200020F46040D4F89C100843B349086000E0C2
:10533000A846207800F00800082818D1D4F880008A
:10534000B0F5805F08D1022104F1240005F058F97E
:1053500068B14FF001080AE0A748001F006820F478
:105360004050D4F880100843A349091F08602078F2
:1053700000F01000102816D1D4F89400B0F5807F0A
:1053800008D1022104F1240005F03AF958B14FF098
:10539000010808E09848006820F44070D4F89410A0
:1053A000084395490860206800F40020B0F5002FFC
:1053B00026D1D4F8A00030B1B0F5803F09D0B0F5C7
:1053C000003F0ED10CE00021201D05F067F80546D6
:1053D00009E0022104F1240005F012F9054602E07B
:1053E00001E0012500BF00BF4DB98348006820F4EB
:1053F0004030D4F8A01008437F49086000E0A84678
:10540000206800F48020B0F5802F2DD1D4F88400DE
:10541000B0F5801F06D0B0F5001F0CD0B0F5401FCE
:1054200011D10FE074482C38006840F40030724904
:105430002C39086009E0012104F1240005F0E0F8AE
:10544000054602E001E0012500BF00BF5DB96A48E2
:10545000001F006820F44010D4F884100843664907
:10546000091F086000E0A846206800F48030B0F50D
:10547000803F24D1E06C18B1B0F5803F0FD108E037
:105480005D482C38006840F400305B492C390860D6
:1054900007E00221201D05F001F8054601E0012585
:1054A00000BF00BF55B954480C38006820F4803064
:1054B000E16C084350490C39086000E0A8462068B8
:1054C00000F00050B0F1005F07D1022104F1240088
:1054D00005F096F808B14FF00108206800F400309C
:1054E000B0F5003F27D1E06FA0B1B0F5807F06D0C6
:1054F000B0F5007F0CD0B0F5407F0CD109E03E48FC
:105500002C38006840F400303B492C39086004E036
:1055100003E002E001E0012500BF00BF55B93648B5
:10552000001F006820F44070E16F08433249091FF2
:10553000086000E0A846206800F48010B0F5801FE5
:1055400009D12D480838006820F00040216F084339
:10555000294908390860206800F08050B0F1805F68
:105560000AD125484838006820F48040D4F8B410A7
:105570000843214948390860206800F40010B0F55C
:10558000001F09D11C480838006820F08070A16E07
:105590000843194908390860206800F08040B0F1DC
:1055A000804F11D100BF14484838006820F40040F3
:1055B00011494839086008460068D4F8B810084313
:1055C0000D494839086000BF206800F00040B0F184
:1055D000004F09D108480C38006820F04050216D78
:1055E000084305490C390860B8F1000F02D10020CA
:1055F000BDE8F0810120FBE7584402582DE9F04155
:1056000004460D4614B90120BDE8F081B648006893
:1056100000F00F00A8420ED2B348006820F00F003F
:105620002843B14908600846006800F00F00A8420E
:1056300001D00120E8E7207800F0040004280ED112
:10564000AA492069096801F07001884207D9A74872
:10565000006820F0700021690843A44908602078A0
:1056600000F00800082811D1A049091D60690968E7
:1056700001F07001884209D99C48001D006820F0A3
:105680007000616908439949091D0860207800F09D
:105690001000102811D19549091DA069096801F46D
:1056A000E061884209D99148001D006820F4E0605B
:1056B000A16908438D49091D0860207800F0200089
:1056C000202811D189490831E069096801F0700189
:1056D000884209D985480830006820F07000E169E7
:1056E0000843824908310860207800F0020002284F
:1056F0000ED17E49E068096801F00F01884207D9A0
:105700007A48006820F00F00E16808437749086094
:10571000207800F00100002850D07448006820F480
:105720007060A1680843714908606068022807D169
:105730006E4818380068C0F34040F8B9012063E7AC
:105740006068032807D1694818380068C0F34060D2
:10575000A0B9012058E76068012807D163481838CC
:105760000068C0F3002048B901204DE75F481838B1
:105770000068C0F3800008B9012045E75B4808389D
:10578000006820F00700616808435849083908603C
:10579000FDF740FE064608E0FDF73CFE801B41F2A7
:1057A0008831884201D903202EE750480838006824
:1057B00000F038006168B0EBC10FEDD1207800F047
:1057C000020002280ED14949E068096801F00F0182
:1057D000884207D24548006820F00F00E16808437E
:1057E000424908604048006800F00F00A8420ED906
:1057F0003D48006820F00F0028433B4908600846F8
:10580000006800F00F00A84201D00120FCE62078DB
:1058100000F0040004280ED134492069096801F021
:105820007001884207D23148006820F07000216979
:1058300008432E490860207800F00800082811D19C
:105840002A49091D6069096801F07001884209D27E
:105850002648001D006820F0700061690843234954
:10586000091D0860207800F01000102811D11F4990
:10587000091DA069096801F4E061884209D21B484A
:10588000001D006820F4E060A16908431749091D64
:105890000860207800F02000202811D11349083139
:1058A000E069096801F07001884209D20F480830A8
:1058B000006820F07000E16908430C490831086075
:1058C00000F056F809490968C1F30321084A515C00
:1058D00001F01F01C840074908600020FEF730FBB7
:1058E0000746384690E6000000200052184402584F
:1058F00024D70008A801002410B5FEF7F1FB0749E2
:10590000096801F00F01064A515C01F01F01C8400F
:10591000044908600846006810BD00001844025899
:1059200024D70008AC01002410B5FFF7E5FF0549B6
:105930000968C1F30211044A515C01F01F01C8401B
:1059400010BD00001C44025824D7000810B5FFF712
:10595000D3FF05490968C1F30221044A515C01F0F3
:105960001F01C84010BD00001C44025824D7000885
:10597000F0B5824E366806F0380636B1082E15D0DE
:10598000102E15D0182E7DD114E07C4E103E3668B6
:10599000C6F3401646B1794E103E3668C6F3C107CD
:1059A000774E26FA07F000E07548E5E07548E3E039
:1059B0007548E1E0714E1836366806F003046F4E04
:1059C00018363668C6F305116C4E1C36366806F07C
:1059D00001056A4E24363668C6F3CC0616FB05F67A
:1059E00001EE106AB8EE410A002971D024B1012CF1
:1059F00050D0022C6DD16DE0604E103E3668C6F37B
:105A000040163EB35D4E103E3668C6F3C1075C4E8D
:105A100026FA07F301EE103AF8EE411A01EE101AD9
:105A2000B8EE411A81EE812A9FED581AC0EE011A94
:105A3000524E20363668C6F3080601EE106AB8EEFC
:105A4000411A31EE811AF7EE001A31EE211A62EE98
:105A5000010A1EE001EE101AB8EE411ADFED4C1AF1
:105A600081EE812A9FED491AC0EE011A434E20367D
:105A70003668C6F3080601EE106AB8EE411A31EE38
:105A8000811A00E076E0F7EE001A31EE211A62EE9C
:105A9000010A5BE001EE101AB8EE411A9FED3D2AB3
:105AA000C2EE011A9FED391A80EE012A334E2036DC
:105AB0003668C6F3080601EE106AB8EE411A32EEF7
:105AC000011AB7EE002A31EE021A61EE810A3DE0BA
:105AD0004EE01DE001EE101AB8EE411ADFED2E1A6D
